{
  "contractName": "EmbraceCards",
  "abi": [
    {
      "inputs": [
        {
          "internalType": "string",
          "name": "baseURI",
          "type": "string"
        },
        {
          "internalType": "uint256",
          "name": "initialPrice",
          "type": "uint256"
        }
      ],
      "stateMutability": "nonpayable",
      "type": "constructor"
    },
    {
      "anonymous": false,
      "inputs": [
        {
          "indexed": true,
          "internalType": "address",
          "name": "owner",
          "type": "address"
        },
        {
          "indexed": true,
          "internalType": "address",
          "name": "approved",
          "type": "address"
        },
        {
          "indexed": true,
          "internalType": "uint256",
          "name": "tokenId",
          "type": "uint256"
        }
      ],
      "name": "Approval",
      "type": "event"
    },
    {
      "anonymous": false,
      "inputs": [
        {
          "indexed": true,
          "internalType": "address",
          "name": "owner",
          "type": "address"
        },
        {
          "indexed": true,
          "internalType": "address",
          "name": "operator",
          "type": "address"
        },
        {
          "indexed": false,
          "internalType": "bool",
          "name": "approved",
          "type": "bool"
        }
      ],
      "name": "ApprovalForAll",
      "type": "event"
    },
    {
      "anonymous": false,
      "inputs": [
        {
          "indexed": false,
          "internalType": "string",
          "name": "baseUri",
          "type": "string"
        }
      ],
      "name": "ChangeBaseUriEvent",
      "type": "event"
    },
    {
      "anonymous": false,
      "inputs": [
        {
          "indexed": false,
          "internalType": "uint256",
          "name": "price",
          "type": "uint256"
        }
      ],
      "name": "ChangePriceEvent",
      "type": "event"
    },
    {
      "anonymous": false,
      "inputs": [
        {
          "indexed": false,
          "internalType": "address",
          "name": "to",
          "type": "address"
        },
        {
          "indexed": true,
          "internalType": "uint256",
          "name": "id",
          "type": "uint256"
        }
      ],
      "name": "MintEvent",
      "type": "event"
    },
    {
      "anonymous": false,
      "inputs": [
        {
          "indexed": false,
          "internalType": "uint256",
          "name": "index",
          "type": "uint256"
        },
        {
          "indexed": false,
          "internalType": "uint256",
          "name": "numItems",
          "type": "uint256"
        },
        {
          "indexed": false,
          "internalType": "uint256",
          "name": "startIndex",
          "type": "uint256"
        },
        {
          "indexed": false,
          "internalType": "uint64",
          "name": "timestamp",
          "type": "uint64"
        },
        {
          "indexed": false,
          "internalType": "uint256",
          "name": "generatorHash",
          "type": "uint256"
        },
        {
          "indexed": false,
          "internalType": "uint256",
          "name": "generatorSeed",
          "type": "uint256"
        },
        {
          "indexed": false,
          "internalType": "uint256",
          "name": "provenanceHash",
          "type": "uint256"
        }
      ],
      "name": "NewGenerationEvent",
      "type": "event"
    },
    {
      "anonymous": false,
      "inputs": [
        {
          "indexed": true,
          "internalType": "address",
          "name": "previousOwner",
          "type": "address"
        },
        {
          "indexed": true,
          "internalType": "address",
          "name": "newOwner",
          "type": "address"
        }
      ],
      "name": "OwnershipTransferred",
      "type": "event"
    },
    {
      "anonymous": false,
      "inputs": [
        {
          "indexed": false,
          "internalType": "address",
          "name": "account",
          "type": "address"
        }
      ],
      "name": "Paused",
      "type": "event"
    },
    {
      "anonymous": false,
      "inputs": [
        {
          "indexed": false,
          "internalType": "uint256",
          "name": "preNummItems",
          "type": "uint256"
        },
        {
          "indexed": false,
          "internalType": "uint256",
          "name": "preGeneratorHash",
          "type": "uint256"
        },
        {
          "indexed": false,
          "internalType": "uint256",
          "name": "preGeneratorSeed",
          "type": "uint256"
        }
      ],
      "name": "PreGenerationEvent",
      "type": "event"
    },
    {
      "anonymous": false,
      "inputs": [
        {
          "indexed": false,
          "internalType": "address",
          "name": "to",
          "type": "address"
        },
        {
          "indexed": false,
          "internalType": "string",
          "name": "message",
          "type": "string"
        },
        {
          "indexed": false,
          "internalType": "uint256",
          "name": "tokenId",
          "type": "uint256"
        }
      ],
      "name": "SendCardEvent",
      "type": "event"
    },
    {
      "anonymous": false,
      "inputs": [
        {
          "indexed": true,
          "internalType": "address",
          "name": "from",
          "type": "address"
        },
        {
          "indexed": true,
          "internalType": "address",
          "name": "to",
          "type": "address"
        },
        {
          "indexed": true,
          "internalType": "uint256",
          "name": "tokenId",
          "type": "uint256"
        }
      ],
      "name": "Transfer",
      "type": "event"
    },
    {
      "anonymous": false,
      "inputs": [
        {
          "indexed": false,
          "internalType": "address",
          "name": "account",
          "type": "address"
        }
      ],
      "name": "Unpaused",
      "type": "event"
    },
    {
      "inputs": [
        {
          "internalType": "uint256",
          "name": "",
          "type": "uint256"
        }
      ],
      "name": "_generationsArr",
      "outputs": [
        {
          "internalType": "uint64",
          "name": "index",
          "type": "uint64"
        },
        {
          "internalType": "uint64",
          "name": "numItems",
          "type": "uint64"
        },
        {
          "internalType": "uint64",
          "name": "startIndex",
          "type": "uint64"
        },
        {
          "internalType": "uint64",
          "name": "timestamp",
          "type": "uint64"
        },
        {
          "internalType": "uint256",
          "name": "generatorHash",
          "type": "uint256"
        },
        {
          "internalType": "uint256",
          "name": "generatorSeed",
          "type": "uint256"
        },
        {
          "internalType": "uint256",
          "name": "provenanceHash",
          "type": "uint256"
        }
      ],
      "stateMutability": "view",
      "type": "function"
    },
    {
      "inputs": [
        {
          "internalType": "address",
          "name": "to",
          "type": "address"
        },
        {
          "internalType": "uint256",
          "name": "tokenId",
          "type": "uint256"
        }
      ],
      "name": "approve",
      "outputs": [],
      "stateMutability": "nonpayable",
      "type": "function"
    },
    {
      "inputs": [
        {
          "internalType": "address",
          "name": "owner",
          "type": "address"
        }
      ],
      "name": "balanceOf",
      "outputs": [
        {
          "internalType": "uint256",
          "name": "",
          "type": "uint256"
        }
      ],
      "stateMutability": "view",
      "type": "function"
    },
    {
      "inputs": [
        {
          "internalType": "uint256",
          "name": "tokenId",
          "type": "uint256"
        }
      ],
      "name": "burn",
      "outputs": [],
      "stateMutability": "nonpayable",
      "type": "function"
    },
    {
      "inputs": [],
      "name": "genStartIndex",
      "outputs": [
        {
          "internalType": "uint256",
          "name": "",
          "type": "uint256"
        }
      ],
      "stateMutability": "view",
      "type": "function"
    },
    {
      "inputs": [
        {
          "internalType": "uint256",
          "name": "tokenId",
          "type": "uint256"
        }
      ],
      "name": "getApproved",
      "outputs": [
        {
          "internalType": "address",
          "name": "",
          "type": "address"
        }
      ],
      "stateMutability": "view",
      "type": "function"
    },
    {
      "inputs": [],
      "name": "getCurrentGeneration",
      "outputs": [
        {
          "components": [
            {
              "internalType": "uint64",
              "name": "index",
              "type": "uint64"
            },
            {
              "internalType": "uint64",
              "name": "numItems",
              "type": "uint64"
            },
            {
              "internalType": "uint64",
              "name": "startIndex",
              "type": "uint64"
            },
            {
              "internalType": "uint64",
              "name": "timestamp",
              "type": "uint64"
            },
            {
              "internalType": "uint256",
              "name": "generatorHash",
              "type": "uint256"
            },
            {
              "internalType": "uint256",
              "name": "generatorSeed",
              "type": "uint256"
            },
            {
              "internalType": "uint256",
              "name": "provenanceHash",
              "type": "uint256"
            }
          ],
          "internalType": "struct GenerationalRandomMintable.Generation",
          "name": "",
          "type": "tuple"
        }
      ],
      "stateMutability": "view",
      "type": "function"
    },
    {
      "inputs": [],
      "name": "getGeneratorSeed",
      "outputs": [
        {
          "internalType": "uint256",
          "name": "",
          "type": "uint256"
        }
      ],
      "stateMutability": "view",
      "type": "function"
    },
    {
      "inputs": [
        {
          "internalType": "address",
          "name": "owner",
          "type": "address"
        },
        {
          "internalType": "address",
          "name": "operator",
          "type": "address"
        }
      ],
      "name": "isApprovedForAll",
      "outputs": [
        {
          "internalType": "bool",
          "name": "",
          "type": "bool"
        }
      ],
      "stateMutability": "view",
      "type": "function"
    },
    {
      "inputs": [
        {
          "internalType": "uint64",
          "name": "numItems",
          "type": "uint64"
        },
        {
          "internalType": "uint256",
          "name": "provenanceHash",
          "type": "uint256"
        }
      ],
      "name": "makeNewGeneration",
      "outputs": [],
      "stateMutability": "nonpayable",
      "type": "function"
    },
    {
      "inputs": [
        {
          "internalType": "uint256",
          "name": "",
          "type": "uint256"
        }
      ],
      "name": "messages",
      "outputs": [
        {
          "internalType": "string",
          "name": "",
          "type": "string"
        }
      ],
      "stateMutability": "view",
      "type": "function"
    },
    {
      "inputs": [],
      "name": "name",
      "outputs": [
        {
          "internalType": "string",
          "name": "",
          "type": "string"
        }
      ],
      "stateMutability": "view",
      "type": "function"
    },
    {
      "inputs": [],
      "name": "owner",
      "outputs": [
        {
          "internalType": "address",
          "name": "",
          "type": "address"
        }
      ],
      "stateMutability": "view",
      "type": "function"
    },
    {
      "inputs": [
        {
          "internalType": "uint256",
          "name": "tokenId",
          "type": "uint256"
        }
      ],
      "name": "ownerOf",
      "outputs": [
        {
          "internalType": "address",
          "name": "",
          "type": "address"
        }
      ],
      "stateMutability": "view",
      "type": "function"
    },
    {
      "inputs": [],
      "name": "paused",
      "outputs": [
        {
          "internalType": "bool",
          "name": "",
          "type": "bool"
        }
      ],
      "stateMutability": "view",
      "type": "function"
    },
    {
      "inputs": [
        {
          "internalType": "uint256",
          "name": "paramGeneratorHash",
          "type": "uint256"
        },
        {
          "internalType": "uint64",
          "name": "numItems",
          "type": "uint64"
        }
      ],
      "name": "preGeneration",
      "outputs": [
        {
          "internalType": "uint256",
          "name": "",
          "type": "uint256"
        }
      ],
      "stateMutability": "nonpayable",
      "type": "function"
    },
    {
      "inputs": [],
      "name": "promotionalMintIndex",
      "outputs": [
        {
          "internalType": "uint256",
          "name": "",
          "type": "uint256"
        }
      ],
      "stateMutability": "view",
      "type": "function"
    },
    {
      "inputs": [],
      "name": "remaining",
      "outputs": [
        {
          "internalType": "uint256",
          "name": "",
          "type": "uint256"
        }
      ],
      "stateMutability": "view",
      "type": "function"
    },
    {
      "inputs": [],
      "name": "renounceOwnership",
      "outputs": [],
      "stateMutability": "nonpayable",
      "type": "function"
    },
    {
      "inputs": [
        {
          "internalType": "address",
          "name": "from",
          "type": "address"
        },
        {
          "internalType": "address",
          "name": "to",
          "type": "address"
        },
        {
          "internalType": "uint256",
          "name": "tokenId",
          "type": "uint256"
        }
      ],
      "name": "safeTransferFrom",
      "outputs": [],
      "stateMutability": "nonpayable",
      "type": "function"
    },
    {
      "inputs": [
        {
          "internalType": "address",
          "name": "from",
          "type": "address"
        },
        {
          "internalType": "address",
          "name": "to",
          "type": "address"
        },
        {
          "internalType": "uint256",
          "name": "tokenId",
          "type": "uint256"
        },
        {
          "internalType": "bytes",
          "name": "_data",
          "type": "bytes"
        }
      ],
      "name": "safeTransferFrom",
      "outputs": [],
      "stateMutability": "nonpayable",
      "type": "function"
    },
    {
      "inputs": [
        {
          "internalType": "address",
          "name": "operator",
          "type": "address"
        },
        {
          "internalType": "bool",
          "name": "approved",
          "type": "bool"
        }
      ],
      "name": "setApprovalForAll",
      "outputs": [],
      "stateMutability": "nonpayable",
      "type": "function"
    },
    {
      "inputs": [],
      "name": "symbol",
      "outputs": [
        {
          "internalType": "string",
          "name": "",
          "type": "string"
        }
      ],
      "stateMutability": "view",
      "type": "function"
    },
    {
      "inputs": [
        {
          "internalType": "uint256",
          "name": "index",
          "type": "uint256"
        }
      ],
      "name": "tokenByIndex",
      "outputs": [
        {
          "internalType": "uint256",
          "name": "",
          "type": "uint256"
        }
      ],
      "stateMutability": "view",
      "type": "function"
    },
    {
      "inputs": [
        {
          "internalType": "address",
          "name": "owner",
          "type": "address"
        },
        {
          "internalType": "uint256",
          "name": "index",
          "type": "uint256"
        }
      ],
      "name": "tokenOfOwnerByIndex",
      "outputs": [
        {
          "internalType": "uint256",
          "name": "",
          "type": "uint256"
        }
      ],
      "stateMutability": "view",
      "type": "function"
    },
    {
      "inputs": [
        {
          "internalType": "uint256",
          "name": "tokenId",
          "type": "uint256"
        }
      ],
      "name": "tokenURI",
      "outputs": [
        {
          "internalType": "string",
          "name": "",
          "type": "string"
        }
      ],
      "stateMutability": "view",
      "type": "function"
    },
    {
      "inputs": [],
      "name": "totalSupply",
      "outputs": [
        {
          "internalType": "uint256",
          "name": "",
          "type": "uint256"
        }
      ],
      "stateMutability": "view",
      "type": "function"
    },
    {
      "inputs": [
        {
          "internalType": "address",
          "name": "from",
          "type": "address"
        },
        {
          "internalType": "address",
          "name": "to",
          "type": "address"
        },
        {
          "internalType": "uint256",
          "name": "tokenId",
          "type": "uint256"
        }
      ],
      "name": "transferFrom",
      "outputs": [],
      "stateMutability": "nonpayable",
      "type": "function"
    },
    {
      "inputs": [
        {
          "internalType": "address",
          "name": "newOwner",
          "type": "address"
        }
      ],
      "name": "transferOwnership",
      "outputs": [],
      "stateMutability": "nonpayable",
      "type": "function"
    },
    {
      "inputs": [
        {
          "internalType": "uint256",
          "name": "_count",
          "type": "uint256"
        }
      ],
      "name": "mint",
      "outputs": [],
      "stateMutability": "payable",
      "type": "function"
    },
    {
      "inputs": [
        {
          "internalType": "uint256",
          "name": "_count",
          "type": "uint256"
        }
      ],
      "name": "promotionalMint",
      "outputs": [],
      "stateMutability": "payable",
      "type": "function"
    },
    {
      "inputs": [
        {
          "internalType": "string",
          "name": "baseURI",
          "type": "string"
        }
      ],
      "name": "setBaseURI",
      "outputs": [],
      "stateMutability": "nonpayable",
      "type": "function"
    },
    {
      "inputs": [
        {
          "internalType": "uint256",
          "name": "password",
          "type": "uint256"
        }
      ],
      "name": "CAUTION_PermanentlyLockBaseURI",
      "outputs": [],
      "stateMutability": "nonpayable",
      "type": "function"
    },
    {
      "inputs": [
        {
          "internalType": "uint256",
          "name": "_count",
          "type": "uint256"
        }
      ],
      "name": "price",
      "outputs": [
        {
          "internalType": "uint256",
          "name": "",
          "type": "uint256"
        }
      ],
      "stateMutability": "view",
      "type": "function"
    },
    {
      "inputs": [
        {
          "internalType": "uint256",
          "name": "newPrice",
          "type": "uint256"
        }
      ],
      "name": "setPrice",
      "outputs": [],
      "stateMutability": "nonpayable",
      "type": "function"
    },
    {
      "inputs": [],
      "name": "maxMint",
      "outputs": [
        {
          "internalType": "uint256",
          "name": "",
          "type": "uint256"
        }
      ],
      "stateMutability": "view",
      "type": "function"
    },
    {
      "inputs": [],
      "name": "maxSupply",
      "outputs": [
        {
          "internalType": "uint256",
          "name": "",
          "type": "uint256"
        }
      ],
      "stateMutability": "view",
      "type": "function"
    },
    {
      "inputs": [],
      "name": "raised",
      "outputs": [
        {
          "internalType": "uint256",
          "name": "",
          "type": "uint256"
        }
      ],
      "stateMutability": "view",
      "type": "function"
    },
    {
      "inputs": [
        {
          "internalType": "address",
          "name": "_owner",
          "type": "address"
        }
      ],
      "name": "getTokenIdsOfWallet",
      "outputs": [
        {
          "internalType": "uint256[]",
          "name": "",
          "type": "uint256[]"
        }
      ],
      "stateMutability": "view",
      "type": "function"
    },
    {
      "inputs": [
        {
          "internalType": "bool",
          "name": "value",
          "type": "bool"
        }
      ],
      "name": "pause",
      "outputs": [],
      "stateMutability": "nonpayable",
      "type": "function"
    },
    {
      "inputs": [
        {
          "internalType": "bytes4",
          "name": "interfaceId",
          "type": "bytes4"
        }
      ],
      "name": "supportsInterface",
      "outputs": [
        {
          "internalType": "bool",
          "name": "",
          "type": "bool"
        }
      ],
      "stateMutability": "view",
      "type": "function"
    },
    {
      "inputs": [
        {
          "internalType": "address",
          "name": "to",
          "type": "address"
        },
        {
          "internalType": "string",
          "name": "message",
          "type": "string"
        },
        {
          "internalType": "uint256",
          "name": "tokenId",
          "type": "uint256"
        }
      ],
      "name": "sendWithMessage",
      "outputs": [],
      "stateMutability": "nonpayable",
      "type": "function"
    },
    {
      "inputs": [
        {
          "internalType": "address",
          "name": "to",
          "type": "address"
        },
        {
          "internalType": "string",
          "name": "message",
          "type": "string"
        },
        {
          "internalType": "uint256",
          "name": "tokenId",
          "type": "uint256"
        }
      ],
      "name": "sendWithOnChainMessage",
      "outputs": [],
      "stateMutability": "nonpayable",
      "type": "function"
    },
    {
      "inputs": [
        {
          "internalType": "uint256",
          "name": "tokenId",
          "type": "uint256"
        },
        {
          "internalType": "string",
          "name": "message",
          "type": "string"
        }
      ],
      "name": "setMessage",
      "outputs": [],
      "stateMutability": "nonpayable",
      "type": "function"
    }
  ],
  "bytecode": "0x60806040526001600b60006101000a81548167ffffffffffffffff021916908367ffffffffffffffff16021790555061138860185560146019556000601b60006101000a81548160ff021916908315150217905550612711601c553480156200006757600080fd5b506040516200685d3803806200685d83398181016040528101906200008d9190620004fc565b6040518060400160405280600781526020017f54686520487567000000000000000000000000000000000000000000000000008152506040518060400160405280600281526020017f584f000000000000000000000000000000000000000000000000000000000000815250816000908051906020019062000111929190620003b7565b5080600190805190602001906200012a929190620003b7565b5050506200014d620001416200018860201b60201c565b6200019060201b60201c565b6000601560006101000a81548160ff02191690831515021790555062000179826200025660201b60201c565b8060178190555050506200086f565b600033905090565b6000600660009054906101000a900473ffffffffffffffffffffffffffffffffffffffff16905081600660006101000a81548173ffffffffffffffffffffffffffffffffffffffff021916908373ffffffffffffffffffffffffffffffffffffffff1602179055508173ffffffffffffffffffffffffffffffffffffffff168173ffffffffffffffffffffffffffffffffffffffff167f8be0079c531659141344cd1fd0a4f28419497f9722a3daafe3b4186f6b6457e060405160405180910390a35050565b620002666200018860201b60201c565b73ffffffffffffffffffffffffffffffffffffffff166200028c6200038d60201b60201c565b73ffffffffffffffffffffffffffffffffffffffff1614620002e5576040517f08c379a0000000000000000000000000000000000000000000000000000000008152600401620002dc9062000637565b60405180910390fd5b601b60009054906101000a900460ff161562000338576040517f08c379a00000000000000000000000000000000000000000000000000000000081526004016200032f9062000615565b60405180910390fd5b80601a908051906020019062000350929190620003b7565b507fe90784cd3d178b1e715fd49bba7b15c0a6daa1d7034abbe13e6d2760af81b25681604051620003829190620005f1565b60405180910390a150565b6000600660009054906101000a900473ffffffffffffffffffffffffffffffffffffffff16905090565b828054620003c59062000714565b90600052602060002090601f016020900481019282620003e9576000855562000435565b82601f106200040457805160ff191683800117855562000435565b8280016001018555821562000435579182015b828111156200043457825182559160200191906001019062000417565b5b50905062000444919062000448565b5090565b5b808211156200046357600081600090555060010162000449565b5090565b60006200047e620004788462000682565b62000659565b9050828152602081018484840111156200049d576200049c620007e3565b5b620004aa848285620006de565b509392505050565b600082601f830112620004ca57620004c9620007de565b5b8151620004dc84826020860162000467565b91505092915050565b600081519050620004f68162000855565b92915050565b60008060408385031215620005165762000515620007ed565b5b600083015167ffffffffffffffff811115620005375762000536620007e8565b5b6200054585828601620004b2565b92505060206200055885828601620004e5565b9150509250929050565b60006200056f82620006b8565b6200057b8185620006c3565b93506200058d818560208601620006de565b6200059881620007f2565b840191505092915050565b6000620005b2601283620006c3565b9150620005bf8262000803565b602082019050919050565b6000620005d9602083620006c3565b9150620005e6826200082c565b602082019050919050565b600060208201905081810360008301526200060d818462000562565b905092915050565b600060208201905081810360008301526200063081620005a3565b9050919050565b600060208201905081810360008301526200065281620005ca565b9050919050565b60006200066562000678565b90506200067382826200074a565b919050565b6000604051905090565b600067ffffffffffffffff821115620006a0576200069f620007af565b5b620006ab82620007f2565b9050602081019050919050565b600081519050919050565b600082825260208201905092915050565b6000819050919050565b60005b83811015620006fe578082015181840152602081019050620006e1565b838111156200070e576000848401525b50505050565b600060028204905060018216806200072d57607f821691505b6020821081141562000744576200074362000780565b5b50919050565b6200075582620007f2565b810181811067ffffffffffffffff82111715620007775762000776620007af565b5b80604052505050565b7f4e487b7100000000000000000000000000000000000000000000000000000000600052602260045260246000fd5b7f4e487b7100000000000000000000000000000000000000000000000000000000600052604160045260246000fd5b600080fd5b600080fd5b600080fd5b600080fd5b6000601f19601f8301169050919050565b7f42617365555249206973206c6f636b6564210000000000000000000000000000600082015250565b7f4f776e61626c653a2063616c6c6572206973206e6f7420746865206f776e6572600082015250565b6200086081620006d4565b81146200086c57600080fd5b50565b615fde806200087f6000396000f3fe6080604052600436106102675760003560e01c806370a0823111610144578063aaf65b67116100b6578063dc073f0c1161007a578063dc073f0c1461094c578063e985e9c514610977578063eef62508146109b4578063f0ea4bfc146109f1578063f2c1318714610a1c578063f2fde38b14610a4757610267565b8063aaf65b6714610853578063b4113b2e14610890578063b88d4fde146108bb578063c87b56dd146108e4578063d5abeb011461092157610267565b806391b7f5ed1161010857806391b7f5ed146107665780639481a3c21461078f57806395d89b41146107ba578063a0712d68146107e5578063a22cb46514610801578063a760586b1461082a57610267565b806370a0823114610693578063715018a6146106d05780637501f741146106e75780638a6d72ad146107125780638da5cb5b1461073b57610267565b80632f352c24116101dd5780634f6ccce7116101a15780634f6ccce71461057157806355234ec0146105ae57806355f804b3146105d95780635c975abb146106025780636352211e1461062d578063648345c81461066a57610267565b80632f352c24146104765780632f726701146104b95780632f745c59146104e257806342842e0e1461051f57806342966c681461054857610267565b80630d80fefd1161022f5780630d80fefd1461036357806318160ddd146103a057806321173391146103cb57806323b872dd146103e757806326a49e37146104105780632af1d4501461044d57610267565b806301ffc9a71461026c57806302329a29146102a957806306fdde03146102d2578063081812fc146102fd578063095ea7b31461033a575b600080fd5b34801561027857600080fd5b50610293600480360381019061028e919061430e565b610a70565b6040516102a09190614c8c565b60405180910390f35b3480156102b557600080fd5b506102d060048036038101906102cb91906142e1565b610a82565b005b3480156102de57600080fd5b506102e7610b24565b6040516102f49190614ca7565b60405180910390f35b34801561030957600080fd5b50610324600480360381019061031f91906143b1565b610bb6565b6040516103319190614bc5565b60405180910390f35b34801561034657600080fd5b50610361600480360381019061035c91906142a1565b610c3b565b005b34801561036f57600080fd5b5061038a600480360381019061038591906143b1565b610d53565b6040516103979190614ca7565b60405180910390f35b3480156103ac57600080fd5b506103b5610df3565b6040516103c29190615104565b60405180910390f35b6103e560048036038101906103e091906143b1565b610e00565b005b3480156103f357600080fd5b5061040e6004803603810190610409919061411c565b611028565b005b34801561041c57600080fd5b50610437600480360381019061043291906143b1565b611088565b6040516104449190615104565b60405180910390f35b34801561045957600080fd5b50610474600480360381019061046f9190614232565b6110a6565b005b34801561048257600080fd5b5061049d600480360381019061049891906143b1565b611169565b6040516104b097969594939291906151c5565b60405180910390f35b3480156104c557600080fd5b506104e060048036038101906104db9190614232565b61120b565b005b3480156104ee57600080fd5b50610509600480360381019061050491906142a1565b6112a6565b6040516105169190615104565b60405180910390f35b34801561052b57600080fd5b506105466004803603810190610541919061411c565b61134b565b005b34801561055457600080fd5b5061056f600480360381019061056a91906143b1565b61136b565b005b34801561057d57600080fd5b50610598600480360381019061059391906143b1565b6113c7565b6040516105a59190615104565b60405180910390f35b3480156105ba57600080fd5b506105c3611438565b6040516105d09190615104565b60405180910390f35b3480156105e557600080fd5b5061060060048036038101906105fb9190614368565b61143e565b005b34801561060e57600080fd5b5061061761155b565b6040516106249190614c8c565b60405180910390f35b34801561063957600080fd5b50610654600480360381019061064f91906143b1565b611572565b6040516106619190614bc5565b60405180910390f35b34801561067657600080fd5b50610691600480360381019061068c91906143de565b611624565b005b34801561069f57600080fd5b506106ba60048036038101906106b591906140af565b6116a0565b6040516106c79190615104565b60405180910390f35b3480156106dc57600080fd5b506106e5611758565b005b3480156106f357600080fd5b506106fc6117e0565b6040516107099190615104565b60405180910390f35b34801561071e57600080fd5b50610739600480360381019061073491906143b1565b6117ea565b005b34801561074757600080fd5b5061075061188f565b60405161075d9190614bc5565b60405180910390f35b34801561077257600080fd5b5061078d600480360381019061078891906143b1565b6118b9565b005b34801561079b57600080fd5b506107a4611976565b6040516107b19190615104565b60405180910390f35b3480156107c657600080fd5b506107cf61197c565b6040516107dc9190614ca7565b60405180910390f35b6107ff60048036038101906107fa91906143b1565b611a0e565b005b34801561080d57600080fd5b50610828600480360381019061082391906141f2565b611c4f565b005b34801561083657600080fd5b50610851600480360381019061084c919061447a565b611dd0565b005b34801561085f57600080fd5b5061087a6004803603810190610875919061443a565b61226c565b6040516108879190615104565b60405180910390f35b34801561089c57600080fd5b506108a561239c565b6040516108b291906150e9565b60405180910390f35b3480156108c757600080fd5b506108e260048036038101906108dd919061416f565b6124cd565b005b3480156108f057600080fd5b5061090b600480360381019061090691906143b1565b61252f565b6040516109189190614ca7565b60405180910390f35b34801561092d57600080fd5b506109366125d6565b6040516109439190615104565b60405180910390f35b34801561095857600080fd5b506109616125e0565b60405161096e9190615104565b60405180910390f35b34801561098357600080fd5b5061099e600480360381019061099991906140dc565b6125ea565b6040516109ab9190614c8c565b60405180910390f35b3480156109c057600080fd5b506109db60048036038101906109d691906140af565b61267e565b6040516109e89190614c6a565b60405180910390f35b3480156109fd57600080fd5b50610a0661272c565b604051610a139190615104565b60405180910390f35b348015610a2857600080fd5b50610a31612734565b604051610a3e9190615104565b60405180910390f35b348015610a5357600080fd5b50610a6e6004803603810190610a6991906140af565b61273a565b005b6000610a7b82612832565b9050919050565b610a8a6128ac565b73ffffffffffffffffffffffffffffffffffffffff16610aa861188f565b73ffffffffffffffffffffffffffffffffffffffff1614610afe576040517f08c379a0000000000000000000000000000000000000000000000000000000008152600401610af590614f89565b60405180910390fd5b600115158115151415610b1857610b136128b4565b610b21565b610b20612957565b5b50565b606060008054610b3390615566565b80601f0160208091040260200160405190810160405280929190818152602001828054610b5f90615566565b8015610bac5780601f10610b8157610100808354040283529160200191610bac565b820191906000526020600020905b815481529060010190602001808311610b8f57829003601f168201915b5050505050905090565b6000610bc1826129f9565b610c00576040517f08c379a0000000000000000000000000000000000000000000000000000000008152600401610bf790614f69565b60405180910390fd5b6004600083815260200190815260200160002060009054906101000a900473ffffffffffffffffffffffffffffffffffffffff169050919050565b6000610c4682611572565b90508073ffffffffffffffffffffffffffffffffffffffff168373ffffffffffffffffffffffffffffffffffffffff161415610cb7576040517f08c379a0000000000000000000000000000000000000000000000000000000008152600401610cae90615009565b60405180910390fd5b8073ffffffffffffffffffffffffffffffffffffffff16610cd66128ac565b73ffffffffffffffffffffffffffffffffffffffff161480610d055750610d0481610cff6128ac565b6125ea565b5b610d44576040517f08c379a0000000000000000000000000000000000000000000000000000000008152600401610d3b90614ec9565b60405180910390fd5b610d4e8383612a65565b505050565b601d6020528060005260406000206000915090508054610d7290615566565b80601f0160208091040260200160405190810160405280929190818152602001828054610d9e90615566565b8015610deb5780601f10610dc057610100808354040283529160200191610deb565b820191906000526020600020905b815481529060010190602001808311610dce57829003601f168201915b505050505081565b6000600980549050905090565b601854610e0b612b1e565b1115610e4c576040517f08c379a0000000000000000000000000000000000000000000000000000000008152600401610e4390614fe9565b60405180910390fd5b610e5461188f565b73ffffffffffffffffffffffffffffffffffffffff16610e726128ac565b73ffffffffffffffffffffffffffffffffffffffff1614610ed657610e9561155b565b15610ed5576040517f08c379a0000000000000000000000000000000000000000000000000000000008152600401610ecc90614d09565b60405180910390fd5b5b6000610ee0612b1e565b90506018548282610ef19190615337565b1115610f32576040517f08c379a0000000000000000000000000000000000000000000000000000000008152600401610f2990614d29565b60405180910390fd5b601854811115610f77576040517f08c379a0000000000000000000000000000000000000000000000000000000008152600401610f6e906150a9565b60405180910390fd5b612af8826001601c54610f8a9190615456565b610f949190615337565b1115610fd5576040517f08c379a0000000000000000000000000000000000000000000000000000000008152600401610fcc90614d69565b60405180910390fd5b60005b8281101561100a57610ff73382601c54610ff29190615337565b612b2f565b8080611002906155c9565b915050610fd8565b5081601c600082825461101d9190615337565b925050819055505050565b6110396110336128ac565b82612b7f565b611078576040517f08c379a000000000000000000000000000000000000000000000000000000000815260040161106f90615029565b60405180910390fd5b611083838383612c5d565b505050565b600061109f82601754612eb990919063ffffffff16565b9050919050565b6110b76110b16128ac565b82612b7f565b6110f6576040517f08c379a00000000000000000000000000000000000000000000000000000000081526004016110ed90614d49565b60405180910390fd5b61110133848361134b565b81601d60008381526020019081526020016000209080519060200190611128929190613e49565b507f5af24163427298977193420c0c6ee669669fd183ee2a00b836982776e1fba78483838360405161115c93929190614c2c565b60405180910390a1505050565b6014818154811061117957600080fd5b90600052602060002090600402016000915090508060000160009054906101000a900467ffffffffffffffff16908060000160089054906101000a900467ffffffffffffffff16908060000160109054906101000a900467ffffffffffffffff16908060000160189054906101000a900467ffffffffffffffff16908060010154908060020154908060030154905087565b61121c6112166128ac565b82612b7f565b61125b576040517f08c379a000000000000000000000000000000000000000000000000000000000815260040161125290614d49565b60405180910390fd5b61126633848361134b565b7f5af24163427298977193420c0c6ee669669fd183ee2a00b836982776e1fba78483838360405161129993929190614c2c565b60405180910390a1505050565b60006112b1836116a0565b82106112f2576040517f08c379a00000000000000000000000000000000000000000000000000000000081526004016112e990614d89565b60405180910390fd5b600760008473ffffffffffffffffffffffffffffffffffffffff1673ffffffffffffffffffffffffffffffffffffffff168152602001908152602001600020600083815260200190815260200160002054905092915050565b611366838383604051806020016040528060008152506124cd565b505050565b61137c6113766128ac565b82612b7f565b6113bb576040517f08c379a00000000000000000000000000000000000000000000000000000000081526004016113b290615089565b60405180910390fd5b6113c481612ecf565b50565b60006113d1610df3565b8210611412576040517f08c379a000000000000000000000000000000000000000000000000000000000815260040161140990615049565b60405180910390fd5b6009828154811061142657611425615709565b5b90600052602060002001549050919050565b600d5481565b6114466128ac565b73ffffffffffffffffffffffffffffffffffffffff1661146461188f565b73ffffffffffffffffffffffffffffffffffffffff16146114ba576040517f08c379a00000000000000000000000000000000000000000000000000000000081526004016114b190614f89565b60405180910390fd5b601b60009054906101000a900460ff161561150a576040517f08c379a000000000000000000000000000000000000000000000000000000000815260040161150190614ea9565b60405180910390fd5b80601a9080519060200190611520929190613e49565b507fe90784cd3d178b1e715fd49bba7b15c0a6daa1d7034abbe13e6d2760af81b256816040516115509190614ca7565b60405180910390a150565b6000601560009054906101000a900460ff16905090565b6000806002600084815260200190815260200160002060009054906101000a900473ffffffffffffffffffffffffffffffffffffffff169050600073ffffffffffffffffffffffffffffffffffffffff168173ffffffffffffffffffffffffffffffffffffffff16141561161b576040517f08c379a000000000000000000000000000000000000000000000000000000000815260040161161290614f09565b60405180910390fd5b80915050919050565b61163561162f6128ac565b83612b7f565b611674576040517f08c379a000000000000000000000000000000000000000000000000000000000815260040161166b90614d49565b60405180910390fd5b80601d6000848152602001908152602001600020908051906020019061169b929190613e49565b505050565b60008073ffffffffffffffffffffffffffffffffffffffff168273ffffffffffffffffffffffffffffffffffffffff161415611711576040517f08c379a000000000000000000000000000000000000000000000000000000000815260040161170890614ee9565b60405180910390fd5b600360008373ffffffffffffffffffffffffffffffffffffffff1673ffffffffffffffffffffffffffffffffffffffff168152602001908152602001600020549050919050565b6117606128ac565b73ffffffffffffffffffffffffffffffffffffffff1661177e61188f565b73ffffffffffffffffffffffffffffffffffffffff16146117d4576040517f08c379a00000000000000000000000000000000000000000000000000000000081526004016117cb90614f89565b60405180910390fd5b6117de6000612fe0565b565b6000601954905090565b6117f26128ac565b73ffffffffffffffffffffffffffffffffffffffff1661181061188f565b73ffffffffffffffffffffffffffffffffffffffff1614611866576040517f08c379a000000000000000000000000000000000000000000000000000000000815260040161185d90614f89565b60405180910390fd5b61303981141561188c576001601b60006101000a81548160ff0219169083151502179055505b50565b6000600660009054906101000a900473ffffffffffffffffffffffffffffffffffffffff16905090565b6118c16128ac565b73ffffffffffffffffffffffffffffffffffffffff166118df61188f565b73ffffffffffffffffffffffffffffffffffffffff1614611935576040517f08c379a000000000000000000000000000000000000000000000000000000000815260040161192c90614f89565b60405180910390fd5b806017819055507f6bf79053acd4a6bb1911b02099ac273228b3bbf917411bc159d6cb7846fcfcf78160405161196b9190615104565b60405180910390a150565b601c5481565b60606001805461198b90615566565b80601f01602080910402602001604051908101604052809291908181526020018280546119b790615566565b8015611a045780601f106119d957610100808354040283529160200191611a04565b820191906000526020600020905b8154815290600101906020018083116119e757829003601f168201915b5050505050905090565b601854611a19612b1e565b1115611a5a576040517f08c379a0000000000000000000000000000000000000000000000000000000008152600401611a5190614fe9565b60405180910390fd5b611a6261188f565b73ffffffffffffffffffffffffffffffffffffffff16611a806128ac565b73ffffffffffffffffffffffffffffffffffffffff1614611ae457611aa361155b565b15611ae3576040517f08c379a0000000000000000000000000000000000000000000000000000000008152600401611ada90614d09565b60405180910390fd5b5b6000611aee612b1e565b90506018548282611aff9190615337565b1115611b40576040517f08c379a0000000000000000000000000000000000000000000000000000000008152600401611b3790614f29565b60405180910390fd5b601854811115611b85576040517f08c379a0000000000000000000000000000000000000000000000000000000008152600401611b7c906150c9565b60405180910390fd5b601954821115611bca576040517f08c379a0000000000000000000000000000000000000000000000000000000008152600401611bc190614dc9565b60405180910390fd5b611bd382611088565b341015611c15576040517f08c379a0000000000000000000000000000000000000000000000000000000008152600401611c0c90615069565b60405180910390fd5b60005b82811015611c4a576000611c2a6130a6565b9050611c363382612b2f565b508080611c42906155c9565b915050611c18565b505050565b611c576128ac565b73ffffffffffffffffffffffffffffffffffffffff168273ffffffffffffffffffffffffffffffffffffffff161415611cc5576040517f08c379a0000000000000000000000000000000000000000000000000000000008152600401611cbc90614e49565b60405180910390fd5b8060056000611cd26128ac565b73ffffffffffffffffffffffffffffffffffffffff1673ffffffffffffffffffffffffffffffffffffffff16815260200190815260200160002060008473ffffffffffffffffffffffffffffffffffffffff1673ffffffffffffffffffffffffffffffffffffffff16815260200190815260200160002060006101000a81548160ff0219169083151502179055508173ffffffffffffffffffffffffffffffffffffffff16611d7f6128ac565b73ffffffffffffffffffffffffffffffffffffffff167f17307eab39ab6107e8899845ad3d59bd9653f200f220920489ca2b5937696c3183604051611dc49190614c8c565b60405180910390a35050565b611dd86128ac565b73ffffffffffffffffffffffffffffffffffffffff16611df661188f565b73ffffffffffffffffffffffffffffffffffffffff1614611e4c576040517f08c379a0000000000000000000000000000000000000000000000000000000008152600401611e4390614f89565b60405180910390fd5b60006014805490509050611e5e613ecf565b83816020019067ffffffffffffffff16908167ffffffffffffffff168152505060008211156120135760006014600184611e989190615456565b81548110611ea957611ea8615709565b5b90600052602060002090600402016040518060e00160405290816000820160009054906101000a900467ffffffffffffffff1667ffffffffffffffff1667ffffffffffffffff1681526020016000820160089054906101000a900467ffffffffffffffff1667ffffffffffffffff1667ffffffffffffffff1681526020016000820160109054906101000a900467ffffffffffffffff1667ffffffffffffffff1667ffffffffffffffff1681526020016000820160189054906101000a900467ffffffffffffffff1667ffffffffffffffff1667ffffffffffffffff1681526020016001820154815260200160028201548152602001600382015481525050905060018160000151611fbb919061538d565b826000019067ffffffffffffffff16908167ffffffffffffffff168152505080602001518160400151611fee919061538d565b826040019067ffffffffffffffff16908167ffffffffffffffff16815250505061206b565b6001816000019067ffffffffffffffff16908167ffffffffffffffff1681525050600b60009054906101000a900467ffffffffffffffff16816040019067ffffffffffffffff16908167ffffffffffffffff16815250505b42816060019067ffffffffffffffff16908167ffffffffffffffff16815250506012548160800181815250506013548160a0018181525050828160c0018181525050601481908060018154018082558091505060019003906000526020600020906004020160009091909190915060008201518160000160006101000a81548167ffffffffffffffff021916908367ffffffffffffffff16021790555060208201518160000160086101000a81548167ffffffffffffffff021916908367ffffffffffffffff16021790555060408201518160000160106101000a81548167ffffffffffffffff021916908367ffffffffffffffff16021790555060608201518160000160186101000a81548167ffffffffffffffff021916908367ffffffffffffffff1602179055506080820151816001015560a0820151816002015560c082015181600301555050600f60008154809291906121c8906155c9565b9190505550806040015167ffffffffffffffff16600c819055508367ffffffffffffffff16600d81905550806040015167ffffffffffffffff16600e819055507e65b13163112d661526659950aa38753518000cb4cc9298cfef76a7a9d6daeb816000015182602001518360400151846060015185608001518660a001518760c0015160405161225e9796959493929190615156565b60405180910390a150505050565b60006122766128ac565b73ffffffffffffffffffffffffffffffffffffffff1661229461188f565b73ffffffffffffffffffffffffffffffffffffffff16146122ea576040517f08c379a00000000000000000000000000000000000000000000000000000000081526004016122e190614f89565b60405180910390fd5b81601160006101000a81548167ffffffffffffffff021916908367ffffffffffffffff160217905550826012819055506000444260125460405160200161233393929190614b88565b6040516020818303038152906040528051906020012060001c9050806013819055507f71fe60a73d47ef8c29e4a80bfd3bb61b8ff6081ef98e1946e8e84e225bc1359c836012548360405161238a9392919061511f565b60405180910390a18091505092915050565b6123a4613ecf565b601460016014805490506123b89190615456565b815481106123c9576123c8615709565b5b90600052602060002090600402016040518060e00160405290816000820160009054906101000a900467ffffffffffffffff1667ffffffffffffffff1667ffffffffffffffff1681526020016000820160089054906101000a900467ffffffffffffffff1667ffffffffffffffff1667ffffffffffffffff1681526020016000820160109054906101000a900467ffffffffffffffff1667ffffffffffffffff1667ffffffffffffffff1681526020016000820160189054906101000a900467ffffffffffffffff1667ffffffffffffffff1667ffffffffffffffff1681526020016001820154815260200160028201548152602001600382015481525050905090565b6124de6124d86128ac565b83612b7f565b61251d576040517f08c379a000000000000000000000000000000000000000000000000000000000815260040161251490615029565b60405180910390fd5b61252984848484613157565b50505050565b606061253a826129f9565b612579576040517f08c379a000000000000000000000000000000000000000000000000000000000815260040161257090614fc9565b60405180910390fd5b60006125836131b3565b905060008151116125a357604051806020016040528060008152506125ce565b806125ad84613245565b6040516020016125be929190614b64565b6040516020818303038152906040525b915050919050565b6000601854905090565b6000601354905090565b6000600560008473ffffffffffffffffffffffffffffffffffffffff1673ffffffffffffffffffffffffffffffffffffffff16815260200190815260200160002060008373ffffffffffffffffffffffffffffffffffffffff1673ffffffffffffffffffffffffffffffffffffffff16815260200190815260200160002060009054906101000a900460ff16905092915050565b6060600061268b836116a0565b905060008167ffffffffffffffff8111156126a9576126a8615738565b5b6040519080825280602002602001820160405280156126d75781602001602082028036833780820191505090505b50905060005b82811015612721576126ef85826112a6565b82828151811061270257612701615709565b5b6020026020010181815250508080612719906155c9565b9150506126dd565b508092505050919050565b600047905090565b600e5481565b6127426128ac565b73ffffffffffffffffffffffffffffffffffffffff1661276061188f565b73ffffffffffffffffffffffffffffffffffffffff16146127b6576040517f08c379a00000000000000000000000000000000000000000000000000000000081526004016127ad90614f89565b60405180910390fd5b600073ffffffffffffffffffffffffffffffffffffffff168173ffffffffffffffffffffffffffffffffffffffff161415612826576040517f08c379a000000000000000000000000000000000000000000000000000000000815260040161281d90614de9565b60405180910390fd5b61282f81612fe0565b50565b60007f780e9d63000000000000000000000000000000000000000000000000000000007bffffffffffffffffffffffffffffffffffffffffffffffffffffffff1916827bffffffffffffffffffffffffffffffffffffffffffffffffffffffff191614806128a557506128a4826133a6565b5b9050919050565b600033905090565b6128bc61155b565b156128fc576040517f08c379a00000000000000000000000000000000000000000000000000000000081526004016128f390614e89565b60405180910390fd5b6001601560006101000a81548160ff0219169083151502179055507f62e78cea01bee320cd4e420270b5ea74000d11b0c9f74754ebdbfc544b05a2586129406128ac565b60405161294d9190614bc5565b60405180910390a1565b61295f61155b565b61299e576040517f08c379a000000000000000000000000000000000000000000000000000000000815260040161299590614ce9565b60405180910390fd5b6000601560006101000a81548160ff0219169083151502179055507f5db9ee0a495bf2e6ff9c91a7834c1ba4fdd244a5e8aa4e537bd38aeae4b073aa6129e26128ac565b6040516129ef9190614bc5565b60405180910390a1565b60008073ffffffffffffffffffffffffffffffffffffffff166002600084815260200190815260200160002060009054906101000a900473ffffffffffffffffffffffffffffffffffffffff1673ffffffffffffffffffffffffffffffffffffffff1614159050919050565b816004600083815260200190815260200160002060006101000a81548173ffffffffffffffffffffffffffffffffffffffff021916908373ffffffffffffffffffffffffffffffffffffffff160217905550808273ffffffffffffffffffffffffffffffffffffffff16612ad883611572565b73ffffffffffffffffffffffffffffffffffffffff167f8c5be1e5ebec7d5bd14f71427d1e84f3dd0314c0f7b2291e5b200ac8c7c3b92560405160405180910390a45050565b6000612b2a6016613488565b905090565b612b398282613496565b612b4360166134b4565b807f3fffaa5804a26fcec0d70b1d0fb0a2d0031df3a5f9c8af2127c2f4360e97b46383604051612b739190614bc5565b60405180910390a25050565b6000612b8a826129f9565b612bc9576040517f08c379a0000000000000000000000000000000000000000000000000000000008152600401612bc090614e69565b60405180910390fd5b6000612bd483611572565b90508073ffffffffffffffffffffffffffffffffffffffff168473ffffffffffffffffffffffffffffffffffffffff161480612c4357508373ffffffffffffffffffffffffffffffffffffffff16612c2b84610bb6565b73ffffffffffffffffffffffffffffffffffffffff16145b80612c545750612c5381856125ea565b5b91505092915050565b8273ffffffffffffffffffffffffffffffffffffffff16612c7d82611572565b73ffffffffffffffffffffffffffffffffffffffff1614612cd3576040517f08c379a0000000000000000000000000000000000000000000000000000000008152600401612cca90614fa9565b60405180910390fd5b600073ffffffffffffffffffffffffffffffffffffffff168273ffffffffffffffffffffffffffffffffffffffff161415612d43576040517f08c379a0000000000000000000000000000000000000000000000000000000008152600401612d3a90614e29565b60405180910390fd5b612d4e8383836134ca565b612d59600082612a65565b6001600360008573ffffffffffffffffffffffffffffffffffffffff1673ffffffffffffffffffffffffffffffffffffffff1681526020019081526020016000206000828254612da99190615456565b925050819055506001600360008473ffffffffffffffffffffffffffffffffffffffff1673ffffffffffffffffffffffffffffffffffffffff1681526020019081526020016000206000828254612e009190615337565b92505081905550816002600083815260200190815260200160002060006101000a81548173ffffffffffffffffffffffffffffffffffffffff021916908373ffffffffffffffffffffffffffffffffffffffff160217905550808273ffffffffffffffffffffffffffffffffffffffff168473ffffffffffffffffffffffffffffffffffffffff167fddf252ad1be2c89b69c2b068fc378daa952ba7f163c4a11628f55a4df523b3ef60405160405180910390a4505050565b60008183612ec791906153fc565b905092915050565b6000612eda82611572565b9050612ee8816000846134ca565b612ef3600083612a65565b6001600360008373ffffffffffffffffffffffffffffffffffffffff1673ffffffffffffffffffffffffffffffffffffffff1681526020019081526020016000206000828254612f439190615456565b925050819055506002600083815260200190815260200160002060006101000a81549073ffffffffffffffffffffffffffffffffffffffff021916905581600073ffffffffffffffffffffffffffffffffffffffff168273ffffffffffffffffffffffffffffffffffffffff167fddf252ad1be2c89b69c2b068fc378daa952ba7f163c4a11628f55a4df523b3ef60405160405180910390a45050565b6000600660009054906101000a900473ffffffffffffffffffffffffffffffffffffffff16905081600660006101000a81548173ffffffffffffffffffffffffffffffffffffffff021916908373ffffffffffffffffffffffffffffffffffffffff1602179055508173ffffffffffffffffffffffffffffffffffffffff168173ffffffffffffffffffffffffffffffffffffffff167f8be0079c531659141344cd1fd0a4f28419497f9722a3daafe3b4186f6b6457e060405160405180910390a35050565b600080600d546001436130b99190615456565b4060001c6130c7919061561c565b905060006130d4826134da565b905060008082146130e557816130e7565b825b9050600e54816130f79190615337565b935060006131126001600d5461310d9190615456565b6134da565b905061313b84600083146131265782613136565b6001600d546131359190615456565b5b613507565b6001600d5461314a9190615456565b600d819055505050505090565b613162848484612c5d565b61316e84848484613534565b6131ad576040517f08c379a00000000000000000000000000000000000000000000000000000000081526004016131a490614da9565b60405180910390fd5b50505050565b6060601a80546131c290615566565b80601f01602080910402602001604051908101604052809291908181526020018280546131ee90615566565b801561323b5780601f106132105761010080835404028352916020019161323b565b820191906000526020600020905b81548152906001019060200180831161321e57829003601f168201915b5050505050905090565b6060600082141561328d576040518060400160405280600181526020017f300000000000000000000000000000000000000000000000000000000000000081525090506133a1565b600082905060005b600082146132bf5780806132a8906155c9565b915050600a826132b891906153cb565b9150613295565b60008167ffffffffffffffff8111156132db576132da615738565b5b6040519080825280601f01601f19166020018201604052801561330d5781602001600182028036833780820191505090505b5090505b6000851461339a576001826133269190615456565b9150600a85613335919061561c565b60306133419190615337565b60f81b81838151811061335757613356615709565b5b60200101907effffffffffffffffffffffffffffffffffffffffffffffffffffffffffffff1916908160001a905350600a8561339391906153cb565b9450613311565b8093505050505b919050565b60007f80ac58cd000000000000000000000000000000000000000000000000000000007bffffffffffffffffffffffffffffffffffffffffffffffffffffffff1916827bffffffffffffffffffffffffffffffffffffffffffffffffffffffff1916148061347157507f5b5e139f000000000000000000000000000000000000000000000000000000007bffffffffffffffffffffffffffffffffffffffffffffffffffffffff1916827bffffffffffffffffffffffffffffffffffffffffffffffffffffffff1916145b806134815750613480826136cb565b5b9050919050565b600081600001549050919050565b6134b0828260405180602001604052806000815250613735565b5050565b6001816000016000828254019250508190555050565b6134d5838383613790565b505050565b6000806134e9600f548461382a565b90506010600082815260200190815260200160002054915050919050565b6000613515600f548461382a565b9050816010600083815260200190815260200160002081905550505050565b60006135558473ffffffffffffffffffffffffffffffffffffffff16613849565b156136be578373ffffffffffffffffffffffffffffffffffffffff1663150b7a0261357e6128ac565b8786866040518563ffffffff1660e01b81526004016135a09493929190614be0565b602060405180830381600087803b1580156135ba57600080fd5b505af19250505080156135eb57506040513d601f19601f820116820180604052508101906135e8919061433b565b60015b61366e573d806000811461361b576040519150601f19603f3d011682016040523d82523d6000602084013e613620565b606091505b50600081511415613666576040517f08c379a000000000000000000000000000000000000000000000000000000000815260040161365d90614da9565b60405180910390fd5b805181602001fd5b63150b7a0260e01b7bffffffffffffffffffffffffffffffffffffffffffffffffffffffff1916817bffffffffffffffffffffffffffffffffffffffffffffffffffffffff1916149150506136c3565b600190505b949350505050565b60007f01ffc9a7000000000000000000000000000000000000000000000000000000007bffffffffffffffffffffffffffffffffffffffffffffffffffffffff1916827bffffffffffffffffffffffffffffffffffffffffffffffffffffffff1916149050919050565b61373f838361385c565b61374c6000848484613534565b61378b576040517f08c379a000000000000000000000000000000000000000000000000000000000815260040161378290614da9565b60405180910390fd5b505050565b61379b838383613a2a565b6137a361188f565b73ffffffffffffffffffffffffffffffffffffffff166137c16128ac565b73ffffffffffffffffffffffffffffffffffffffff1614613825576137e461155b565b15613824576040517f08c379a000000000000000000000000000000000000000000000000000000000815260040161381b90614cc9565b60405180910390fd5b5b505050565b60008082608085901b61383d9190615337565b90508091505092915050565b600080823b905060008111915050919050565b600073ffffffffffffffffffffffffffffffffffffffff168273ffffffffffffffffffffffffffffffffffffffff1614156138cc576040517f08c379a00000000000000000000000000000000000000000000000000000000081526004016138c390614f49565b60405180910390fd5b6138d5816129f9565b15613915576040517f08c379a000000000000000000000000000000000000000000000000000000000815260040161390c90614e09565b60405180910390fd5b613921600083836134ca565b6001600360008473ffffffffffffffffffffffffffffffffffffffff1673ffffffffffffffffffffffffffffffffffffffff16815260200190815260200160002060008282546139719190615337565b92505081905550816002600083815260200190815260200160002060006101000a81548173ffffffffffffffffffffffffffffffffffffffff021916908373ffffffffffffffffffffffffffffffffffffffff160217905550808273ffffffffffffffffffffffffffffffffffffffff16600073ffffffffffffffffffffffffffffffffffffffff167fddf252ad1be2c89b69c2b068fc378daa952ba7f163c4a11628f55a4df523b3ef60405160405180910390a45050565b613a35838383613b3e565b600073ffffffffffffffffffffffffffffffffffffffff168373ffffffffffffffffffffffffffffffffffffffff161415613a7857613a7381613b43565b613ab7565b8173ffffffffffffffffffffffffffffffffffffffff168373ffffffffffffffffffffffffffffffffffffffff1614613ab657613ab58382613b8c565b5b5b600073ffffffffffffffffffffffffffffffffffffffff168273ffffffffffffffffffffffffffffffffffffffff161415613afa57613af581613cf9565b613b39565b8273ffffffffffffffffffffffffffffffffffffffff168273ffffffffffffffffffffffffffffffffffffffff1614613b3857613b378282613dca565b5b5b505050565b505050565b600980549050600a600083815260200190815260200160002081905550600981908060018154018082558091505060019003906000526020600020016000909190919091505550565b60006001613b99846116a0565b613ba39190615456565b9050600060086000848152602001908152602001600020549050818114613c88576000600760008673ffffffffffffffffffffffffffffffffffffffff1673ffffffffffffffffffffffffffffffffffffffff168152602001908152602001600020600084815260200190815260200160002054905080600760008773ffffffffffffffffffffffffffffffffffffffff1673ffffffffffffffffffffffffffffffffffffffff168152602001908152602001600020600084815260200190815260200160002081905550816008600083815260200190815260200160002081905550505b6008600084815260200190815260200160002060009055600760008573ffffffffffffffffffffffffffffffffffffffff1673ffffffffffffffffffffffffffffffffffffffff16815260200190815260200160002060008381526020019081526020016000206000905550505050565b60006001600980549050613d0d9190615456565b90506000600a6000848152602001908152602001600020549050600060098381548110613d3d57613d3c615709565b5b906000526020600020015490508060098381548110613d5f57613d5e615709565b5b906000526020600020018190555081600a600083815260200190815260200160002081905550600a6000858152602001908152602001600020600090556009805480613dae57613dad6156da565b5b6001900381819060005260206000200160009055905550505050565b6000613dd5836116a0565b905081600760008573ffffffffffffffffffffffffffffffffffffffff1673ffffffffffffffffffffffffffffffffffffffff168152602001908152602001600020600083815260200190815260200160002081905550806008600084815260200190815260200160002081905550505050565b828054613e5590615566565b90600052602060002090601f016020900481019282613e775760008555613ebe565b82601f10613e9057805160ff1916838001178555613ebe565b82800160010185558215613ebe579182015b82811115613ebd578251825591602001919060010190613ea2565b5b509050613ecb9190613f34565b5090565b6040518060e00160405280600067ffffffffffffffff168152602001600067ffffffffffffffff168152602001600067ffffffffffffffff168152602001600067ffffffffffffffff1681526020016000815260200160008152602001600081525090565b5b80821115613f4d576000816000905550600101613f35565b5090565b6000613f64613f5f84615259565b615234565b905082815260208101848484011115613f8057613f7f61576c565b5b613f8b848285615524565b509392505050565b6000613fa6613fa18461528a565b615234565b905082815260208101848484011115613fc257613fc161576c565b5b613fcd848285615524565b509392505050565b600081359050613fe481615f35565b92915050565b600081359050613ff981615f4c565b92915050565b60008135905061400e81615f63565b92915050565b60008151905061402381615f63565b92915050565b600082601f83011261403e5761403d615767565b5b813561404e848260208601613f51565b91505092915050565b600082601f83011261406c5761406b615767565b5b813561407c848260208601613f93565b91505092915050565b60008135905061409481615f7a565b92915050565b6000813590506140a981615f91565b92915050565b6000602082840312156140c5576140c4615776565b5b60006140d384828501613fd5565b91505092915050565b600080604083850312156140f3576140f2615776565b5b600061410185828601613fd5565b925050602061411285828601613fd5565b9150509250929050565b60008060006060848603121561413557614134615776565b5b600061414386828701613fd5565b935050602061415486828701613fd5565b925050604061416586828701614085565b9150509250925092565b6000806000806080858703121561418957614188615776565b5b600061419787828801613fd5565b94505060206141a887828801613fd5565b93505060406141b987828801614085565b925050606085013567ffffffffffffffff8111156141da576141d9615771565b5b6141e687828801614029565b91505092959194509250565b6000806040838503121561420957614208615776565b5b600061421785828601613fd5565b925050602061422885828601613fea565b9150509250929050565b60008060006060848603121561424b5761424a615776565b5b600061425986828701613fd5565b935050602084013567ffffffffffffffff81111561427a57614279615771565b5b61428686828701614057565b925050604061429786828701614085565b9150509250925092565b600080604083850312156142b8576142b7615776565b5b60006142c685828601613fd5565b92505060206142d785828601614085565b9150509250929050565b6000602082840312156142f7576142f6615776565b5b600061430584828501613fea565b91505092915050565b60006020828403121561432457614323615776565b5b600061433284828501613fff565b91505092915050565b60006020828403121561435157614350615776565b5b600061435f84828501614014565b91505092915050565b60006020828403121561437e5761437d615776565b5b600082013567ffffffffffffffff81111561439c5761439b615771565b5b6143a884828501614057565b91505092915050565b6000602082840312156143c7576143c6615776565b5b60006143d584828501614085565b91505092915050565b600080604083850312156143f5576143f4615776565b5b600061440385828601614085565b925050602083013567ffffffffffffffff81111561442457614423615771565b5b61443085828601614057565b9150509250929050565b6000806040838503121561445157614450615776565b5b600061445f85828601614085565b92505060206144708582860161409a565b9150509250929050565b6000806040838503121561449157614490615776565b5b600061449f8582860161409a565b92505060206144b085828601614085565b9150509250929050565b60006144c68383614b02565b60208301905092915050565b6144db8161548a565b82525050565b60006144ec826152cb565b6144f681856152f9565b9350614501836152bb565b8060005b8381101561453257815161451988826144ba565b9750614524836152ec565b925050600181019050614505565b5085935050505092915050565b6145488161549c565b82525050565b6000614559826152d6565b614563818561530a565b9350614573818560208601615533565b61457c8161577b565b840191505092915050565b6000614592826152e1565b61459c818561531b565b93506145ac818560208601615533565b6145b58161577b565b840191505092915050565b60006145cb826152e1565b6145d5818561532c565b93506145e5818560208601615533565b80840191505092915050565b60006145fe602b8361531b565b91506146098261578c565b604082019050919050565b600061462160148361531b565b915061462c826157db565b602082019050919050565b600061464460068361531b565b915061464f82615804565b602082019050919050565b600061466760028361531b565b91506146728261582d565b602082019050919050565b600061468a60128361531b565b915061469582615856565b602082019050919050565b60006146ad60028361531b565b91506146b88261587f565b602082019050919050565b60006146d0602b8361531b565b91506146db826158a8565b604082019050919050565b60006146f360328361531b565b91506146fe826158f7565b604082019050919050565b600061471660128361531b565b915061472182615946565b602082019050919050565b600061473960268361531b565b91506147448261596f565b604082019050919050565b600061475c601c8361531b565b9150614767826159be565b602082019050919050565b600061477f60248361531b565b915061478a826159e7565b604082019050919050565b60006147a260198361531b565b91506147ad82615a36565b602082019050919050565b60006147c5602c8361531b565b91506147d082615a5f565b604082019050919050565b60006147e860108361531b565b91506147f382615aae565b602082019050919050565b600061480b60128361531b565b915061481682615ad7565b602082019050919050565b600061482e60388361531b565b915061483982615b00565b604082019050919050565b6000614851602a8361531b565b915061485c82615b4f565b604082019050919050565b600061487460298361531b565b915061487f82615b9e565b604082019050919050565b600061489760128361531b565b91506148a282615bed565b602082019050919050565b60006148ba60208361531b565b91506148c582615c16565b602082019050919050565b60006148dd602c8361531b565b91506148e882615c3f565b604082019050919050565b600061490060208361531b565b915061490b82615c8e565b602082019050919050565b600061492360298361531b565b915061492e82615cb7565b604082019050919050565b6000614946602f8361531b565b915061495182615d06565b604082019050919050565b6000614969600a8361531b565b915061497482615d55565b602082019050919050565b600061498c60218361531b565b915061499782615d7e565b604082019050919050565b60006149af60318361531b565b91506149ba82615dcd565b604082019050919050565b60006149d2602c8361531b565b91506149dd82615e1c565b604082019050919050565b60006149f560178361531b565b9150614a0082615e6b565b602082019050919050565b6000614a1860308361531b565b9150614a2382615e94565b604082019050919050565b6000614a3b60028361531b565b9150614a4682615ee3565b602082019050919050565b6000614a5e60158361531b565b9150614a6982615f0c565b602082019050919050565b60e082016000820151614a8a6000850182614b46565b506020820151614a9d6020850182614b46565b506040820151614ab06040850182614b46565b506060820151614ac36060850182614b46565b506080820151614ad66080850182614b02565b5060a0820151614ae960a0850182614b02565b5060c0820151614afc60c0850182614b02565b50505050565b614b0b816154f4565b82525050565b614b1a816154f4565b82525050565b614b31614b2c826154f4565b615612565b82525050565b614b4081615512565b82525050565b614b4f816154fe565b82525050565b614b5e816154fe565b82525050565b6000614b7082856145c0565b9150614b7c82846145c0565b91508190509392505050565b6000614b948286614b20565b602082019150614ba48285614b20565b602082019150614bb48284614b20565b602082019150819050949350505050565b6000602082019050614bda60008301846144d2565b92915050565b6000608082019050614bf560008301876144d2565b614c0260208301866144d2565b614c0f6040830185614b11565b8181036060830152614c21818461454e565b905095945050505050565b6000606082019050614c4160008301866144d2565b8181036020830152614c538185614587565b9050614c626040830184614b11565b949350505050565b60006020820190508181036000830152614c8481846144e1565b905092915050565b6000602082019050614ca1600083018461453f565b92915050565b60006020820190508181036000830152614cc18184614587565b905092915050565b60006020820190508181036000830152614ce2816145f1565b9050919050565b60006020820190508181036000830152614d0281614614565b9050919050565b60006020820190508181036000830152614d2281614637565b9050919050565b60006020820190508181036000830152614d428161465a565b9050919050565b60006020820190508181036000830152614d628161467d565b9050919050565b60006020820190508181036000830152614d82816146a0565b9050919050565b60006020820190508181036000830152614da2816146c3565b9050919050565b60006020820190508181036000830152614dc2816146e6565b9050919050565b60006020820190508181036000830152614de281614709565b9050919050565b60006020820190508181036000830152614e028161472c565b9050919050565b60006020820190508181036000830152614e228161474f565b9050919050565b60006020820190508181036000830152614e4281614772565b9050919050565b60006020820190508181036000830152614e6281614795565b9050919050565b60006020820190508181036000830152614e82816147b8565b9050919050565b60006020820190508181036000830152614ea2816147db565b9050919050565b60006020820190508181036000830152614ec2816147fe565b9050919050565b60006020820190508181036000830152614ee281614821565b9050919050565b60006020820190508181036000830152614f0281614844565b9050919050565b60006020820190508181036000830152614f2281614867565b9050919050565b60006020820190508181036000830152614f428161488a565b9050919050565b60006020820190508181036000830152614f62816148ad565b9050919050565b60006020820190508181036000830152614f82816148d0565b9050919050565b60006020820190508181036000830152614fa2816148f3565b9050919050565b60006020820190508181036000830152614fc281614916565b9050919050565b60006020820190508181036000830152614fe281614939565b9050919050565b600060208201905081810360008301526150028161495c565b9050919050565b600060208201905081810360008301526150228161497f565b9050919050565b60006020820190508181036000830152615042816149a2565b9050919050565b60006020820190508181036000830152615062816149c5565b9050919050565b60006020820190508181036000830152615082816149e8565b9050919050565b600060208201905081810360008301526150a281614a0b565b9050919050565b600060208201905081810360008301526150c281614a2e565b9050919050565b600060208201905081810360008301526150e281614a51565b9050919050565b600060e0820190506150fe6000830184614a74565b92915050565b60006020820190506151196000830184614b11565b92915050565b60006060820190506151346000830186614b37565b6151416020830185614b11565b61514e6040830184614b11565b949350505050565b600060e08201905061516b600083018a614b37565b6151786020830189614b37565b6151856040830188614b37565b6151926060830187614b55565b61519f6080830186614b11565b6151ac60a0830185614b11565b6151b960c0830184614b11565b98975050505050505050565b600060e0820190506151da600083018a614b55565b6151e76020830189614b55565b6151f46040830188614b55565b6152016060830187614b55565b61520e6080830186614b11565b61521b60a0830185614b11565b61522860c0830184614b11565b98975050505050505050565b600061523e61524f565b905061524a8282615598565b919050565b6000604051905090565b600067ffffffffffffffff82111561527457615273615738565b5b61527d8261577b565b9050602081019050919050565b600067ffffffffffffffff8211156152a5576152a4615738565b5b6152ae8261577b565b9050602081019050919050565b6000819050602082019050919050565b600081519050919050565b600081519050919050565b600081519050919050565b6000602082019050919050565b600082825260208201905092915050565b600082825260208201905092915050565b600082825260208201905092915050565b600081905092915050565b6000615342826154f4565b915061534d836154f4565b9250827fffffffffffffffffffffffffffffffffffffffffffffffffffffffffffffffff038211156153825761538161564d565b5b828201905092915050565b6000615398826154fe565b91506153a3836154fe565b92508267ffffffffffffffff038211156153c0576153bf61564d565b5b828201905092915050565b60006153d6826154f4565b91506153e1836154f4565b9250826153f1576153f061567c565b5b828204905092915050565b6000615407826154f4565b9150615412836154f4565b9250817fffffffffffffffffffffffffffffffffffffffffffffffffffffffffffffffff048311821515161561544b5761544a61564d565b5b828202905092915050565b6000615461826154f4565b915061546c836154f4565b92508282101561547f5761547e61564d565b5b828203905092915050565b6000615495826154d4565b9050919050565b60008115159050919050565b60007fffffffff0000000000000000000000000000000000000000000000000000000082169050919050565b600073ffffffffffffffffffffffffffffffffffffffff82169050919050565b6000819050919050565b600067ffffffffffffffff82169050919050565b600061551d826154fe565b9050919050565b82818337600083830152505050565b60005b83811015615551578082015181840152602081019050615536565b83811115615560576000848401525b50505050565b6000600282049050600182168061557e57607f821691505b60208210811415615592576155916156ab565b5b50919050565b6155a18261577b565b810181811067ffffffffffffffff821117156155c0576155bf615738565b5b80604052505050565b60006155d4826154f4565b91507fffffffffffffffffffffffffffffffffffffffffffffffffffffffffffffffff8214156156075761560661564d565b5b600182019050919050565b6000819050919050565b6000615627826154f4565b9150615632836154f4565b9250826156425761564161567c565b5b828206905092915050565b7f4e487b7100000000000000000000000000000000000000000000000000000000600052601160045260246000fd5b7f4e487b7100000000000000000000000000000000000000000000000000000000600052601260045260246000fd5b7f4e487b7100000000000000000000000000000000000000000000000000000000600052602260045260246000fd5b7f4e487b7100000000000000000000000000000000000000000000000000000000600052603160045260246000fd5b7f4e487b7100000000000000000000000000000000000000000000000000000000600052603260045260246000fd5b7f4e487b7100000000000000000000000000000000000000000000000000000000600052604160045260246000fd5b600080fd5b600080fd5b600080fd5b600080fd5b6000601f19601f8301169050919050565b7f4552433732315061757361626c653a20746f6b656e207472616e73666572207760008201527f68696c6520706175736564000000000000000000000000000000000000000000602082015250565b7f5061757361626c653a206e6f7420706175736564000000000000000000000000600082015250565b7f5061757365640000000000000000000000000000000000000000000000000000600082015250565b7f6531000000000000000000000000000000000000000000000000000000000000600082015250565b7f6e6f74206f776e65722f617070726f7665640000000000000000000000000000600082015250565b7f6533000000000000000000000000000000000000000000000000000000000000600082015250565b7f455243373231456e756d657261626c653a206f776e657220696e646578206f7560008201527f74206f6620626f756e6473000000000000000000000000000000000000000000602082015250565b7f4552433732313a207472616e7366657220746f206e6f6e20455243373231526560008201527f63656976657220696d706c656d656e7465720000000000000000000000000000602082015250565b7f45786365656473206d696e74206c696d69740000000000000000000000000000600082015250565b7f4f776e61626c653a206e6577206f776e657220697320746865207a65726f206160008201527f6464726573730000000000000000000000000000000000000000000000000000602082015250565b7f4552433732313a20746f6b656e20616c7265616479206d696e74656400000000600082015250565b7f4552433732313a207472616e7366657220746f20746865207a65726f2061646460008201527f7265737300000000000000000000000000000000000000000000000000000000602082015250565b7f4552433732313a20617070726f766520746f2063616c6c657200000000000000600082015250565b7f4552433732313a206f70657261746f7220717565727920666f72206e6f6e657860008201527f697374656e7420746f6b656e0000000000000000000000000000000000000000602082015250565b7f5061757361626c653a2070617573656400000000000000000000000000000000600082015250565b7f42617365555249206973206c6f636b6564210000000000000000000000000000600082015250565b7f4552433732313a20617070726f76652063616c6c6572206973206e6f74206f7760008201527f6e6572206e6f7220617070726f76656420666f7220616c6c0000000000000000602082015250565b7f4552433732313a2062616c616e636520717565727920666f7220746865207a6560008201527f726f206164647265737300000000000000000000000000000000000000000000602082015250565b7f4552433732313a206f776e657220717565727920666f72206e6f6e657869737460008201527f656e7420746f6b656e0000000000000000000000000000000000000000000000602082015250565b7f45786365656473206d617820737570706c790000000000000000000000000000600082015250565b7f4552433732313a206d696e7420746f20746865207a65726f2061646472657373600082015250565b7f4552433732313a20617070726f76656420717565727920666f72206e6f6e657860008201527f697374656e7420746f6b656e0000000000000000000000000000000000000000602082015250565b7f4f776e61626c653a2063616c6c6572206973206e6f7420746865206f776e6572600082015250565b7f4552433732313a207472616e73666572206f6620746f6b656e2074686174206960008201527f73206e6f74206f776e0000000000000000000000000000000000000000000000602082015250565b7f4552433732314d657461646174613a2055524920717565727920666f72206e6f60008201527f6e6578697374656e7420746f6b656e0000000000000000000000000000000000602082015250565b7f53616c6520656e64656400000000000000000000000000000000000000000000600082015250565b7f4552433732313a20617070726f76616c20746f2063757272656e74206f776e6560008201527f7200000000000000000000000000000000000000000000000000000000000000602082015250565b7f4552433732313a207472616e736665722063616c6c6572206973206e6f74206f60008201527f776e6572206e6f7220617070726f766564000000000000000000000000000000602082015250565b7f455243373231456e756d657261626c653a20676c6f62616c20696e646578206f60008201527f7574206f6620626f756e64730000000000000000000000000000000000000000602082015250565b7f56616c75652062656c6f772073616c6573207072696365000000000000000000600082015250565b7f4552433732314275726e61626c653a2063616c6c6572206973206e6f74206f7760008201527f6e6572206e6f7220617070726f76656400000000000000000000000000000000602082015250565b7f6532000000000000000000000000000000000000000000000000000000000000600082015250565b7f506c6561736520627579206f6e204f70656e7365610000000000000000000000600082015250565b615f3e8161548a565b8114615f4957600080fd5b50565b615f558161549c565b8114615f6057600080fd5b50565b615f6c816154a8565b8114615f7757600080fd5b50565b615f83816154f4565b8114615f8e57600080fd5b50565b615f9a816154fe565b8114615fa557600080fd5b5056fea2646970667358221220f8a1fbb75d6492d567104cd9de69536a1f7a60fc4ca332bf16613e39258e9f7064736f6c63430008070033",
  "immutableReferences": {},
  "source": "// SPDX-License-Identifier: Apache-2.0\r\npragma solidity ^0.8.7;\r\nimport \"@openzeppelin/contracts/token/ERC721/ERC721.sol\";\r\nimport \"@openzeppelin/contracts/token/ERC721/extensions/ERC721Enumerable.sol\";\r\nimport \"@openzeppelin/contracts/token/ERC721/extensions/ERC721Burnable.sol\";\r\nimport \"@openzeppelin/contracts/access/Ownable.sol\";\r\nimport \"@openzeppelin/contracts/utils/math/SafeMath.sol\";\r\nimport \"@openzeppelin/contracts/utils/Counters.sol\";\r\nimport \"./ERC721Pausable.sol\";\r\nimport \"./GenerationalRandomMintable.sol\";\r\nimport \"./SendableWithMessage.sol\";\r\n\r\ncontract EmbraceCards is Ownable, ERC721Enumerable, GenerationalRandomMintable, ERC721Burnable, ERC721Pausable {\r\n\r\n    using SafeMath for uint256;\r\n    using Counters for Counters.Counter;\r\n    Counters.Counter private _tokenIdTracker;\r\n\r\n    uint256 private nftPrice;\r\n    uint256 private nftMaxSupply = 5000;\r\n    uint256 private nftMaxMint = 20;\r\n    string private baseTokenURI;\r\n    bool private lockURI = false;\r\n\r\n    uint256 public promotionalMintIndex = 10001;\r\n\r\n    event MintEvent(address to, uint256 indexed id);\r\n    event ChangePriceEvent(uint256 price);\r\n    event ChangeBaseUriEvent(string baseUri);\r\n\r\n\r\n    constructor (string memory baseURI, /*uint256 maxItemSupply uint256 maxMintCount,*/ uint256 initialPrice) ERC721(\"The Hug\", \"XO\") {\r\n        setBaseURI(baseURI);\r\n        nftPrice = initialPrice;\r\n//        nftMaxSupply = maxItemSupply;\r\n//        nftMaxMint = maxMintCount;\r\n    }\r\n\r\n    modifier saleIsOpen {\r\n        require(_totalSupply() <= nftMaxSupply, \"Sale ended\");\r\n        if (_msgSender() != owner()) {\r\n            require(!paused(), \"Paused\");\r\n        }\r\n        _;\r\n    }\r\n\r\n    function mint(uint256 _count) public payable saleIsOpen {\r\n        uint256 total = _totalSupply();\r\n        require(total + _count <= nftMaxSupply, \"Exceeds max supply\");\r\n        require(total <= nftMaxSupply, \"Please buy on Opensea\");\r\n        require(_count <= nftMaxMint, \"Exceeds mint limit\");\r\n        require(msg.value >= price(_count), \"Value below sales price\");\r\n        for (uint256 i = 0; i < _count; i++) {\r\n            uint256 randomAvailableIndex = drawIndex();\r\n            _mintAnElement(msg.sender, randomAvailableIndex);\r\n        }\r\n    }\r\n\r\n    function promotionalMint(uint256 _count) public payable saleIsOpen {\r\n        uint256 total = _totalSupply();\r\n        require(total + _count <= nftMaxSupply, \"e1\");\r\n        require(total <= nftMaxSupply, \"e2\");\r\n        // promotional max index is 1K\r\n        require(promotionalMintIndex - 1 + _count <= 11000, \"e3\");\r\n        for (uint256 i = 0; i < _count; i++) {\r\n            _mintAnElement(msg.sender, promotionalMintIndex + i);\r\n        }\r\n        promotionalMintIndex += _count;\r\n    }\r\n\r\n    function _mintAnElement(address _to, uint256 mintId) private {\r\n        _safeMint(_to, mintId);\r\n        _tokenIdTracker.increment();\r\n        emit MintEvent(_to, mintId);\r\n    }\r\n\r\n    function setBaseURI(string memory baseURI) public onlyOwner {\r\n        require(!lockURI, \"BaseURI is locked!\");\r\n        baseTokenURI = baseURI;\r\n        emit ChangeBaseUriEvent(baseURI);\r\n    }\r\n\r\n    function CAUTION_PermanentlyLockBaseURI(uint256 password) public onlyOwner {\r\n        if (password == 12345) {\r\n            lockURI = true;\r\n        }\r\n    }\r\n\r\n    function _baseURI() internal view virtual override returns (string memory) {\r\n        return baseTokenURI;\r\n    }\r\n\r\n    function price(uint256 _count) public view returns (uint256) {\r\n        return nftPrice.mul(_count);\r\n    }\r\n\r\n    function setPrice(uint256 newPrice) public onlyOwner {\r\n        nftPrice = newPrice;\r\n        emit ChangePriceEvent(newPrice);\r\n    }\r\n\r\n    function _totalSupply() internal view returns (uint) {\r\n        return _tokenIdTracker.current();\r\n    }\r\n\r\n    function maxMint() public view returns (uint256) {\r\n        return nftMaxMint;\r\n    }\r\n\r\n    function maxSupply() public view returns (uint256) {\r\n        return nftMaxSupply;\r\n    }\r\n\r\n    function raised() public view returns (uint256) {\r\n        return address(this).balance;\r\n    }\r\n\r\n    function getTokenIdsOfWallet(address _owner) external view returns (uint256[] memory) {\r\n        uint256 tokenCount = balanceOf(_owner);\r\n        uint256[] memory tokensId = new uint256[](tokenCount);\r\n        for (uint256 i = 0; i < tokenCount; i++) {\r\n            tokensId[i] = tokenOfOwnerByIndex(_owner, i);\r\n        }\r\n        return tokensId;\r\n    }\r\n\r\n    function pause(bool value) public onlyOwner {\r\n        if (value == true) {\r\n            _pause();\r\n            return;\r\n        }\r\n        _unpause();\r\n    }\r\n\r\n    function _beforeTokenTransfer(\r\n        address from,\r\n        address to,\r\n        uint256 tokenId\r\n    ) internal virtual override(ERC721, ERC721Enumerable, ERC721Pausable) {\r\n        super._beforeTokenTransfer(from, to, tokenId);\r\n    }\r\n\r\n    function supportsInterface(bytes4 interfaceId) public view virtual override(ERC721, ERC721Enumerable) returns (bool) {\r\n        return super.supportsInterface(interfaceId);\r\n    }\r\n\r\n    // SENDABLE CARD\r\n\r\n    mapping(uint256 => string) public messages;\r\n    event SendCardEvent(address to, string message, uint256 tokenId);\r\n\r\n    function sendWithMessage(address to, string memory message, uint256 tokenId) public {\r\n        require(_isApprovedOrOwner(_msgSender(), tokenId), \"not owner/approved\");\r\n        safeTransferFrom(msg.sender, to, tokenId);\r\n        emit SendCardEvent(to, message, tokenId);\r\n    }\r\n\r\n    function sendWithOnChainMessage(address to, string memory message, uint256 tokenId) public {\r\n        require(_isApprovedOrOwner(_msgSender(), tokenId), \"not owner/approved\");\r\n        safeTransferFrom(msg.sender, to, tokenId);\r\n        messages[tokenId] = message;\r\n        emit SendCardEvent(to, message, tokenId);\r\n    }\r\n\r\n    function setMessage(uint256 tokenId, string memory message) public {\r\n        require(_isApprovedOrOwner(_msgSender(), tokenId), \"not owner/approved\");\r\n        messages[tokenId] = message;\r\n    }\r\n\r\n}\r\n",
  "sourcePath": "C:\\Users\\16172\\code\\hardhat-tutorial\\contracts\\EmbraceCards.sol",
  "compiler": {
    "name": "solc",
    "version": "0.8.7+commit.e28d00a7.Emscripten.clang"
  },
  "schemaVersion": "3.4.3",
  "updatedAt": "2021-11-02T20:07:24.451Z",
  "devdoc": {
    "kind": "dev",
    "methods": {
      "approve(address,uint256)": {
        "details": "See {IERC721-approve}."
      },
      "balanceOf(address)": {
        "details": "See {IERC721-balanceOf}."
      },
      "burn(uint256)": {
        "details": "Burns `tokenId`. See {ERC721-_burn}. Requirements: - The caller must own `tokenId` or be an approved operator."
      },
      "getApproved(uint256)": {
        "details": "See {IERC721-getApproved}."
      },
      "isApprovedForAll(address,address)": {
        "details": "See {IERC721-isApprovedForAll}."
      },
      "name()": {
        "details": "See {IERC721Metadata-name}."
      },
      "owner()": {
        "details": "Returns the address of the current owner."
      },
      "ownerOf(uint256)": {
        "details": "See {IERC721-ownerOf}."
      },
      "paused()": {
        "details": "Returns true if the contract is paused, and false otherwise."
      },
      "renounceOwnership()": {
        "details": "Leaves the contract without owner. It will not be possible to call `onlyOwner` functions anymore. Can only be called by the current owner. NOTE: Renouncing ownership will leave the contract without an owner, thereby removing any functionality that is only available to the owner."
      },
      "safeTransferFrom(address,address,uint256)": {
        "details": "See {IERC721-safeTransferFrom}."
      },
      "safeTransferFrom(address,address,uint256,bytes)": {
        "details": "See {IERC721-safeTransferFrom}."
      },
      "setApprovalForAll(address,bool)": {
        "details": "See {IERC721-setApprovalForAll}."
      },
      "symbol()": {
        "details": "See {IERC721Metadata-symbol}."
      },
      "tokenByIndex(uint256)": {
        "details": "See {IERC721Enumerable-tokenByIndex}."
      },
      "tokenOfOwnerByIndex(address,uint256)": {
        "details": "See {IERC721Enumerable-tokenOfOwnerByIndex}."
      },
      "tokenURI(uint256)": {
        "details": "See {IERC721Metadata-tokenURI}."
      },
      "totalSupply()": {
        "details": "See {IERC721Enumerable-totalSupply}."
      },
      "transferFrom(address,address,uint256)": {
        "details": "See {IERC721-transferFrom}."
      },
      "transferOwnership(address)": {
        "details": "Transfers ownership of the contract to a new account (`newOwner`). Can only be called by the current owner."
      }
    },
    "version": 1
  },
  "userdoc": {
    "kind": "user",
    "methods": {},
    "version": 1
  }
}