{
  "contractName": "GenerationalGenerativeRandomDraw",
  "abi": [
    {
      "anonymous": false,
      "inputs": [
        {
          "indexed": false,
          "internalType": "uint256",
          "name": "index",
          "type": "uint256"
        },
        {
          "indexed": false,
          "internalType": "uint256",
          "name": "numItems",
          "type": "uint256"
        },
        {
          "indexed": false,
          "internalType": "uint256",
          "name": "startIndex",
          "type": "uint256"
        },
        {
          "indexed": false,
          "internalType": "uint256",
          "name": "timestamp",
          "type": "uint256"
        },
        {
          "indexed": false,
          "internalType": "uint256",
          "name": "generatorHash",
          "type": "uint256"
        },
        {
          "indexed": false,
          "internalType": "uint256",
          "name": "generatorSeed",
          "type": "uint256"
        },
        {
          "indexed": false,
          "internalType": "uint256",
          "name": "provenanceHash",
          "type": "uint256"
        }
      ],
      "name": "NewGenerationEvent",
      "type": "event"
    },
    {
      "anonymous": false,
      "inputs": [
        {
          "indexed": true,
          "internalType": "address",
          "name": "previousOwner",
          "type": "address"
        },
        {
          "indexed": true,
          "internalType": "address",
          "name": "newOwner",
          "type": "address"
        }
      ],
      "name": "OwnershipTransferred",
      "type": "event"
    },
    {
      "anonymous": false,
      "inputs": [
        {
          "indexed": false,
          "internalType": "uint256",
          "name": "preNummItems",
          "type": "uint256"
        },
        {
          "indexed": false,
          "internalType": "uint256",
          "name": "preGeneratorHash",
          "type": "uint256"
        },
        {
          "indexed": false,
          "internalType": "uint256",
          "name": "preGeneratorSeed",
          "type": "uint256"
        }
      ],
      "name": "PreGenerationEvent",
      "type": "event"
    },
    {
      "anonymous": false,
      "inputs": [
        {
          "indexed": false,
          "internalType": "uint256",
          "name": "provenanceHash",
          "type": "uint256"
        },
        {
          "indexed": false,
          "internalType": "uint256",
          "name": "genIndex",
          "type": "uint256"
        }
      ],
      "name": "ProvenanceAmendmentEvent",
      "type": "event"
    },
    {
      "inputs": [
        {
          "internalType": "uint256",
          "name": "",
          "type": "uint256"
        }
      ],
      "name": "_generationsArr",
      "outputs": [
        {
          "internalType": "uint256",
          "name": "index",
          "type": "uint256"
        },
        {
          "internalType": "uint256",
          "name": "numItems",
          "type": "uint256"
        },
        {
          "internalType": "uint256",
          "name": "startIndex",
          "type": "uint256"
        },
        {
          "internalType": "uint256",
          "name": "timestamp",
          "type": "uint256"
        },
        {
          "internalType": "uint256",
          "name": "generatorHash",
          "type": "uint256"
        },
        {
          "internalType": "uint256",
          "name": "generatorSeed",
          "type": "uint256"
        },
        {
          "internalType": "uint256",
          "name": "provenanceHash",
          "type": "uint256"
        }
      ],
      "stateMutability": "view",
      "type": "function"
    },
    {
      "inputs": [
        {
          "internalType": "uint256",
          "name": "",
          "type": "uint256"
        }
      ],
      "name": "_provenanceAmendArr",
      "outputs": [
        {
          "internalType": "uint256",
          "name": "genIndex",
          "type": "uint256"
        },
        {
          "internalType": "uint256",
          "name": "newProvenanceHash",
          "type": "uint256"
        }
      ],
      "stateMutability": "view",
      "type": "function"
    },
    {
      "inputs": [],
      "name": "genStartIndex",
      "outputs": [
        {
          "internalType": "uint256",
          "name": "",
          "type": "uint256"
        }
      ],
      "stateMutability": "view",
      "type": "function"
    },
    {
      "inputs": [],
      "name": "owner",
      "outputs": [
        {
          "internalType": "address",
          "name": "",
          "type": "address"
        }
      ],
      "stateMutability": "view",
      "type": "function"
    },
    {
      "inputs": [],
      "name": "remaining",
      "outputs": [
        {
          "internalType": "uint256",
          "name": "",
          "type": "uint256"
        }
      ],
      "stateMutability": "view",
      "type": "function"
    },
    {
      "inputs": [],
      "name": "renounceOwnership",
      "outputs": [],
      "stateMutability": "nonpayable",
      "type": "function"
    },
    {
      "inputs": [
        {
          "internalType": "address",
          "name": "newOwner",
          "type": "address"
        }
      ],
      "name": "transferOwnership",
      "outputs": [],
      "stateMutability": "nonpayable",
      "type": "function"
    },
    {
      "inputs": [],
      "name": "getCurrentGeneration",
      "outputs": [
        {
          "components": [
            {
              "internalType": "uint256",
              "name": "index",
              "type": "uint256"
            },
            {
              "internalType": "uint256",
              "name": "numItems",
              "type": "uint256"
            },
            {
              "internalType": "uint256",
              "name": "startIndex",
              "type": "uint256"
            },
            {
              "internalType": "uint256",
              "name": "timestamp",
              "type": "uint256"
            },
            {
              "internalType": "uint256",
              "name": "generatorHash",
              "type": "uint256"
            },
            {
              "internalType": "uint256",
              "name": "generatorSeed",
              "type": "uint256"
            },
            {
              "internalType": "uint256",
              "name": "provenanceHash",
              "type": "uint256"
            }
          ],
          "internalType": "struct GenerationalGenerativeRandomDraw.Generation",
          "name": "",
          "type": "tuple"
        }
      ],
      "stateMutability": "view",
      "type": "function"
    },
    {
      "inputs": [
        {
          "internalType": "uint256",
          "name": "provenanceHash",
          "type": "uint256"
        },
        {
          "internalType": "uint256",
          "name": "genIndex",
          "type": "uint256"
        }
      ],
      "name": "amendProvenance",
      "outputs": [],
      "stateMutability": "nonpayable",
      "type": "function"
    },
    {
      "inputs": [],
      "name": "getProvenanceAmendment",
      "outputs": [
        {
          "components": [
            {
              "internalType": "uint256",
              "name": "genIndex",
              "type": "uint256"
            },
            {
              "internalType": "uint256",
              "name": "newProvenanceHash",
              "type": "uint256"
            }
          ],
          "internalType": "struct GenerationalGenerativeRandomDraw.ProvenanceAmendment",
          "name": "",
          "type": "tuple"
        }
      ],
      "stateMutability": "view",
      "type": "function"
    },
    {
      "inputs": [
        {
          "internalType": "uint64",
          "name": "numItems",
          "type": "uint64"
        },
        {
          "internalType": "uint256",
          "name": "provenanceHash",
          "type": "uint256"
        }
      ],
      "name": "makeNewGeneration",
      "outputs": [],
      "stateMutability": "nonpayable",
      "type": "function"
    },
    {
      "inputs": [
        {
          "internalType": "uint256",
          "name": "paramGeneratorHash",
          "type": "uint256"
        },
        {
          "internalType": "uint64",
          "name": "numItems",
          "type": "uint64"
        }
      ],
      "name": "preGeneration",
      "outputs": [
        {
          "internalType": "uint256",
          "name": "",
          "type": "uint256"
        }
      ],
      "stateMutability": "nonpayable",
      "type": "function"
    },
    {
      "inputs": [],
      "name": "getGeneratorSeed",
      "outputs": [
        {
          "internalType": "uint256",
          "name": "",
          "type": "uint256"
        }
      ],
      "stateMutability": "view",
      "type": "function"
    }
  ],
  "bytecode": "0x60806040526001600060146101000a81548167ffffffffffffffff021916908367ffffffffffffffff16021790555034801561003a57600080fd5b5061005761004c61005c60201b60201c565b61006460201b60201c565b610128565b600033905090565b60008060009054906101000a900473ffffffffffffffffffffffffffffffffffffffff169050816000806101000a81548173ffffffffffffffffffffffffffffffffffffffff021916908373ffffffffffffffffffffffffffffffffffffffff1602179055508173ffffffffffffffffffffffffffffffffffffffff168173ffffffffffffffffffffffffffffffffffffffff167f8be0079c531659141344cd1fd0a4f28419497f9722a3daafe3b4186f6b6457e060405160405180910390a35050565b611316806101376000396000f3fe608060405234801561001057600080fd5b50600436106100cf5760003560e01c8063aaf65b671161008c578063dc073f0c11610066578063dc073f0c14610207578063e8b78dcc14610225578063f2c1318714610243578063f2fde38b14610261576100cf565b8063aaf65b6714610188578063b4113b2e146101b8578063c0722bde146101d6576100cf565b806323be093d146100d45780632f352c24146100f057806355234ec014610126578063715018a6146101445780638da5cb5b1461014e578063a760586b1461016c575b600080fd5b6100ee60048036038101906100e99190610ca2565b61027d565b005b61010a60048036038101906101059190610c75565b610392565b60405161011d9796959493929190610fca565b60405180910390f35b61012e6103e4565b60405161013b9190610f86565b60405180910390f35b61014c6103ea565b005b610156610472565b6040516101639190610ef5565b60405180910390f35b61018660048036038101906101819190610d22565b61049b565b005b6101a2600480360381019061019d9190610ce2565b61078a565b6040516101af9190610f86565b60405180910390f35b6101c06108ba565b6040516101cd9190610f50565b60405180910390f35b6101f060048036038101906101eb9190610c75565b61094b565b6040516101fe929190610fa1565b60405180910390f35b61020f61097f565b60405161021c9190610f86565b60405180910390f35b61022d610989565b60405161023a9190610f6b565b60405180910390f35b61024b6109e8565b6040516102589190610f86565b60405180910390f35b61027b60048036038101906102769190610c48565b6109ee565b005b610285610ae6565b73ffffffffffffffffffffffffffffffffffffffff166102a3610472565b73ffffffffffffffffffffffffffffffffffffffff16146102f9576040517f08c379a00000000000000000000000000000000000000000000000000000000081526004016102f090610f30565b60405180910390fd5b60006040518060400160405280838152602001848152509050600a819080600181540180825580915050600190039060005260206000209060020201600090919091909150600082015181600001556020820151816001015550507fb783fdedbaa7ddbc93d51a6b252d19a5f3b5d9f759fc1784847f404ee9a31d178383604051610385929190610fa1565b60405180910390a1505050565b600981815481106103a257600080fd5b90600052602060002090600702016000915090508060000154908060010154908060020154908060030154908060040154908060050154908060060154905087565b60025481565b6103f2610ae6565b73ffffffffffffffffffffffffffffffffffffffff16610410610472565b73ffffffffffffffffffffffffffffffffffffffff1614610466576040517f08c379a000000000000000000000000000000000000000000000000000000000815260040161045d90610f30565b60405180910390fd5b6104706000610aee565b565b60008060009054906101000a900473ffffffffffffffffffffffffffffffffffffffff16905090565b6104a3610ae6565b73ffffffffffffffffffffffffffffffffffffffff166104c1610472565b73ffffffffffffffffffffffffffffffffffffffff1614610517576040517f08c379a000000000000000000000000000000000000000000000000000000000815260040161050e90610f30565b60405180910390fd5b60006009805490509050610529610bb2565b8367ffffffffffffffff168160200181815250506000821115610606576000600960018461055791906110d7565b81548110610568576105676111ef565b5b90600052602060002090600702016040518060e00160405290816000820154815260200160018201548152602001600282015481526020016003820154815260200160048201548152602001600582015481526020016006820154815250509050600181600001516105da9190611081565b826000018181525050806020015181604001516105f79190611081565b8260400181815250505061063c565b6001816000018181525050600060149054906101000a900467ffffffffffffffff1667ffffffffffffffff168160400181815250505b4267ffffffffffffffff168160600181815250506007548160800181815250506008548160a0018181525050828160c00181815250506009819080600181540180825580915050600190039060005260206000209060070201600090919091909150600082015181600001556020820151816001015560408201518160020155606082015181600301556080820151816004015560a0820151816005015560c082015181600601555050600460008154809291906106f99061116d565b919050555080604001516001819055508367ffffffffffffffff1660028190555080604001516003819055507f85757be328172e8ed54342a9f7adc9f483aae06f2bf8fbe6fc27618bc9b73db1816000015182602001518360400151846060015185608001518660a001518760c0015160405161077c9796959493929190610fca565b60405180910390a150505050565b6000610794610ae6565b73ffffffffffffffffffffffffffffffffffffffff166107b2610472565b73ffffffffffffffffffffffffffffffffffffffff1614610808576040517f08c379a00000000000000000000000000000000000000000000000000000000081526004016107ff90610f30565b60405180910390fd5b81600660006101000a81548167ffffffffffffffff021916908367ffffffffffffffff160217905550826007819055506000444260075460405160200161085193929190610eb8565b6040516020818303038152906040528051906020012060001c9050806008819055507f71fe60a73d47ef8c29e4a80bfd3bb61b8ff6081ef98e1946e8e84e225bc1359c83600754836040516108a893929190611039565b60405180910390a18091505092915050565b6108c2610bb2565b600960016009805490506108d691906110d7565b815481106108e7576108e66111ef565b5b90600052602060002090600702016040518060e0016040529081600082015481526020016001820154815260200160028201548152602001600382015481526020016004820154815260200160058201548152602001600682015481525050905090565b600a818154811061095b57600080fd5b90600052602060002090600202016000915090508060000154908060010154905082565b6000600854905090565b610991610bef565b600a6001600a805490506109a591906110d7565b815481106109b6576109b56111ef565b5b906000526020600020906002020160405180604001604052908160008201548152602001600182015481525050905090565b60035481565b6109f6610ae6565b73ffffffffffffffffffffffffffffffffffffffff16610a14610472565b73ffffffffffffffffffffffffffffffffffffffff1614610a6a576040517f08c379a0000000000000000000000000000000000000000000000000000000008152600401610a6190610f30565b60405180910390fd5b600073ffffffffffffffffffffffffffffffffffffffff168173ffffffffffffffffffffffffffffffffffffffff161415610ada576040517f08c379a0000000000000000000000000000000000000000000000000000000008152600401610ad190610f10565b60405180910390fd5b610ae381610aee565b50565b600033905090565b60008060009054906101000a900473ffffffffffffffffffffffffffffffffffffffff169050816000806101000a81548173ffffffffffffffffffffffffffffffffffffffff021916908373ffffffffffffffffffffffffffffffffffffffff1602179055508173ffffffffffffffffffffffffffffffffffffffff168173ffffffffffffffffffffffffffffffffffffffff167f8be0079c531659141344cd1fd0a4f28419497f9722a3daafe3b4186f6b6457e060405160405180910390a35050565b6040518060e00160405280600081526020016000815260200160008152602001600081526020016000815260200160008152602001600081525090565b604051806040016040528060008152602001600081525090565b600081359050610c188161129b565b92915050565b600081359050610c2d816112b2565b92915050565b600081359050610c42816112c9565b92915050565b600060208284031215610c5e57610c5d61121e565b5b6000610c6c84828501610c09565b91505092915050565b600060208284031215610c8b57610c8a61121e565b5b6000610c9984828501610c1e565b91505092915050565b60008060408385031215610cb957610cb861121e565b5b6000610cc785828601610c1e565b9250506020610cd885828601610c1e565b9150509250929050565b60008060408385031215610cf957610cf861121e565b5b6000610d0785828601610c1e565b9250506020610d1885828601610c33565b9150509250929050565b60008060408385031215610d3957610d3861121e565b5b6000610d4785828601610c33565b9250506020610d5885828601610c1e565b9150509250929050565b610d6b8161110b565b82525050565b6000610d7e602683611070565b9150610d8982611223565b604082019050919050565b6000610da1602083611070565b9150610dac82611272565b602082019050919050565b60e082016000820151610dcd6000850182610e74565b506020820151610de06020850182610e74565b506040820151610df36040850182610e74565b506060820151610e066060850182610e74565b506080820151610e196080850182610e74565b5060a0820151610e2c60a0850182610e74565b5060c0820151610e3f60c0850182610e74565b50505050565b604082016000820151610e5b6000850182610e74565b506020820151610e6e6020850182610e74565b50505050565b610e7d8161113d565b82525050565b610e8c8161113d565b82525050565b610ea3610e9e8261113d565b6111b6565b82525050565b610eb28161115b565b82525050565b6000610ec48286610e92565b602082019150610ed48285610e92565b602082019150610ee48284610e92565b602082019150819050949350505050565b6000602082019050610f0a6000830184610d62565b92915050565b60006020820190508181036000830152610f2981610d71565b9050919050565b60006020820190508181036000830152610f4981610d94565b9050919050565b600060e082019050610f656000830184610db7565b92915050565b6000604082019050610f806000830184610e45565b92915050565b6000602082019050610f9b6000830184610e83565b92915050565b6000604082019050610fb66000830185610e83565b610fc36020830184610e83565b9392505050565b600060e082019050610fdf600083018a610e83565b610fec6020830189610e83565b610ff96040830188610e83565b6110066060830187610e83565b6110136080830186610e83565b61102060a0830185610e83565b61102d60c0830184610e83565b98975050505050505050565b600060608201905061104e6000830186610ea9565b61105b6020830185610e83565b6110686040830184610e83565b949350505050565b600082825260208201905092915050565b600061108c8261113d565b91506110978361113d565b9250827fffffffffffffffffffffffffffffffffffffffffffffffffffffffffffffffff038211156110cc576110cb6111c0565b5b828201905092915050565b60006110e28261113d565b91506110ed8361113d565b925082821015611100576110ff6111c0565b5b828203905092915050565b60006111168261111d565b9050919050565b600073ffffffffffffffffffffffffffffffffffffffff82169050919050565b6000819050919050565b600067ffffffffffffffff82169050919050565b600061116682611147565b9050919050565b60006111788261113d565b91507fffffffffffffffffffffffffffffffffffffffffffffffffffffffffffffffff8214156111ab576111aa6111c0565b5b600182019050919050565b6000819050919050565b7f4e487b7100000000000000000000000000000000000000000000000000000000600052601160045260246000fd5b7f4e487b7100000000000000000000000000000000000000000000000000000000600052603260045260246000fd5b600080fd5b7f4f776e61626c653a206e6577206f776e657220697320746865207a65726f206160008201527f6464726573730000000000000000000000000000000000000000000000000000602082015250565b7f4f776e61626c653a2063616c6c6572206973206e6f7420746865206f776e6572600082015250565b6112a48161110b565b81146112af57600080fd5b50565b6112bb8161113d565b81146112c657600080fd5b50565b6112d281611147565b81146112dd57600080fd5b5056fea26469706673582212200e9630d3927282ef2821d7fded8adcdcdf5f7297d850bd56acbc74e9a92c2aa464736f6c63430008070033",
  "immutableReferences": {},
  "source": "// SPDX-License-Identifier: Apache-2.0\r\n\r\npragma solidity ^0.8.7;\r\nimport \"@openzeppelin/contracts/access/Ownable.sol\";\r\n\r\ncontract GenerationalGenerativeRandomDraw is Ownable {\r\n\r\n    uint64 idSpaceStart = 1;\r\n    uint256 _currentStartIndex;\r\n\r\n    // ---------- DRAW RANDOM CARD -------------\r\n    uint256 public remaining;\r\n    uint256 public genStartIndex;\r\n\r\n    // ---------- MULTI OR DELETABLE MAPPING ---\r\n    uint256 private _currentMappingVersion;\r\n    mapping(uint256 => uint256) cache;\r\n\r\n    // ---------- PRE-GENERATION ---------------\r\n    uint64 preNumItems;\r\n    uint256 generatorHash;\r\n    uint256 generatorSeed;\r\n\r\n    // ---------- GENERATIONS -------------------\r\n    struct Generation {\r\n        uint256 index;\r\n        uint256 numItems;\r\n        uint256 startIndex;\r\n        uint256 timestamp;\r\n        uint256 generatorHash;\r\n        uint256 generatorSeed;\r\n        uint256 provenanceHash;\r\n    }\r\n    Generation[] public _generationsArr;\r\n\r\n    struct ProvenanceAmendment {\r\n        uint256 genIndex;\r\n        uint256 newProvenanceHash;\r\n    }\r\n    ProvenanceAmendment[] public _provenanceAmendArr;\r\n\r\n    event PreGenerationEvent(uint256 preNummItems, uint256 preGeneratorHash, uint256 preGeneratorSeed);\r\n    event NewGenerationEvent(uint256 index, uint256 numItems, uint256 startIndex, uint256 timestamp,\r\n        uint256 generatorHash, uint256 generatorSeed, uint256 provenanceHash);\r\n    event ProvenanceAmendmentEvent(uint256 provenanceHash, uint256 genIndex);\r\n\r\n    // this function adds a lot of code size for some reason\r\n//    function getGenerations() public view returns (Generation[] memory) {\r\n//        return _generationsArr;\r\n//    }\r\n\r\n    function getCurrentGeneration() public view returns (Generation memory) {\r\n        return _generationsArr[_generationsArr.length -1];\r\n    }\r\n\r\n    function amendProvenance(uint256 provenanceHash, uint256 genIndex) public onlyOwner {\r\n        ProvenanceAmendment memory newProv = ProvenanceAmendment(genIndex, provenanceHash);\r\n        _provenanceAmendArr.push(newProv);\r\n        emit ProvenanceAmendmentEvent(provenanceHash, genIndex);\r\n    }\r\n\r\n    function getProvenanceAmendment() public view returns (ProvenanceAmendment memory) {\r\n        return _provenanceAmendArr[_provenanceAmendArr.length -1];\r\n    }\r\n\r\n    function makeNewGeneration(uint64 numItems, uint256 provenanceHash) public onlyOwner {\r\n        uint256 countGenerations = _generationsArr.length;\r\n        Generation memory newGen;\r\n        newGen.numItems = numItems;\r\n        if (countGenerations > 0) {\r\n            Generation memory lastGen = _generationsArr[countGenerations - 1];\r\n            newGen.index = lastGen.index + 1;\r\n            newGen.startIndex = lastGen.startIndex + lastGen.numItems;\r\n        } else {\r\n            newGen.index = 1;\r\n            newGen.startIndex = idSpaceStart;\r\n        }\r\n        newGen.timestamp = uint64(block.timestamp);\r\n        newGen.generatorHash = generatorHash;\r\n        newGen.generatorSeed = generatorSeed;\r\n        newGen.provenanceHash = provenanceHash;\r\n        _generationsArr.push(newGen);\r\n        _currentMappingVersion++;\r\n        _currentStartIndex = newGen.startIndex;\r\n        remaining = numItems;\r\n        genStartIndex = newGen.startIndex;\r\n        emit NewGenerationEvent(newGen.index, newGen.numItems, newGen.startIndex, newGen.timestamp, newGen.generatorHash, newGen.generatorSeed, newGen.provenanceHash);\r\n    }\r\n\r\n    function preGeneration(uint256 paramGeneratorHash, uint64 numItems) public onlyOwner returns (uint256) {\r\n        preNumItems = numItems;\r\n        generatorHash = paramGeneratorHash;\r\n        uint256 randomSeed = uint(keccak256(abi.encodePacked(block.difficulty, block.timestamp, generatorHash)));\r\n        generatorSeed = randomSeed;\r\n        emit PreGenerationEvent(numItems, generatorHash, randomSeed);\r\n        return randomSeed;\r\n    }\r\n\r\n    function getGeneratorSeed() public view returns (uint256) {\r\n        return generatorSeed;\r\n    }\r\n\r\n    function packUints(uint256 one, uint256 two) private pure returns(uint256) {\r\n        uint256 packed = (one << 128) + two;\r\n        return packed;\r\n    }\r\n\r\n    function getCache(uint256 index) private view returns(uint256) {\r\n        uint256 key = packUints(_currentMappingVersion, index);\r\n        return cache[key];\r\n    }\r\n\r\n    function setCache(uint256 index, uint256 card) private {\r\n        uint256 key = packUints(_currentMappingVersion, index);\r\n        cache[key] = card;\r\n    }\r\n\r\n    function drawIndex() internal returns(uint256 adjustedIndex) {\r\n        //Random number\r\n        uint256 i = uint256(blockhash(block.number - 1)) % remaining;\r\n        // if there's a cache at cache[i] then use it, otherwise use i itself\r\n        uint256 foundCard = getCache(i);\r\n        uint256 index = foundCard == 0 ? i : foundCard;\r\n        adjustedIndex = index + genStartIndex;\r\n        // grab a number from the tail\r\n        uint256 tailCard = getCache(remaining - 1);\r\n        setCache(i, tailCard == 0 ? remaining - 1 : tailCard);\r\n        remaining = remaining - 1;\r\n    }\r\n\r\n}\r\n",
  "sourcePath": "C:\\Users\\16172\\code\\hardhat-tutorial\\contracts\\GenerationalGenerativeRandomDraw.sol",
  "compiler": {
    "name": "solc",
    "version": "0.8.7+commit.e28d00a7.Emscripten.clang"
  },
  "schemaVersion": "3.4.3",
  "updatedAt": "2021-11-03T23:25:04.823Z",
  "devdoc": {
    "kind": "dev",
    "methods": {
      "owner()": {
        "details": "Returns the address of the current owner."
      },
      "renounceOwnership()": {
        "details": "Leaves the contract without owner. It will not be possible to call `onlyOwner` functions anymore. Can only be called by the current owner. NOTE: Renouncing ownership will leave the contract without an owner, thereby removing any functionality that is only available to the owner."
      },
      "transferOwnership(address)": {
        "details": "Transfers ownership of the contract to a new account (`newOwner`). Can only be called by the current owner."
      }
    },
    "version": 1
  },
  "userdoc": {
    "kind": "user",
    "methods": {},
    "version": 1
  }
}