{
  "contractName": "GenerationalRandomMintable",
  "abi": [
    {
      "anonymous": false,
      "inputs": [
        {
          "indexed": false,
          "internalType": "uint256",
          "name": "index",
          "type": "uint256"
        },
        {
          "indexed": false,
          "internalType": "uint256",
          "name": "numItems",
          "type": "uint256"
        },
        {
          "indexed": false,
          "internalType": "uint256",
          "name": "startIndex",
          "type": "uint256"
        },
        {
          "indexed": false,
          "internalType": "uint64",
          "name": "timestamp",
          "type": "uint64"
        },
        {
          "indexed": false,
          "internalType": "uint256",
          "name": "generatorHash",
          "type": "uint256"
        },
        {
          "indexed": false,
          "internalType": "uint256",
          "name": "generatorSeed",
          "type": "uint256"
        },
        {
          "indexed": false,
          "internalType": "uint256",
          "name": "provenanceHash",
          "type": "uint256"
        }
      ],
      "name": "NewGenerationEvent",
      "type": "event"
    },
    {
      "anonymous": false,
      "inputs": [
        {
          "indexed": true,
          "internalType": "address",
          "name": "previousOwner",
          "type": "address"
        },
        {
          "indexed": true,
          "internalType": "address",
          "name": "newOwner",
          "type": "address"
        }
      ],
      "name": "OwnershipTransferred",
      "type": "event"
    },
    {
      "anonymous": false,
      "inputs": [
        {
          "indexed": false,
          "internalType": "uint256",
          "name": "preNummItems",
          "type": "uint256"
        },
        {
          "indexed": false,
          "internalType": "uint256",
          "name": "preGeneratorHash",
          "type": "uint256"
        },
        {
          "indexed": false,
          "internalType": "uint256",
          "name": "preGeneratorSeed",
          "type": "uint256"
        }
      ],
      "name": "PreGenerationEvent",
      "type": "event"
    },
    {
      "inputs": [
        {
          "internalType": "uint256",
          "name": "",
          "type": "uint256"
        }
      ],
      "name": "_generationsArr",
      "outputs": [
        {
          "internalType": "uint64",
          "name": "index",
          "type": "uint64"
        },
        {
          "internalType": "uint64",
          "name": "numItems",
          "type": "uint64"
        },
        {
          "internalType": "uint64",
          "name": "startIndex",
          "type": "uint64"
        },
        {
          "internalType": "uint64",
          "name": "timestamp",
          "type": "uint64"
        },
        {
          "internalType": "uint256",
          "name": "generatorHash",
          "type": "uint256"
        },
        {
          "internalType": "uint256",
          "name": "generatorSeed",
          "type": "uint256"
        },
        {
          "internalType": "uint256",
          "name": "provenanceHash",
          "type": "uint256"
        }
      ],
      "stateMutability": "view",
      "type": "function"
    },
    {
      "inputs": [],
      "name": "genStartIndex",
      "outputs": [
        {
          "internalType": "uint256",
          "name": "",
          "type": "uint256"
        }
      ],
      "stateMutability": "view",
      "type": "function"
    },
    {
      "inputs": [],
      "name": "owner",
      "outputs": [
        {
          "internalType": "address",
          "name": "",
          "type": "address"
        }
      ],
      "stateMutability": "view",
      "type": "function"
    },
    {
      "inputs": [],
      "name": "remaining",
      "outputs": [
        {
          "internalType": "uint256",
          "name": "",
          "type": "uint256"
        }
      ],
      "stateMutability": "view",
      "type": "function"
    },
    {
      "inputs": [],
      "name": "renounceOwnership",
      "outputs": [],
      "stateMutability": "nonpayable",
      "type": "function"
    },
    {
      "inputs": [
        {
          "internalType": "address",
          "name": "newOwner",
          "type": "address"
        }
      ],
      "name": "transferOwnership",
      "outputs": [],
      "stateMutability": "nonpayable",
      "type": "function"
    },
    {
      "inputs": [],
      "name": "getCurrentGeneration",
      "outputs": [
        {
          "components": [
            {
              "internalType": "uint64",
              "name": "index",
              "type": "uint64"
            },
            {
              "internalType": "uint64",
              "name": "numItems",
              "type": "uint64"
            },
            {
              "internalType": "uint64",
              "name": "startIndex",
              "type": "uint64"
            },
            {
              "internalType": "uint64",
              "name": "timestamp",
              "type": "uint64"
            },
            {
              "internalType": "uint256",
              "name": "generatorHash",
              "type": "uint256"
            },
            {
              "internalType": "uint256",
              "name": "generatorSeed",
              "type": "uint256"
            },
            {
              "internalType": "uint256",
              "name": "provenanceHash",
              "type": "uint256"
            }
          ],
          "internalType": "struct GenerationalRandomMintable.Generation",
          "name": "",
          "type": "tuple"
        }
      ],
      "stateMutability": "view",
      "type": "function"
    },
    {
      "inputs": [
        {
          "internalType": "uint64",
          "name": "numItems",
          "type": "uint64"
        },
        {
          "internalType": "uint256",
          "name": "provenanceHash",
          "type": "uint256"
        }
      ],
      "name": "makeNewGeneration",
      "outputs": [],
      "stateMutability": "nonpayable",
      "type": "function"
    },
    {
      "inputs": [
        {
          "internalType": "uint256",
          "name": "paramGeneratorHash",
          "type": "uint256"
        },
        {
          "internalType": "uint64",
          "name": "numItems",
          "type": "uint64"
        }
      ],
      "name": "preGeneration",
      "outputs": [
        {
          "internalType": "uint256",
          "name": "",
          "type": "uint256"
        }
      ],
      "stateMutability": "nonpayable",
      "type": "function"
    },
    {
      "inputs": [],
      "name": "getGeneratorSeed",
      "outputs": [
        {
          "internalType": "uint256",
          "name": "",
          "type": "uint256"
        }
      ],
      "stateMutability": "view",
      "type": "function"
    }
  ],
  "bytecode": "0x60806040526001600060146101000a81548167ffffffffffffffff021916908367ffffffffffffffff16021790555034801561003a57600080fd5b5061005761004c61005c60201b60201c565b61006460201b60201c565b610128565b600033905090565b60008060009054906101000a900473ffffffffffffffffffffffffffffffffffffffff169050816000806101000a81548173ffffffffffffffffffffffffffffffffffffffff021916908373ffffffffffffffffffffffffffffffffffffffff1602179055508173ffffffffffffffffffffffffffffffffffffffff168173ffffffffffffffffffffffffffffffffffffffff167f8be0079c531659141344cd1fd0a4f28419497f9722a3daafe3b4186f6b6457e060405160405180910390a35050565b61133f806101376000396000f3fe608060405234801561001057600080fd5b506004361061009e5760003560e01c8063aaf65b6711610066578063aaf65b671461013b578063b4113b2e1461016b578063dc073f0c14610189578063f2c13187146101a7578063f2fde38b146101c55761009e565b80632f352c24146100a357806355234ec0146100d9578063715018a6146100f75780638da5cb5b14610101578063a760586b1461011f575b600080fd5b6100bd60048036038101906100b89190610cdc565b6101e1565b6040516100d09796959493929190611042565b60405180910390f35b6100e1610283565b6040516100ee9190610f81565b60405180910390f35b6100ff610289565b005b610109610311565b6040516101169190610f0b565b60405180910390f35b61013960048036038101906101349190610d49565b61033a565b005b61015560048036038101906101509190610d09565b6107d6565b6040516101629190610f81565b60405180910390f35b610173610906565b6040516101809190610f66565b60405180910390f35b610191610a37565b60405161019e9190610f81565b60405180910390f35b6101af610a41565b6040516101bc9190610f81565b60405180910390f35b6101df60048036038101906101da9190610caf565b610a47565b005b600981815481106101f157600080fd5b90600052602060002090600402016000915090508060000160009054906101000a900467ffffffffffffffff16908060000160089054906101000a900467ffffffffffffffff16908060000160109054906101000a900467ffffffffffffffff16908060000160189054906101000a900467ffffffffffffffff16908060010154908060020154908060030154905087565b60025481565b610291610b3f565b73ffffffffffffffffffffffffffffffffffffffff166102af610311565b73ffffffffffffffffffffffffffffffffffffffff1614610305576040517f08c379a00000000000000000000000000000000000000000000000000000000081526004016102fc90610f46565b60405180910390fd5b61030f6000610b47565b565b60008060009054906101000a900473ffffffffffffffffffffffffffffffffffffffff16905090565b610342610b3f565b73ffffffffffffffffffffffffffffffffffffffff16610360610311565b73ffffffffffffffffffffffffffffffffffffffff16146103b6576040517f08c379a00000000000000000000000000000000000000000000000000000000081526004016103ad90610f46565b60405180910390fd5b600060098054905090506103c8610c0b565b83816020019067ffffffffffffffff16908167ffffffffffffffff1681525050600082111561057d57600060096001846104029190611100565b8154811061041357610412611218565b5b90600052602060002090600402016040518060e00160405290816000820160009054906101000a900467ffffffffffffffff1667ffffffffffffffff1667ffffffffffffffff1681526020016000820160089054906101000a900467ffffffffffffffff1667ffffffffffffffff1667ffffffffffffffff1681526020016000820160109054906101000a900467ffffffffffffffff1667ffffffffffffffff1667ffffffffffffffff1681526020016000820160189054906101000a900467ffffffffffffffff1667ffffffffffffffff1667ffffffffffffffff168152602001600182015481526020016002820154815260200160038201548152505090506001816000015161052591906110c2565b826000019067ffffffffffffffff16908167ffffffffffffffff16815250508060200151816040015161055891906110c2565b826040019067ffffffffffffffff16908167ffffffffffffffff1681525050506105d5565b6001816000019067ffffffffffffffff16908167ffffffffffffffff1681525050600060149054906101000a900467ffffffffffffffff16816040019067ffffffffffffffff16908167ffffffffffffffff16815250505b42816060019067ffffffffffffffff16908167ffffffffffffffff16815250506007548160800181815250506008548160a0018181525050828160c0018181525050600981908060018154018082558091505060019003906000526020600020906004020160009091909190915060008201518160000160006101000a81548167ffffffffffffffff021916908367ffffffffffffffff16021790555060208201518160000160086101000a81548167ffffffffffffffff021916908367ffffffffffffffff16021790555060408201518160000160106101000a81548167ffffffffffffffff021916908367ffffffffffffffff16021790555060608201518160000160186101000a81548167ffffffffffffffff021916908367ffffffffffffffff1602179055506080820151816001015560a0820151816002015560c0820151816003015550506004600081548092919061073290611196565b9190505550806040015167ffffffffffffffff166001819055508367ffffffffffffffff16600281905550806040015167ffffffffffffffff166003819055507e65b13163112d661526659950aa38753518000cb4cc9298cfef76a7a9d6daeb816000015182602001518360400151846060015185608001518660a001518760c001516040516107c89796959493929190610fd3565b60405180910390a150505050565b60006107e0610b3f565b73ffffffffffffffffffffffffffffffffffffffff166107fe610311565b73ffffffffffffffffffffffffffffffffffffffff1614610854576040517f08c379a000000000000000000000000000000000000000000000000000000000815260040161084b90610f46565b60405180910390fd5b81600660006101000a81548167ffffffffffffffff021916908367ffffffffffffffff160217905550826007819055506000444260075460405160200161089d93929190610ece565b6040516020818303038152906040528051906020012060001c9050806008819055507f71fe60a73d47ef8c29e4a80bfd3bb61b8ff6081ef98e1946e8e84e225bc1359c83600754836040516108f493929190610f9c565b60405180910390a18091505092915050565b61090e610c0b565b600960016009805490506109229190611100565b8154811061093357610932611218565b5b90600052602060002090600402016040518060e00160405290816000820160009054906101000a900467ffffffffffffffff1667ffffffffffffffff1667ffffffffffffffff1681526020016000820160089054906101000a900467ffffffffffffffff1667ffffffffffffffff1667ffffffffffffffff1681526020016000820160109054906101000a900467ffffffffffffffff1667ffffffffffffffff1667ffffffffffffffff1681526020016000820160189054906101000a900467ffffffffffffffff1667ffffffffffffffff1667ffffffffffffffff1681526020016001820154815260200160028201548152602001600382015481525050905090565b6000600854905090565b60035481565b610a4f610b3f565b73ffffffffffffffffffffffffffffffffffffffff16610a6d610311565b73ffffffffffffffffffffffffffffffffffffffff1614610ac3576040517f08c379a0000000000000000000000000000000000000000000000000000000008152600401610aba90610f46565b60405180910390fd5b600073ffffffffffffffffffffffffffffffffffffffff168173ffffffffffffffffffffffffffffffffffffffff161415610b33576040517f08c379a0000000000000000000000000000000000000000000000000000000008152600401610b2a90610f26565b60405180910390fd5b610b3c81610b47565b50565b600033905090565b60008060009054906101000a900473ffffffffffffffffffffffffffffffffffffffff169050816000806101000a81548173ffffffffffffffffffffffffffffffffffffffff021916908373ffffffffffffffffffffffffffffffffffffffff1602179055508173ffffffffffffffffffffffffffffffffffffffff168173ffffffffffffffffffffffffffffffffffffffff167f8be0079c531659141344cd1fd0a4f28419497f9722a3daafe3b4186f6b6457e060405160405180910390a35050565b6040518060e00160405280600067ffffffffffffffff168152602001600067ffffffffffffffff168152602001600067ffffffffffffffff168152602001600067ffffffffffffffff1681526020016000815260200160008152602001600081525090565b600081359050610c7f816112c4565b92915050565b600081359050610c94816112db565b92915050565b600081359050610ca9816112f2565b92915050565b600060208284031215610cc557610cc4611247565b5b6000610cd384828501610c70565b91505092915050565b600060208284031215610cf257610cf1611247565b5b6000610d0084828501610c85565b91505092915050565b60008060408385031215610d2057610d1f611247565b5b6000610d2e85828601610c85565b9250506020610d3f85828601610c9a565b9150509250929050565b60008060408385031215610d6057610d5f611247565b5b6000610d6e85828601610c9a565b9250506020610d7f85828601610c85565b9150509250929050565b610d9281611134565b82525050565b6000610da56026836110b1565b9150610db08261124c565b604082019050919050565b6000610dc86020836110b1565b9150610dd38261129b565b602082019050919050565b60e082016000820151610df46000850182610eb0565b506020820151610e076020850182610eb0565b506040820151610e1a6040850182610eb0565b506060820151610e2d6060850182610eb0565b506080820151610e406080850182610e6c565b5060a0820151610e5360a0850182610e6c565b5060c0820151610e6660c0850182610e6c565b50505050565b610e7581611166565b82525050565b610e8481611166565b82525050565b610e9b610e9682611166565b6111df565b82525050565b610eaa81611184565b82525050565b610eb981611170565b82525050565b610ec881611170565b82525050565b6000610eda8286610e8a565b602082019150610eea8285610e8a565b602082019150610efa8284610e8a565b602082019150819050949350505050565b6000602082019050610f206000830184610d89565b92915050565b60006020820190508181036000830152610f3f81610d98565b9050919050565b60006020820190508181036000830152610f5f81610dbb565b9050919050565b600060e082019050610f7b6000830184610dde565b92915050565b6000602082019050610f966000830184610e7b565b92915050565b6000606082019050610fb16000830186610ea1565b610fbe6020830185610e7b565b610fcb6040830184610e7b565b949350505050565b600060e082019050610fe8600083018a610ea1565b610ff56020830189610ea1565b6110026040830188610ea1565b61100f6060830187610ebf565b61101c6080830186610e7b565b61102960a0830185610e7b565b61103660c0830184610e7b565b98975050505050505050565b600060e082019050611057600083018a610ebf565b6110646020830189610ebf565b6110716040830188610ebf565b61107e6060830187610ebf565b61108b6080830186610e7b565b61109860a0830185610e7b565b6110a560c0830184610e7b565b98975050505050505050565b600082825260208201905092915050565b60006110cd82611170565b91506110d883611170565b92508267ffffffffffffffff038211156110f5576110f46111e9565b5b828201905092915050565b600061110b82611166565b915061111683611166565b925082821015611129576111286111e9565b5b828203905092915050565b600061113f82611146565b9050919050565b600073ffffffffffffffffffffffffffffffffffffffff82169050919050565b6000819050919050565b600067ffffffffffffffff82169050919050565b600061118f82611170565b9050919050565b60006111a182611166565b91507fffffffffffffffffffffffffffffffffffffffffffffffffffffffffffffffff8214156111d4576111d36111e9565b5b600182019050919050565b6000819050919050565b7f4e487b7100000000000000000000000000000000000000000000000000000000600052601160045260246000fd5b7f4e487b7100000000000000000000000000000000000000000000000000000000600052603260045260246000fd5b600080fd5b7f4f776e61626c653a206e6577206f776e657220697320746865207a65726f206160008201527f6464726573730000000000000000000000000000000000000000000000000000602082015250565b7f4f776e61626c653a2063616c6c6572206973206e6f7420746865206f776e6572600082015250565b6112cd81611134565b81146112d857600080fd5b50565b6112e481611166565b81146112ef57600080fd5b50565b6112fb81611170565b811461130657600080fd5b5056fea2646970667358221220b785b2f05e2b54eff4acaf20300754e38d44c0d78efa0c415ec91f4a76a347f664736f6c63430008070033",
  "immutableReferences": {},
  "source": "// SPDX-License-Identifier: Apache-2.0\r\n\r\npragma solidity ^0.8.7;\r\nimport \"@openzeppelin/contracts/access/Ownable.sol\";\r\n\r\ncontract GenerationalRandomMintable is Ownable {\r\n\r\n    uint64 idSpaceStart = 1;\r\n    uint256 _currentStartIndex;\r\n\r\n    // ---------- DRAW RANDOM CARD -------------\r\n    uint256 public remaining;\r\n    uint256 public genStartIndex;\r\n\r\n    // ---------- MULTI OR DELETABLE MAPPING ---\r\n    uint256 private _currentMappingVersion;\r\n    mapping(uint256 => uint256) cache;\r\n\r\n    // ---------- PRE-GENERATION ---------------\r\n    uint64 preNumItems;\r\n    uint256 generatorHash;\r\n    uint256 generatorSeed;\r\n\r\n    // ---------- GENERATIONS -------------------\r\n    struct Generation {\r\n        uint64 index;\r\n        uint64 numItems;\r\n        uint64 startIndex;\r\n        uint64 timestamp;\r\n        uint256 generatorHash;\r\n        uint256 generatorSeed;\r\n        uint256 provenanceHash;\r\n    }\r\n    Generation[] public _generationsArr;\r\n\r\n    event PreGenerationEvent(uint256 preNummItems, uint256 preGeneratorHash, uint256 preGeneratorSeed);\r\n    event NewGenerationEvent(uint256 index, uint256 numItems, uint256 startIndex, uint64 timestamp, uint256 generatorHash, uint256 generatorSeed, uint256 provenanceHash);\r\n\r\n    // this function adds a lot of code size for some reason\r\n//    function getGenerations() public view returns (Generation[] memory) {\r\n//        return _generationsArr;\r\n//    }\r\n\r\n    function getCurrentGeneration() public view returns (Generation memory) {\r\n        return _generationsArr[_generationsArr.length -1];\r\n    }\r\n\r\n    function makeNewGeneration(uint64 numItems, uint256 provenanceHash) public onlyOwner {\r\n        uint256 countGenerations = _generationsArr.length;\r\n        Generation memory newGen;\r\n        newGen.numItems = numItems;\r\n        if (countGenerations > 0) {\r\n            Generation memory lastGen = _generationsArr[countGenerations - 1];\r\n            newGen.index = lastGen.index + 1;\r\n            newGen.startIndex = lastGen.startIndex + lastGen.numItems;\r\n        } else {\r\n            newGen.index = 1;\r\n            newGen.startIndex = idSpaceStart;\r\n        }\r\n        newGen.timestamp = uint64(block.timestamp);\r\n        newGen.generatorHash = generatorHash;\r\n        newGen.generatorSeed = generatorSeed;\r\n        newGen.provenanceHash = provenanceHash;\r\n        _generationsArr.push(newGen);\r\n        _currentMappingVersion++;\r\n        _currentStartIndex = newGen.startIndex;\r\n        remaining = numItems;\r\n        genStartIndex = newGen.startIndex;\r\n        emit NewGenerationEvent(newGen.index, newGen.numItems, newGen.startIndex, newGen.timestamp, newGen.generatorHash, newGen.generatorSeed, newGen.provenanceHash);\r\n    }\r\n\r\n    function preGeneration(uint256 paramGeneratorHash, uint64 numItems) public onlyOwner returns (uint256) {\r\n        preNumItems = numItems;\r\n        generatorHash = paramGeneratorHash;\r\n        uint256 randomSeed = uint(keccak256(abi.encodePacked(block.difficulty, block.timestamp, generatorHash)));\r\n        generatorSeed = randomSeed;\r\n        emit PreGenerationEvent(numItems, generatorHash, randomSeed);\r\n        return randomSeed;\r\n    }\r\n\r\n    function getGeneratorSeed() public view returns (uint256) {\r\n        return generatorSeed;\r\n    }\r\n\r\n    function packUints(uint256 one, uint256 two) private pure returns(uint256) {\r\n        uint256 packed = (one << 128) + two;\r\n        return packed;\r\n    }\r\n\r\n    function getCache(uint256 index) private view returns(uint256) {\r\n        uint256 key = packUints(_currentMappingVersion, index);\r\n        return cache[key];\r\n    }\r\n\r\n    function setCache(uint256 index, uint256 card) private {\r\n        uint256 key = packUints(_currentMappingVersion, index);\r\n        cache[key] = card;\r\n    }\r\n\r\n    function drawIndex() internal returns(uint256 adjustedIndex) {\r\n        //Random number\r\n        uint256 i = uint256(blockhash(block.number - 1)) % remaining;\r\n        // if there's a cache at cache[i] then use it, otherwise use i itself\r\n        uint256 foundCard = getCache(i);\r\n        uint256 index = foundCard == 0 ? i : foundCard;\r\n        adjustedIndex = index + genStartIndex;\r\n        // grab a number from the tail\r\n        uint256 tailCard = getCache(remaining - 1);\r\n        setCache(i, tailCard == 0 ? remaining - 1 : tailCard);\r\n        remaining = remaining - 1;\r\n    }\r\n\r\n}\r\n",
  "sourcePath": "C:\\Users\\16172\\code\\hardhat-tutorial\\contracts\\GenerationalRandomMintable.sol",
  "compiler": {
    "name": "solc",
    "version": "0.8.7+commit.e28d00a7.Emscripten.clang"
  },
  "schemaVersion": "3.4.3",
  "updatedAt": "2021-11-02T20:07:24.496Z",
  "devdoc": {
    "kind": "dev",
    "methods": {
      "owner()": {
        "details": "Returns the address of the current owner."
      },
      "renounceOwnership()": {
        "details": "Leaves the contract without owner. It will not be possible to call `onlyOwner` functions anymore. Can only be called by the current owner. NOTE: Renouncing ownership will leave the contract without an owner, thereby removing any functionality that is only available to the owner."
      },
      "transferOwnership(address)": {
        "details": "Transfers ownership of the contract to a new account (`newOwner`). Can only be called by the current owner."
      }
    },
    "version": 1
  },
  "userdoc": {
    "kind": "user",
    "methods": {},
    "version": 1
  }
}