{
  "contractName": "IdSpace",
  "abi": [
    {
      "anonymous": false,
      "inputs": [
        {
          "indexed": false,
          "internalType": "uint256",
          "name": "index",
          "type": "uint256"
        },
        {
          "indexed": false,
          "internalType": "uint256",
          "name": "numItems",
          "type": "uint256"
        },
        {
          "indexed": false,
          "internalType": "uint256",
          "name": "startIndex",
          "type": "uint256"
        },
        {
          "indexed": false,
          "internalType": "uint64",
          "name": "timestamp",
          "type": "uint64"
        },
        {
          "indexed": false,
          "internalType": "uint256",
          "name": "generatorHash",
          "type": "uint256"
        },
        {
          "indexed": false,
          "internalType": "uint256",
          "name": "generatorSeed",
          "type": "uint256"
        },
        {
          "indexed": false,
          "internalType": "uint256",
          "name": "provenanceHash",
          "type": "uint256"
        }
      ],
      "name": "NewGenerationEvent",
      "type": "event"
    },
    {
      "anonymous": false,
      "inputs": [
        {
          "indexed": true,
          "internalType": "address",
          "name": "previousOwner",
          "type": "address"
        },
        {
          "indexed": true,
          "internalType": "address",
          "name": "newOwner",
          "type": "address"
        }
      ],
      "name": "OwnershipTransferred",
      "type": "event"
    },
    {
      "anonymous": false,
      "inputs": [
        {
          "indexed": false,
          "internalType": "uint256",
          "name": "preNummItems",
          "type": "uint256"
        },
        {
          "indexed": false,
          "internalType": "uint256",
          "name": "preGeneratorHash",
          "type": "uint256"
        },
        {
          "indexed": false,
          "internalType": "uint256",
          "name": "preGeneratorSeed",
          "type": "uint256"
        }
      ],
      "name": "PreGenerationEvent",
      "type": "event"
    },
    {
      "inputs": [
        {
          "internalType": "uint256",
          "name": "",
          "type": "uint256"
        }
      ],
      "name": "_generationsArr",
      "outputs": [
        {
          "internalType": "uint64",
          "name": "index",
          "type": "uint64"
        },
        {
          "internalType": "uint64",
          "name": "numItems",
          "type": "uint64"
        },
        {
          "internalType": "uint64",
          "name": "startIndex",
          "type": "uint64"
        },
        {
          "internalType": "uint64",
          "name": "timestamp",
          "type": "uint64"
        },
        {
          "internalType": "uint256",
          "name": "generatorHash",
          "type": "uint256"
        },
        {
          "internalType": "uint256",
          "name": "generatorSeed",
          "type": "uint256"
        },
        {
          "internalType": "uint256",
          "name": "provenanceHash",
          "type": "uint256"
        }
      ],
      "stateMutability": "view",
      "type": "function"
    },
    {
      "inputs": [],
      "name": "genStartIndex",
      "outputs": [
        {
          "internalType": "uint256",
          "name": "",
          "type": "uint256"
        }
      ],
      "stateMutability": "view",
      "type": "function"
    },
    {
      "inputs": [],
      "name": "getCurrentGeneration",
      "outputs": [
        {
          "components": [
            {
              "internalType": "uint64",
              "name": "index",
              "type": "uint64"
            },
            {
              "internalType": "uint64",
              "name": "numItems",
              "type": "uint64"
            },
            {
              "internalType": "uint64",
              "name": "startIndex",
              "type": "uint64"
            },
            {
              "internalType": "uint64",
              "name": "timestamp",
              "type": "uint64"
            },
            {
              "internalType": "uint256",
              "name": "generatorHash",
              "type": "uint256"
            },
            {
              "internalType": "uint256",
              "name": "generatorSeed",
              "type": "uint256"
            },
            {
              "internalType": "uint256",
              "name": "provenanceHash",
              "type": "uint256"
            }
          ],
          "internalType": "struct GenerationalRandomMintable.Generation",
          "name": "",
          "type": "tuple"
        }
      ],
      "stateMutability": "view",
      "type": "function"
    },
    {
      "inputs": [],
      "name": "getGenerations",
      "outputs": [
        {
          "components": [
            {
              "internalType": "uint64",
              "name": "index",
              "type": "uint64"
            },
            {
              "internalType": "uint64",
              "name": "numItems",
              "type": "uint64"
            },
            {
              "internalType": "uint64",
              "name": "startIndex",
              "type": "uint64"
            },
            {
              "internalType": "uint64",
              "name": "timestamp",
              "type": "uint64"
            },
            {
              "internalType": "uint256",
              "name": "generatorHash",
              "type": "uint256"
            },
            {
              "internalType": "uint256",
              "name": "generatorSeed",
              "type": "uint256"
            },
            {
              "internalType": "uint256",
              "name": "provenanceHash",
              "type": "uint256"
            }
          ],
          "internalType": "struct GenerationalRandomMintable.Generation[]",
          "name": "",
          "type": "tuple[]"
        }
      ],
      "stateMutability": "view",
      "type": "function"
    },
    {
      "inputs": [],
      "name": "getGeneratorSeed",
      "outputs": [
        {
          "internalType": "uint256",
          "name": "",
          "type": "uint256"
        }
      ],
      "stateMutability": "view",
      "type": "function"
    },
    {
      "inputs": [
        {
          "internalType": "uint64",
          "name": "numItems",
          "type": "uint64"
        },
        {
          "internalType": "uint256",
          "name": "provenanceHash",
          "type": "uint256"
        }
      ],
      "name": "makeNewGeneration",
      "outputs": [],
      "stateMutability": "nonpayable",
      "type": "function"
    },
    {
      "inputs": [],
      "name": "owner",
      "outputs": [
        {
          "internalType": "address",
          "name": "",
          "type": "address"
        }
      ],
      "stateMutability": "view",
      "type": "function"
    },
    {
      "inputs": [
        {
          "internalType": "uint256",
          "name": "paramGeneratorHash",
          "type": "uint256"
        },
        {
          "internalType": "uint64",
          "name": "numItems",
          "type": "uint64"
        }
      ],
      "name": "preGeneration",
      "outputs": [
        {
          "internalType": "uint256",
          "name": "",
          "type": "uint256"
        }
      ],
      "stateMutability": "nonpayable",
      "type": "function"
    },
    {
      "inputs": [],
      "name": "remaining",
      "outputs": [
        {
          "internalType": "uint256",
          "name": "",
          "type": "uint256"
        }
      ],
      "stateMutability": "view",
      "type": "function"
    },
    {
      "inputs": [],
      "name": "renounceOwnership",
      "outputs": [],
      "stateMutability": "nonpayable",
      "type": "function"
    },
    {
      "inputs": [
        {
          "internalType": "address",
          "name": "newOwner",
          "type": "address"
        }
      ],
      "name": "transferOwnership",
      "outputs": [],
      "stateMutability": "nonpayable",
      "type": "function"
    }
  ],
  "bytecode": "0x60806040526001600060146101000a81548167ffffffffffffffff021916908367ffffffffffffffff16021790555034801561003a57600080fd5b5061005761004c61005c60201b60201c565b61006460201b60201c565b610128565b600033905090565b60008060009054906101000a900473ffffffffffffffffffffffffffffffffffffffff169050816000806101000a81548173ffffffffffffffffffffffffffffffffffffffff021916908373ffffffffffffffffffffffffffffffffffffffff1602179055508173ffffffffffffffffffffffffffffffffffffffff168173ffffffffffffffffffffffffffffffffffffffff167f8be0079c531659141344cd1fd0a4f28419497f9722a3daafe3b4186f6b6457e060405160405180910390a35050565b61160c806101376000396000f3fe608060405234801561001057600080fd5b50600436106100a95760003560e01c8063a760586b11610071578063a760586b14610148578063aaf65b6714610164578063b4113b2e14610194578063dc073f0c146101b2578063f2c13187146101d0578063f2fde38b146101ee576100a9565b806314ca6e54146100ae5780632f352c24146100cc57806355234ec014610102578063715018a6146101205780638da5cb5b1461012a575b600080fd5b6100b661020a565b6040516100c39190611198565b60405180910390f35b6100e660048036038101906100e19190610e4a565b61034f565b6040516100f997969594939291906112d6565b60405180910390f35b61010a6103f1565b6040516101179190611215565b60405180910390f35b6101286103f7565b005b61013261047f565b60405161013f919061117d565b60405180910390f35b610162600480360381019061015d9190610eb7565b6104a8565b005b61017e60048036038101906101799190610e77565b610944565b60405161018b9190611215565b60405180910390f35b61019c610a74565b6040516101a991906111fa565b60405180910390f35b6101ba610ba5565b6040516101c79190611215565b60405180910390f35b6101d8610baf565b6040516101e59190611215565b60405180910390f35b61020860048036038101906102039190610e1d565b610bb5565b005b60606009805480602002602001604051908101604052809291908181526020016000905b8282101561034657838290600052602060002090600402016040518060e00160405290816000820160009054906101000a900467ffffffffffffffff1667ffffffffffffffff1667ffffffffffffffff1681526020016000820160089054906101000a900467ffffffffffffffff1667ffffffffffffffff1667ffffffffffffffff1681526020016000820160109054906101000a900467ffffffffffffffff1667ffffffffffffffff1667ffffffffffffffff1681526020016000820160189054906101000a900467ffffffffffffffff1667ffffffffffffffff1667ffffffffffffffff16815260200160018201548152602001600282015481526020016003820154815250508152602001906001019061022e565b50505050905090565b6009818154811061035f57600080fd5b90600052602060002090600402016000915090508060000160009054906101000a900467ffffffffffffffff16908060000160089054906101000a900467ffffffffffffffff16908060000160109054906101000a900467ffffffffffffffff16908060000160189054906101000a900467ffffffffffffffff16908060010154908060020154908060030154905087565b60025481565b6103ff610cad565b73ffffffffffffffffffffffffffffffffffffffff1661041d61047f565b73ffffffffffffffffffffffffffffffffffffffff1614610473576040517f08c379a000000000000000000000000000000000000000000000000000000000815260040161046a906111da565b60405180910390fd5b61047d6000610cb5565b565b60008060009054906101000a900473ffffffffffffffffffffffffffffffffffffffff16905090565b6104b0610cad565b73ffffffffffffffffffffffffffffffffffffffff166104ce61047f565b73ffffffffffffffffffffffffffffffffffffffff1614610524576040517f08c379a000000000000000000000000000000000000000000000000000000000815260040161051b906111da565b60405180910390fd5b60006009805490509050610536610d79565b83816020019067ffffffffffffffff16908167ffffffffffffffff168152505060008211156106eb576000600960018461057091906113cd565b81548110610581576105806114e5565b5b90600052602060002090600402016040518060e00160405290816000820160009054906101000a900467ffffffffffffffff1667ffffffffffffffff1667ffffffffffffffff1681526020016000820160089054906101000a900467ffffffffffffffff1667ffffffffffffffff1667ffffffffffffffff1681526020016000820160109054906101000a900467ffffffffffffffff1667ffffffffffffffff1667ffffffffffffffff1681526020016000820160189054906101000a900467ffffffffffffffff1667ffffffffffffffff1667ffffffffffffffff1681526020016001820154815260200160028201548152602001600382015481525050905060018160000151610693919061138f565b826000019067ffffffffffffffff16908167ffffffffffffffff1681525050806020015181604001516106c6919061138f565b826040019067ffffffffffffffff16908167ffffffffffffffff168152505050610743565b6001816000019067ffffffffffffffff16908167ffffffffffffffff1681525050600060149054906101000a900467ffffffffffffffff16816040019067ffffffffffffffff16908167ffffffffffffffff16815250505b42816060019067ffffffffffffffff16908167ffffffffffffffff16815250506007548160800181815250506008548160a0018181525050828160c0018181525050600981908060018154018082558091505060019003906000526020600020906004020160009091909190915060008201518160000160006101000a81548167ffffffffffffffff021916908367ffffffffffffffff16021790555060208201518160000160086101000a81548167ffffffffffffffff021916908367ffffffffffffffff16021790555060408201518160000160106101000a81548167ffffffffffffffff021916908367ffffffffffffffff16021790555060608201518160000160186101000a81548167ffffffffffffffff021916908367ffffffffffffffff1602179055506080820151816001015560a0820151816002015560c082015181600301555050600460008154809291906108a090611463565b9190505550806040015167ffffffffffffffff166001819055508367ffffffffffffffff16600281905550806040015167ffffffffffffffff166003819055507e65b13163112d661526659950aa38753518000cb4cc9298cfef76a7a9d6daeb816000015182602001518360400151846060015185608001518660a001518760c001516040516109369796959493929190611267565b60405180910390a150505050565b600061094e610cad565b73ffffffffffffffffffffffffffffffffffffffff1661096c61047f565b73ffffffffffffffffffffffffffffffffffffffff16146109c2576040517f08c379a00000000000000000000000000000000000000000000000000000000081526004016109b9906111da565b60405180910390fd5b81600660006101000a81548167ffffffffffffffff021916908367ffffffffffffffff1602179055508260078190555060004442600754604051602001610a0b93929190611140565b6040516020818303038152906040528051906020012060001c9050806008819055507f71fe60a73d47ef8c29e4a80bfd3bb61b8ff6081ef98e1946e8e84e225bc1359c8360075483604051610a6293929190611230565b60405180910390a18091505092915050565b610a7c610d79565b60096001600980549050610a9091906113cd565b81548110610aa157610aa06114e5565b5b90600052602060002090600402016040518060e00160405290816000820160009054906101000a900467ffffffffffffffff1667ffffffffffffffff1667ffffffffffffffff1681526020016000820160089054906101000a900467ffffffffffffffff1667ffffffffffffffff1667ffffffffffffffff1681526020016000820160109054906101000a900467ffffffffffffffff1667ffffffffffffffff1667ffffffffffffffff1681526020016000820160189054906101000a900467ffffffffffffffff1667ffffffffffffffff1667ffffffffffffffff1681526020016001820154815260200160028201548152602001600382015481525050905090565b6000600854905090565b60035481565b610bbd610cad565b73ffffffffffffffffffffffffffffffffffffffff16610bdb61047f565b73ffffffffffffffffffffffffffffffffffffffff1614610c31576040517f08c379a0000000000000000000000000000000000000000000000000000000008152600401610c28906111da565b60405180910390fd5b600073ffffffffffffffffffffffffffffffffffffffff168173ffffffffffffffffffffffffffffffffffffffff161415610ca1576040517f08c379a0000000000000000000000000000000000000000000000000000000008152600401610c98906111ba565b60405180910390fd5b610caa81610cb5565b50565b600033905090565b60008060009054906101000a900473ffffffffffffffffffffffffffffffffffffffff169050816000806101000a81548173ffffffffffffffffffffffffffffffffffffffff021916908373ffffffffffffffffffffffffffffffffffffffff1602179055508173ffffffffffffffffffffffffffffffffffffffff168173ffffffffffffffffffffffffffffffffffffffff167f8be0079c531659141344cd1fd0a4f28419497f9722a3daafe3b4186f6b6457e060405160405180910390a35050565b6040518060e00160405280600067ffffffffffffffff168152602001600067ffffffffffffffff168152602001600067ffffffffffffffff168152602001600067ffffffffffffffff1681526020016000815260200160008152602001600081525090565b600081359050610ded81611591565b92915050565b600081359050610e02816115a8565b92915050565b600081359050610e17816115bf565b92915050565b600060208284031215610e3357610e32611514565b5b6000610e4184828501610dde565b91505092915050565b600060208284031215610e6057610e5f611514565b5b6000610e6e84828501610df3565b91505092915050565b60008060408385031215610e8e57610e8d611514565b5b6000610e9c85828601610df3565b9250506020610ead85828601610e08565b9150509250929050565b60008060408385031215610ece57610ecd611514565b5b6000610edc85828601610e08565b9250506020610eed85828601610df3565b9150509250929050565b6000610f038383610fc2565b60e08301905092915050565b610f1881611401565b82525050565b6000610f2982611355565b610f33818561136d565b9350610f3e83611345565b8060005b83811015610f6f578151610f568882610ef7565b9750610f6183611360565b925050600181019050610f42565b5085935050505092915050565b6000610f8960268361137e565b9150610f9482611519565b604082019050919050565b6000610fac60208361137e565b9150610fb782611568565b602082019050919050565b60e082016000820151610fd86000850182611122565b506020820151610feb6020850182611122565b506040820151610ffe6040850182611122565b5060608201516110116060850182611122565b50608082015161102460808501826110de565b5060a082015161103760a08501826110de565b5060c082015161104a60c08501826110de565b50505050565b60e0820160008201516110666000850182611122565b5060208201516110796020850182611122565b50604082015161108c6040850182611122565b50606082015161109f6060850182611122565b5060808201516110b260808501826110de565b5060a08201516110c560a08501826110de565b5060c08201516110d860c08501826110de565b50505050565b6110e781611433565b82525050565b6110f681611433565b82525050565b61110d61110882611433565b6114ac565b82525050565b61111c81611451565b82525050565b61112b8161143d565b82525050565b61113a8161143d565b82525050565b600061114c82866110fc565b60208201915061115c82856110fc565b60208201915061116c82846110fc565b602082019150819050949350505050565b60006020820190506111926000830184610f0f565b92915050565b600060208201905081810360008301526111b28184610f1e565b905092915050565b600060208201905081810360008301526111d381610f7c565b9050919050565b600060208201905081810360008301526111f381610f9f565b9050919050565b600060e08201905061120f6000830184611050565b92915050565b600060208201905061122a60008301846110ed565b92915050565b60006060820190506112456000830186611113565b61125260208301856110ed565b61125f60408301846110ed565b949350505050565b600060e08201905061127c600083018a611113565b6112896020830189611113565b6112966040830188611113565b6112a36060830187611131565b6112b060808301866110ed565b6112bd60a08301856110ed565b6112ca60c08301846110ed565b98975050505050505050565b600060e0820190506112eb600083018a611131565b6112f86020830189611131565b6113056040830188611131565b6113126060830187611131565b61131f60808301866110ed565b61132c60a08301856110ed565b61133960c08301846110ed565b98975050505050505050565b6000819050602082019050919050565b600081519050919050565b6000602082019050919050565b600082825260208201905092915050565b600082825260208201905092915050565b600061139a8261143d565b91506113a58361143d565b92508267ffffffffffffffff038211156113c2576113c16114b6565b5b828201905092915050565b60006113d882611433565b91506113e383611433565b9250828210156113f6576113f56114b6565b5b828203905092915050565b600061140c82611413565b9050919050565b600073ffffffffffffffffffffffffffffffffffffffff82169050919050565b6000819050919050565b600067ffffffffffffffff82169050919050565b600061145c8261143d565b9050919050565b600061146e82611433565b91507fffffffffffffffffffffffffffffffffffffffffffffffffffffffffffffffff8214156114a1576114a06114b6565b5b600182019050919050565b6000819050919050565b7f4e487b7100000000000000000000000000000000000000000000000000000000600052601160045260246000fd5b7f4e487b7100000000000000000000000000000000000000000000000000000000600052603260045260246000fd5b600080fd5b7f4f776e61626c653a206e6577206f776e657220697320746865207a65726f206160008201527f6464726573730000000000000000000000000000000000000000000000000000602082015250565b7f4f776e61626c653a2063616c6c6572206973206e6f7420746865206f776e6572600082015250565b61159a81611401565b81146115a557600080fd5b50565b6115b181611433565b81146115bc57600080fd5b50565b6115c88161143d565b81146115d357600080fd5b5056fea264697066735822122039c9f01edc4011914c0cac9ebc7ce60121111b596cb58b33d789caebcb8c499b64736f6c63430008070033",
  "immutableReferences": {},
  "source": "import \"./GenerationalRandomMintable.sol\";\r\n\r\ncontract IdSpace is GenerationalRandomMintable {\r\n\r\n//    uint256 idSpace;\r\n//\r\n//    constructor(uint256 privilege, uint256 startIndex, uint256 size, uint256 extra)\r\n//    {\r\n//        uint256 creationTime = block.timestamp;\r\n//        uint256 newIdSpace = uint256(extra);\r\n//        character |= creationTime<<128;\r\n//        character |= privilege<<160;\r\n//        character |= size<<192;\r\n//        character |= startIndex<<224;\r\n//       idSpace = newIdSspace;\r\n//    }\r\n}\r\n",
  "sourcePath": "C:\\Users\\16172\\code\\hardhat-tutorial\\contracts\\IdSpace.sol",
  "compiler": {
    "name": "solc",
    "version": "0.8.7+commit.e28d00a7.Emscripten.clang"
  },
  "schemaVersion": "3.4.3",
  "updatedAt": "2021-10-29T21:31:34.517Z",
  "devdoc": {
    "kind": "dev",
    "methods": {
      "owner()": {
        "details": "Returns the address of the current owner."
      },
      "renounceOwnership()": {
        "details": "Leaves the contract without owner. It will not be possible to call `onlyOwner` functions anymore. Can only be called by the current owner. NOTE: Renouncing ownership will leave the contract without an owner, thereby removing any functionality that is only available to the owner."
      },
      "transferOwnership(address)": {
        "details": "Transfers ownership of the contract to a new account (`newOwner`). Can only be called by the current owner."
      }
    },
    "version": 1
  },
  "userdoc": {
    "kind": "user",
    "methods": {},
    "version": 1
  }
}