{
  "contractName": "TheHug",
  "abi": [
    {
      "inputs": [
        {
          "internalType": "string",
          "name": "baseURI",
          "type": "string"
        },
        {
          "internalType": "uint256",
          "name": "initialPrice",
          "type": "uint256"
        }
      ],
      "stateMutability": "nonpayable",
      "type": "constructor"
    },
    {
      "anonymous": false,
      "inputs": [
        {
          "indexed": true,
          "internalType": "address",
          "name": "owner",
          "type": "address"
        },
        {
          "indexed": true,
          "internalType": "address",
          "name": "approved",
          "type": "address"
        },
        {
          "indexed": true,
          "internalType": "uint256",
          "name": "tokenId",
          "type": "uint256"
        }
      ],
      "name": "Approval",
      "type": "event"
    },
    {
      "anonymous": false,
      "inputs": [
        {
          "indexed": true,
          "internalType": "address",
          "name": "owner",
          "type": "address"
        },
        {
          "indexed": true,
          "internalType": "address",
          "name": "operator",
          "type": "address"
        },
        {
          "indexed": false,
          "internalType": "bool",
          "name": "approved",
          "type": "bool"
        }
      ],
      "name": "ApprovalForAll",
      "type": "event"
    },
    {
      "anonymous": false,
      "inputs": [
        {
          "indexed": false,
          "internalType": "string",
          "name": "baseUri",
          "type": "string"
        }
      ],
      "name": "ChangeBaseUriEvent",
      "type": "event"
    },
    {
      "anonymous": false,
      "inputs": [
        {
          "indexed": false,
          "internalType": "uint256",
          "name": "price",
          "type": "uint256"
        }
      ],
      "name": "ChangePriceEvent",
      "type": "event"
    },
    {
      "anonymous": false,
      "inputs": [
        {
          "indexed": false,
          "internalType": "address",
          "name": "to",
          "type": "address"
        },
        {
          "indexed": true,
          "internalType": "uint256",
          "name": "id",
          "type": "uint256"
        }
      ],
      "name": "MintEvent",
      "type": "event"
    },
    {
      "anonymous": false,
      "inputs": [
        {
          "indexed": false,
          "internalType": "uint256",
          "name": "index",
          "type": "uint256"
        },
        {
          "indexed": false,
          "internalType": "uint256",
          "name": "numItems",
          "type": "uint256"
        },
        {
          "indexed": false,
          "internalType": "uint256",
          "name": "startIndex",
          "type": "uint256"
        },
        {
          "indexed": false,
          "internalType": "uint256",
          "name": "timestamp",
          "type": "uint256"
        },
        {
          "indexed": false,
          "internalType": "uint256",
          "name": "generatorHash",
          "type": "uint256"
        },
        {
          "indexed": false,
          "internalType": "uint256",
          "name": "generatorSeed",
          "type": "uint256"
        },
        {
          "indexed": false,
          "internalType": "uint256",
          "name": "provenanceHash",
          "type": "uint256"
        }
      ],
      "name": "NewGenerationEvent",
      "type": "event"
    },
    {
      "anonymous": false,
      "inputs": [
        {
          "indexed": true,
          "internalType": "address",
          "name": "previousOwner",
          "type": "address"
        },
        {
          "indexed": true,
          "internalType": "address",
          "name": "newOwner",
          "type": "address"
        }
      ],
      "name": "OwnershipTransferred",
      "type": "event"
    },
    {
      "anonymous": false,
      "inputs": [
        {
          "indexed": false,
          "internalType": "address",
          "name": "account",
          "type": "address"
        }
      ],
      "name": "Paused",
      "type": "event"
    },
    {
      "anonymous": false,
      "inputs": [
        {
          "indexed": false,
          "internalType": "uint256",
          "name": "preNummItems",
          "type": "uint256"
        },
        {
          "indexed": false,
          "internalType": "uint256",
          "name": "preGeneratorHash",
          "type": "uint256"
        },
        {
          "indexed": false,
          "internalType": "uint256",
          "name": "preGeneratorSeed",
          "type": "uint256"
        }
      ],
      "name": "PreGenerationEvent",
      "type": "event"
    },
    {
      "anonymous": false,
      "inputs": [
        {
          "indexed": false,
          "internalType": "uint256",
          "name": "provenanceHash",
          "type": "uint256"
        },
        {
          "indexed": false,
          "internalType": "uint256",
          "name": "genIndex",
          "type": "uint256"
        }
      ],
      "name": "ProvenanceAmendmentEvent",
      "type": "event"
    },
    {
      "anonymous": false,
      "inputs": [
        {
          "indexed": false,
          "internalType": "address",
          "name": "to",
          "type": "address"
        },
        {
          "indexed": false,
          "internalType": "string",
          "name": "message",
          "type": "string"
        },
        {
          "indexed": false,
          "internalType": "uint256",
          "name": "tokenId",
          "type": "uint256"
        }
      ],
      "name": "SendCardEvent",
      "type": "event"
    },
    {
      "anonymous": false,
      "inputs": [
        {
          "indexed": true,
          "internalType": "address",
          "name": "from",
          "type": "address"
        },
        {
          "indexed": true,
          "internalType": "address",
          "name": "to",
          "type": "address"
        },
        {
          "indexed": true,
          "internalType": "uint256",
          "name": "tokenId",
          "type": "uint256"
        }
      ],
      "name": "Transfer",
      "type": "event"
    },
    {
      "anonymous": false,
      "inputs": [
        {
          "indexed": false,
          "internalType": "address",
          "name": "account",
          "type": "address"
        }
      ],
      "name": "Unpaused",
      "type": "event"
    },
    {
      "inputs": [
        {
          "internalType": "uint256",
          "name": "",
          "type": "uint256"
        }
      ],
      "name": "_generationsArr",
      "outputs": [
        {
          "internalType": "uint256",
          "name": "index",
          "type": "uint256"
        },
        {
          "internalType": "uint256",
          "name": "numItems",
          "type": "uint256"
        },
        {
          "internalType": "uint256",
          "name": "startIndex",
          "type": "uint256"
        },
        {
          "internalType": "uint256",
          "name": "timestamp",
          "type": "uint256"
        },
        {
          "internalType": "uint256",
          "name": "generatorHash",
          "type": "uint256"
        },
        {
          "internalType": "uint256",
          "name": "generatorSeed",
          "type": "uint256"
        },
        {
          "internalType": "uint256",
          "name": "provenanceHash",
          "type": "uint256"
        }
      ],
      "stateMutability": "view",
      "type": "function",
      "constant": true
    },
    {
      "inputs": [
        {
          "internalType": "uint256",
          "name": "",
          "type": "uint256"
        }
      ],
      "name": "_provenanceAmendArr",
      "outputs": [
        {
          "internalType": "uint256",
          "name": "genIndex",
          "type": "uint256"
        },
        {
          "internalType": "uint256",
          "name": "newProvenanceHash",
          "type": "uint256"
        }
      ],
      "stateMutability": "view",
      "type": "function",
      "constant": true
    },
    {
      "inputs": [
        {
          "internalType": "uint256",
          "name": "provenanceHash",
          "type": "uint256"
        },
        {
          "internalType": "uint256",
          "name": "genIndex",
          "type": "uint256"
        }
      ],
      "name": "amendProvenance",
      "outputs": [],
      "stateMutability": "nonpayable",
      "type": "function"
    },
    {
      "inputs": [
        {
          "internalType": "address",
          "name": "to",
          "type": "address"
        },
        {
          "internalType": "uint256",
          "name": "tokenId",
          "type": "uint256"
        }
      ],
      "name": "approve",
      "outputs": [],
      "stateMutability": "nonpayable",
      "type": "function"
    },
    {
      "inputs": [
        {
          "internalType": "address",
          "name": "owner",
          "type": "address"
        }
      ],
      "name": "balanceOf",
      "outputs": [
        {
          "internalType": "uint256",
          "name": "",
          "type": "uint256"
        }
      ],
      "stateMutability": "view",
      "type": "function",
      "constant": true
    },
    {
      "inputs": [
        {
          "internalType": "uint256",
          "name": "tokenId",
          "type": "uint256"
        }
      ],
      "name": "burn",
      "outputs": [],
      "stateMutability": "nonpayable",
      "type": "function"
    },
    {
      "inputs": [],
      "name": "genStartIndex",
      "outputs": [
        {
          "internalType": "uint256",
          "name": "",
          "type": "uint256"
        }
      ],
      "stateMutability": "view",
      "type": "function",
      "constant": true
    },
    {
      "inputs": [
        {
          "internalType": "uint256",
          "name": "tokenId",
          "type": "uint256"
        }
      ],
      "name": "getApproved",
      "outputs": [
        {
          "internalType": "address",
          "name": "",
          "type": "address"
        }
      ],
      "stateMutability": "view",
      "type": "function",
      "constant": true
    },
    {
      "inputs": [],
      "name": "getCurrentGeneration",
      "outputs": [
        {
          "components": [
            {
              "internalType": "uint256",
              "name": "index",
              "type": "uint256"
            },
            {
              "internalType": "uint256",
              "name": "numItems",
              "type": "uint256"
            },
            {
              "internalType": "uint256",
              "name": "startIndex",
              "type": "uint256"
            },
            {
              "internalType": "uint256",
              "name": "timestamp",
              "type": "uint256"
            },
            {
              "internalType": "uint256",
              "name": "generatorHash",
              "type": "uint256"
            },
            {
              "internalType": "uint256",
              "name": "generatorSeed",
              "type": "uint256"
            },
            {
              "internalType": "uint256",
              "name": "provenanceHash",
              "type": "uint256"
            }
          ],
          "internalType": "struct GenerationalGenerativeRandomDraw.Generation",
          "name": "",
          "type": "tuple"
        }
      ],
      "stateMutability": "view",
      "type": "function",
      "constant": true
    },
    {
      "inputs": [],
      "name": "getGeneratorSeed",
      "outputs": [
        {
          "internalType": "uint256",
          "name": "",
          "type": "uint256"
        }
      ],
      "stateMutability": "view",
      "type": "function",
      "constant": true
    },
    {
      "inputs": [],
      "name": "getProvenanceAmendment",
      "outputs": [
        {
          "components": [
            {
              "internalType": "uint256",
              "name": "genIndex",
              "type": "uint256"
            },
            {
              "internalType": "uint256",
              "name": "newProvenanceHash",
              "type": "uint256"
            }
          ],
          "internalType": "struct GenerationalGenerativeRandomDraw.ProvenanceAmendment",
          "name": "",
          "type": "tuple"
        }
      ],
      "stateMutability": "view",
      "type": "function",
      "constant": true
    },
    {
      "inputs": [
        {
          "internalType": "address",
          "name": "owner",
          "type": "address"
        },
        {
          "internalType": "address",
          "name": "operator",
          "type": "address"
        }
      ],
      "name": "isApprovedForAll",
      "outputs": [
        {
          "internalType": "bool",
          "name": "",
          "type": "bool"
        }
      ],
      "stateMutability": "view",
      "type": "function",
      "constant": true
    },
    {
      "inputs": [
        {
          "internalType": "uint64",
          "name": "numItems",
          "type": "uint64"
        },
        {
          "internalType": "uint256",
          "name": "provenanceHash",
          "type": "uint256"
        }
      ],
      "name": "makeNewGeneration",
      "outputs": [],
      "stateMutability": "nonpayable",
      "type": "function"
    },
    {
      "inputs": [
        {
          "internalType": "uint256",
          "name": "",
          "type": "uint256"
        }
      ],
      "name": "messages",
      "outputs": [
        {
          "internalType": "string",
          "name": "",
          "type": "string"
        }
      ],
      "stateMutability": "view",
      "type": "function",
      "constant": true
    },
    {
      "inputs": [],
      "name": "name",
      "outputs": [
        {
          "internalType": "string",
          "name": "",
          "type": "string"
        }
      ],
      "stateMutability": "view",
      "type": "function",
      "constant": true
    },
    {
      "inputs": [],
      "name": "owner",
      "outputs": [
        {
          "internalType": "address",
          "name": "",
          "type": "address"
        }
      ],
      "stateMutability": "view",
      "type": "function",
      "constant": true
    },
    {
      "inputs": [
        {
          "internalType": "uint256",
          "name": "tokenId",
          "type": "uint256"
        }
      ],
      "name": "ownerOf",
      "outputs": [
        {
          "internalType": "address",
          "name": "",
          "type": "address"
        }
      ],
      "stateMutability": "view",
      "type": "function",
      "constant": true
    },
    {
      "inputs": [],
      "name": "paused",
      "outputs": [
        {
          "internalType": "bool",
          "name": "",
          "type": "bool"
        }
      ],
      "stateMutability": "view",
      "type": "function",
      "constant": true
    },
    {
      "inputs": [
        {
          "internalType": "uint256",
          "name": "paramGeneratorHash",
          "type": "uint256"
        },
        {
          "internalType": "uint64",
          "name": "numItems",
          "type": "uint64"
        }
      ],
      "name": "preGeneration",
      "outputs": [
        {
          "internalType": "uint256",
          "name": "",
          "type": "uint256"
        }
      ],
      "stateMutability": "nonpayable",
      "type": "function"
    },
    {
      "inputs": [],
      "name": "promotionalMintIndex",
      "outputs": [
        {
          "internalType": "uint256",
          "name": "",
          "type": "uint256"
        }
      ],
      "stateMutability": "view",
      "type": "function",
      "constant": true
    },
    {
      "inputs": [],
      "name": "remaining",
      "outputs": [
        {
          "internalType": "uint256",
          "name": "",
          "type": "uint256"
        }
      ],
      "stateMutability": "view",
      "type": "function",
      "constant": true
    },
    {
      "inputs": [],
      "name": "renounceOwnership",
      "outputs": [],
      "stateMutability": "nonpayable",
      "type": "function"
    },
    {
      "inputs": [
        {
          "internalType": "address",
          "name": "from",
          "type": "address"
        },
        {
          "internalType": "address",
          "name": "to",
          "type": "address"
        },
        {
          "internalType": "uint256",
          "name": "tokenId",
          "type": "uint256"
        }
      ],
      "name": "safeTransferFrom",
      "outputs": [],
      "stateMutability": "nonpayable",
      "type": "function"
    },
    {
      "inputs": [
        {
          "internalType": "address",
          "name": "from",
          "type": "address"
        },
        {
          "internalType": "address",
          "name": "to",
          "type": "address"
        },
        {
          "internalType": "uint256",
          "name": "tokenId",
          "type": "uint256"
        },
        {
          "internalType": "bytes",
          "name": "_data",
          "type": "bytes"
        }
      ],
      "name": "safeTransferFrom",
      "outputs": [],
      "stateMutability": "nonpayable",
      "type": "function"
    },
    {
      "inputs": [
        {
          "internalType": "address",
          "name": "operator",
          "type": "address"
        },
        {
          "internalType": "bool",
          "name": "approved",
          "type": "bool"
        }
      ],
      "name": "setApprovalForAll",
      "outputs": [],
      "stateMutability": "nonpayable",
      "type": "function"
    },
    {
      "inputs": [],
      "name": "symbol",
      "outputs": [
        {
          "internalType": "string",
          "name": "",
          "type": "string"
        }
      ],
      "stateMutability": "view",
      "type": "function",
      "constant": true
    },
    {
      "inputs": [
        {
          "internalType": "uint256",
          "name": "index",
          "type": "uint256"
        }
      ],
      "name": "tokenByIndex",
      "outputs": [
        {
          "internalType": "uint256",
          "name": "",
          "type": "uint256"
        }
      ],
      "stateMutability": "view",
      "type": "function",
      "constant": true
    },
    {
      "inputs": [
        {
          "internalType": "address",
          "name": "owner",
          "type": "address"
        },
        {
          "internalType": "uint256",
          "name": "index",
          "type": "uint256"
        }
      ],
      "name": "tokenOfOwnerByIndex",
      "outputs": [
        {
          "internalType": "uint256",
          "name": "",
          "type": "uint256"
        }
      ],
      "stateMutability": "view",
      "type": "function",
      "constant": true
    },
    {
      "inputs": [
        {
          "internalType": "uint256",
          "name": "tokenId",
          "type": "uint256"
        }
      ],
      "name": "tokenURI",
      "outputs": [
        {
          "internalType": "string",
          "name": "",
          "type": "string"
        }
      ],
      "stateMutability": "view",
      "type": "function",
      "constant": true
    },
    {
      "inputs": [],
      "name": "totalSupply",
      "outputs": [
        {
          "internalType": "uint256",
          "name": "",
          "type": "uint256"
        }
      ],
      "stateMutability": "view",
      "type": "function",
      "constant": true
    },
    {
      "inputs": [
        {
          "internalType": "address",
          "name": "from",
          "type": "address"
        },
        {
          "internalType": "address",
          "name": "to",
          "type": "address"
        },
        {
          "internalType": "uint256",
          "name": "tokenId",
          "type": "uint256"
        }
      ],
      "name": "transferFrom",
      "outputs": [],
      "stateMutability": "nonpayable",
      "type": "function"
    },
    {
      "inputs": [
        {
          "internalType": "address",
          "name": "newOwner",
          "type": "address"
        }
      ],
      "name": "transferOwnership",
      "outputs": [],
      "stateMutability": "nonpayable",
      "type": "function"
    },
    {
      "inputs": [
        {
          "internalType": "uint256",
          "name": "_count",
          "type": "uint256"
        }
      ],
      "name": "mint",
      "outputs": [],
      "stateMutability": "payable",
      "type": "function",
      "payable": true
    },
    {
      "inputs": [
        {
          "internalType": "uint256",
          "name": "_count",
          "type": "uint256"
        }
      ],
      "name": "promotionalMint",
      "outputs": [],
      "stateMutability": "payable",
      "type": "function",
      "payable": true
    },
    {
      "inputs": [
        {
          "internalType": "string",
          "name": "baseURI",
          "type": "string"
        }
      ],
      "name": "setBaseURI",
      "outputs": [],
      "stateMutability": "nonpayable",
      "type": "function"
    },
    {
      "inputs": [
        {
          "internalType": "uint256",
          "name": "password",
          "type": "uint256"
        }
      ],
      "name": "CAUTION_PermanentlyLockBaseURI",
      "outputs": [],
      "stateMutability": "nonpayable",
      "type": "function"
    },
    {
      "inputs": [
        {
          "internalType": "uint256",
          "name": "_count",
          "type": "uint256"
        }
      ],
      "name": "price",
      "outputs": [
        {
          "internalType": "uint256",
          "name": "",
          "type": "uint256"
        }
      ],
      "stateMutability": "view",
      "type": "function",
      "constant": true
    },
    {
      "inputs": [
        {
          "internalType": "uint256",
          "name": "newPrice",
          "type": "uint256"
        }
      ],
      "name": "setPrice",
      "outputs": [],
      "stateMutability": "nonpayable",
      "type": "function"
    },
    {
      "inputs": [],
      "name": "maxMint",
      "outputs": [
        {
          "internalType": "uint256",
          "name": "",
          "type": "uint256"
        }
      ],
      "stateMutability": "view",
      "type": "function",
      "constant": true
    },
    {
      "inputs": [],
      "name": "maxSupply",
      "outputs": [
        {
          "internalType": "uint256",
          "name": "",
          "type": "uint256"
        }
      ],
      "stateMutability": "view",
      "type": "function",
      "constant": true
    },
    {
      "inputs": [
        {
          "internalType": "address",
          "name": "_owner",
          "type": "address"
        }
      ],
      "name": "getTokenIdsOfWallet",
      "outputs": [
        {
          "internalType": "uint256[]",
          "name": "",
          "type": "uint256[]"
        }
      ],
      "stateMutability": "view",
      "type": "function",
      "constant": true
    },
    {
      "inputs": [
        {
          "internalType": "bool",
          "name": "value",
          "type": "bool"
        }
      ],
      "name": "pause",
      "outputs": [],
      "stateMutability": "nonpayable",
      "type": "function"
    },
    {
      "inputs": [
        {
          "internalType": "bytes4",
          "name": "interfaceId",
          "type": "bytes4"
        }
      ],
      "name": "supportsInterface",
      "outputs": [
        {
          "internalType": "bool",
          "name": "",
          "type": "bool"
        }
      ],
      "stateMutability": "view",
      "type": "function",
      "constant": true
    },
    {
      "inputs": [
        {
          "internalType": "address",
          "name": "to",
          "type": "address"
        },
        {
          "internalType": "string",
          "name": "message",
          "type": "string"
        },
        {
          "internalType": "uint256",
          "name": "tokenId",
          "type": "uint256"
        }
      ],
      "name": "sendWithMessage",
      "outputs": [],
      "stateMutability": "nonpayable",
      "type": "function"
    },
    {
      "inputs": [
        {
          "internalType": "address",
          "name": "to",
          "type": "address"
        },
        {
          "internalType": "string",
          "name": "message",
          "type": "string"
        },
        {
          "internalType": "uint256",
          "name": "tokenId",
          "type": "uint256"
        }
      ],
      "name": "sendWithOnChainMessage",
      "outputs": [],
      "stateMutability": "nonpayable",
      "type": "function"
    },
    {
      "inputs": [
        {
          "internalType": "uint256",
          "name": "tokenId",
          "type": "uint256"
        },
        {
          "internalType": "string",
          "name": "message",
          "type": "string"
        }
      ],
      "name": "setMessage",
      "outputs": [],
      "stateMutability": "nonpayable",
      "type": "function"
    }
  ],
  "bytecode": "0x60806040526001600b60006101000a81548167ffffffffffffffff021916908367ffffffffffffffff1602179055506113886019556014601a556000601c60006101000a81548160ff021916908315150217905550612711601d553480156200006757600080fd5b50604051620066cd380380620066cd83398181016040528101906200008d9190620004fc565b6040518060400160405280600781526020017f54686520487567000000000000000000000000000000000000000000000000008152506040518060400160405280600281526020017f584f000000000000000000000000000000000000000000000000000000000000815250816000908051906020019062000111929190620003b7565b5080600190805190602001906200012a929190620003b7565b5050506200014d620001416200018860201b60201c565b6200019060201b60201c565b6000601660006101000a81548160ff02191690831515021790555062000179826200025660201b60201c565b8060188190555050506200086f565b600033905090565b6000600660009054906101000a900473ffffffffffffffffffffffffffffffffffffffff16905081600660006101000a81548173ffffffffffffffffffffffffffffffffffffffff021916908373ffffffffffffffffffffffffffffffffffffffff1602179055508173ffffffffffffffffffffffffffffffffffffffff168173ffffffffffffffffffffffffffffffffffffffff167f8be0079c531659141344cd1fd0a4f28419497f9722a3daafe3b4186f6b6457e060405160405180910390a35050565b620002666200018860201b60201c565b73ffffffffffffffffffffffffffffffffffffffff166200028c6200038d60201b60201c565b73ffffffffffffffffffffffffffffffffffffffff1614620002e5576040517f08c379a0000000000000000000000000000000000000000000000000000000008152600401620002dc9062000637565b60405180910390fd5b601c60009054906101000a900460ff161562000338576040517f08c379a00000000000000000000000000000000000000000000000000000000081526004016200032f9062000615565b60405180910390fd5b80601b908051906020019062000350929190620003b7565b507fe90784cd3d178b1e715fd49bba7b15c0a6daa1d7034abbe13e6d2760af81b25681604051620003829190620005f1565b60405180910390a150565b6000600660009054906101000a900473ffffffffffffffffffffffffffffffffffffffff16905090565b828054620003c59062000714565b90600052602060002090601f016020900481019282620003e9576000855562000435565b82601f106200040457805160ff191683800117855562000435565b8280016001018555821562000435579182015b828111156200043457825182559160200191906001019062000417565b5b50905062000444919062000448565b5090565b5b808211156200046357600081600090555060010162000449565b5090565b60006200047e620004788462000682565b62000659565b9050828152602081018484840111156200049d576200049c620007e3565b5b620004aa848285620006de565b509392505050565b600082601f830112620004ca57620004c9620007de565b5b8151620004dc84826020860162000467565b91505092915050565b600081519050620004f68162000855565b92915050565b60008060408385031215620005165762000515620007ed565b5b600083015167ffffffffffffffff811115620005375762000536620007e8565b5b6200054585828601620004b2565b92505060206200055885828601620004e5565b9150509250929050565b60006200056f82620006b8565b6200057b8185620006c3565b93506200058d818560208601620006de565b6200059881620007f2565b840191505092915050565b6000620005b2601283620006c3565b9150620005bf8262000803565b602082019050919050565b6000620005d9602083620006c3565b9150620005e6826200082c565b602082019050919050565b600060208201905081810360008301526200060d818462000562565b905092915050565b600060208201905081810360008301526200063081620005a3565b9050919050565b600060208201905081810360008301526200065281620005ca565b9050919050565b60006200066562000678565b90506200067382826200074a565b919050565b6000604051905090565b600067ffffffffffffffff821115620006a0576200069f620007af565b5b620006ab82620007f2565b9050602081019050919050565b600081519050919050565b600082825260208201905092915050565b6000819050919050565b60005b83811015620006fe578082015181840152602081019050620006e1565b838111156200070e576000848401525b50505050565b600060028204905060018216806200072d57607f821691505b6020821081141562000744576200074362000780565b5b50919050565b6200075582620007f2565b810181811067ffffffffffffffff82111715620007775762000776620007af565b5b80604052505050565b7f4e487b7100000000000000000000000000000000000000000000000000000000600052602260045260246000fd5b7f4e487b7100000000000000000000000000000000000000000000000000000000600052604160045260246000fd5b600080fd5b600080fd5b600080fd5b600080fd5b6000601f19601f8301169050919050565b7f42617365555249206973206c6f636b6564210000000000000000000000000000600082015250565b7f4f776e61626c653a2063616c6c6572206973206e6f7420746865206f776e6572600082015250565b6200086081620006d4565b81146200086c57600080fd5b50565b615e4e806200087f6000396000f3fe60806040526004361061027d5760003560e01c806370a082311161014f578063aaf65b67116100c1578063dc073f0c1161007a578063dc073f0c146109c9578063e8b78dcc146109f4578063e985e9c514610a1f578063eef6250814610a5c578063f2c1318714610a99578063f2fde38b14610ac45761027d565b8063aaf65b6714610892578063b4113b2e146108cf578063b88d4fde146108fa578063c0722bde14610923578063c87b56dd14610961578063d5abeb011461099e5761027d565b806391b7f5ed1161011357806391b7f5ed146107a55780639481a3c2146107ce57806395d89b41146107f9578063a0712d6814610824578063a22cb46514610840578063a760586b146108695761027d565b806370a08231146106d2578063715018a61461070f5780637501f741146107265780638a6d72ad146107515780638da5cb5b1461077a5761027d565b80632af1d450116101f35780634f6ccce7116101ac5780634f6ccce7146105b057806355234ec0146105ed57806355f804b3146106185780635c975abb146106415780636352211e1461066c578063648345c8146106a95761027d565b80632af1d4501461048c5780632f352c24146104b55780632f726701146104f85780632f745c591461052157806342842e0e1461055e57806342966c68146105875761027d565b80630d80fefd116102455780630d80fefd1461037957806318160ddd146103b657806321173391146103e157806323b872dd146103fd57806323be093d1461042657806326a49e371461044f5761027d565b806301ffc9a71461028257806302329a29146102bf57806306fdde03146102e8578063081812fc14610313578063095ea7b314610350575b600080fd5b34801561028e57600080fd5b506102a960048036038101906102a4919061426e565b610aed565b6040516102b69190614bf7565b60405180910390f35b3480156102cb57600080fd5b506102e660048036038101906102e19190614241565b610aff565b005b3480156102f457600080fd5b506102fd610ba1565b60405161030a9190614c12565b60405180910390f35b34801561031f57600080fd5b5061033a60048036038101906103359190614311565b610c33565b6040516103479190614b30565b60405180910390f35b34801561035c57600080fd5b5061037760048036038101906103729190614201565b610cb8565b005b34801561038557600080fd5b506103a0600480360381019061039b9190614311565b610dd0565b6040516103ad9190614c12565b60405180910390f35b3480156103c257600080fd5b506103cb610e70565b6040516103d8919061504a565b60405180910390f35b6103fb60048036038101906103f69190614311565b610e7d565b005b34801561040957600080fd5b50610424600480360381019061041f919061407c565b611088565b005b34801561043257600080fd5b5061044d6004803603810190610448919061439a565b6110e8565b005b34801561045b57600080fd5b5061047660048036038101906104719190614311565b6111fd565b604051610483919061504a565b60405180910390f35b34801561049857600080fd5b506104b360048036038101906104ae9190614192565b61121b565b005b3480156104c157600080fd5b506104dc60048036038101906104d79190614311565b6112de565b6040516104ef979695949392919061508e565b60405180910390f35b34801561050457600080fd5b5061051f600480360381019061051a9190614192565b611330565b005b34801561052d57600080fd5b5061054860048036038101906105439190614201565b6113cb565b604051610555919061504a565b60405180910390f35b34801561056a57600080fd5b506105856004803603810190610580919061407c565b611470565b005b34801561059357600080fd5b506105ae60048036038101906105a99190614311565b611490565b005b3480156105bc57600080fd5b506105d760048036038101906105d29190614311565b6114ec565b6040516105e4919061504a565b60405180910390f35b3480156105f957600080fd5b5061060261155d565b60405161060f919061504a565b60405180910390f35b34801561062457600080fd5b5061063f600480360381019061063a91906142c8565b611563565b005b34801561064d57600080fd5b50610656611680565b6040516106639190614bf7565b60405180910390f35b34801561067857600080fd5b50610693600480360381019061068e9190614311565b611697565b6040516106a09190614b30565b60405180910390f35b3480156106b557600080fd5b506106d060048036038101906106cb919061433e565b611749565b005b3480156106de57600080fd5b506106f960048036038101906106f4919061400f565b6117c5565b604051610706919061504a565b60405180910390f35b34801561071b57600080fd5b5061072461187d565b005b34801561073257600080fd5b5061073b611905565b604051610748919061504a565b60405180910390f35b34801561075d57600080fd5b5061077860048036038101906107739190614311565b61190f565b005b34801561078657600080fd5b5061078f6119b4565b60405161079c9190614b30565b60405180910390f35b3480156107b157600080fd5b506107cc60048036038101906107c79190614311565b6119de565b005b3480156107da57600080fd5b506107e3611a9b565b6040516107f0919061504a565b60405180910390f35b34801561080557600080fd5b5061080e611aa1565b60405161081b9190614c12565b60405180910390f35b61083e60048036038101906108399190614311565b611b33565b005b34801561084c57600080fd5b5061086760048036038101906108629190614152565b611cdb565b005b34801561087557600080fd5b50610890600480360381019061088b919061441a565b611e5c565b005b34801561089e57600080fd5b506108b960048036038101906108b491906143da565b61214b565b6040516108c6919061504a565b60405180910390f35b3480156108db57600080fd5b506108e461227b565b6040516108f19190615014565b60405180910390f35b34801561090657600080fd5b50610921600480360381019061091c91906140cf565b61230c565b005b34801561092f57600080fd5b5061094a60048036038101906109459190614311565b61236e565b604051610958929190615065565b60405180910390f35b34801561096d57600080fd5b5061098860048036038101906109839190614311565b6123a2565b6040516109959190614c12565b60405180910390f35b3480156109aa57600080fd5b506109b3612449565b6040516109c0919061504a565b60405180910390f35b3480156109d557600080fd5b506109de612453565b6040516109eb919061504a565b60405180910390f35b348015610a0057600080fd5b50610a0961245d565b604051610a16919061502f565b60405180910390f35b348015610a2b57600080fd5b50610a466004803603810190610a41919061403c565b6124bc565b604051610a539190614bf7565b60405180910390f35b348015610a6857600080fd5b50610a836004803603810190610a7e919061400f565b612550565b604051610a909190614bd5565b60405180910390f35b348015610aa557600080fd5b50610aae6125fe565b604051610abb919061504a565b60405180910390f35b348015610ad057600080fd5b50610aeb6004803603810190610ae6919061400f565b612604565b005b6000610af8826126fc565b9050919050565b610b07612776565b73ffffffffffffffffffffffffffffffffffffffff16610b256119b4565b73ffffffffffffffffffffffffffffffffffffffff1614610b7b576040517f08c379a0000000000000000000000000000000000000000000000000000000008152600401610b7290614ef4565b60405180910390fd5b600115158115151415610b9557610b9061277e565b610b9e565b610b9d612821565b5b50565b606060008054610bb090615428565b80601f0160208091040260200160405190810160405280929190818152602001828054610bdc90615428565b8015610c295780601f10610bfe57610100808354040283529160200191610c29565b820191906000526020600020905b815481529060010190602001808311610c0c57829003601f168201915b5050505050905090565b6000610c3e826128c3565b610c7d576040517f08c379a0000000000000000000000000000000000000000000000000000000008152600401610c7490614ed4565b60405180910390fd5b6004600083815260200190815260200160002060009054906101000a900473ffffffffffffffffffffffffffffffffffffffff169050919050565b6000610cc382611697565b90508073ffffffffffffffffffffffffffffffffffffffff168373ffffffffffffffffffffffffffffffffffffffff161415610d34576040517f08c379a0000000000000000000000000000000000000000000000000000000008152600401610d2b90614f74565b60405180910390fd5b8073ffffffffffffffffffffffffffffffffffffffff16610d53612776565b73ffffffffffffffffffffffffffffffffffffffff161480610d825750610d8181610d7c612776565b6124bc565b5b610dc1576040517f08c379a0000000000000000000000000000000000000000000000000000000008152600401610db890614e14565b60405180910390fd5b610dcb838361292f565b505050565b601e6020528060005260406000206000915090508054610def90615428565b80601f0160208091040260200160405190810160405280929190818152602001828054610e1b90615428565b8015610e685780601f10610e3d57610100808354040283529160200191610e68565b820191906000526020600020905b815481529060010190602001808311610e4b57829003601f168201915b505050505081565b6000600980549050905090565b610e85612776565b73ffffffffffffffffffffffffffffffffffffffff16610ea36119b4565b73ffffffffffffffffffffffffffffffffffffffff1614610ef9576040517f08c379a0000000000000000000000000000000000000000000000000000000008152600401610ef090614ef4565b60405180910390fd5b601954610f046129e8565b1115610f45576040517f08c379a0000000000000000000000000000000000000000000000000000000008152600401610f3c90614f54565b60405180910390fd5b610f4d6119b4565b73ffffffffffffffffffffffffffffffffffffffff16610f6b612776565b73ffffffffffffffffffffffffffffffffffffffff1614610fcf57610f8e611680565b15610fce576040517f08c379a0000000000000000000000000000000000000000000000000000000008152600401610fc590614c74565b60405180910390fd5b5b610fd8816129f9565b612af8816001601d54610feb9190615318565b610ff59190615237565b1115611036576040517f08c379a000000000000000000000000000000000000000000000000000000000815260040161102d90614cb4565b60405180910390fd5b60005b8181101561106b576110583382601d546110539190615237565b612a9d565b80806110639061548b565b915050611039565b5080601d600082825461107e9190615237565b9250508190555050565b611099611093612776565b82612aed565b6110d8576040517f08c379a00000000000000000000000000000000000000000000000000000000081526004016110cf90614f94565b60405180910390fd5b6110e3838383612bcb565b505050565b6110f0612776565b73ffffffffffffffffffffffffffffffffffffffff1661110e6119b4565b73ffffffffffffffffffffffffffffffffffffffff1614611164576040517f08c379a000000000000000000000000000000000000000000000000000000000815260040161115b90614ef4565b60405180910390fd5b600060405180604001604052808381526020018481525090506015819080600181540180825580915050600190039060005260206000209060020201600090919091909150600082015181600001556020820151816001015550507fb783fdedbaa7ddbc93d51a6b252d19a5f3b5d9f759fc1784847f404ee9a31d1783836040516111f0929190615065565b60405180910390a1505050565b600061121482601854612e2790919063ffffffff16565b9050919050565b61122c611226612776565b82612aed565b61126b576040517f08c379a000000000000000000000000000000000000000000000000000000000815260040161126290614c94565b60405180910390fd5b611276338483611470565b81601e6000838152602001908152602001600020908051906020019061129d929190613db7565b507f5af24163427298977193420c0c6ee669669fd183ee2a00b836982776e1fba7848383836040516112d193929190614b97565b60405180910390a1505050565b601481815481106112ee57600080fd5b90600052602060002090600702016000915090508060000154908060010154908060020154908060030154908060040154908060050154908060060154905087565b61134161133b612776565b82612aed565b611380576040517f08c379a000000000000000000000000000000000000000000000000000000000815260040161137790614c94565b60405180910390fd5b61138b338483611470565b7f5af24163427298977193420c0c6ee669669fd183ee2a00b836982776e1fba7848383836040516113be93929190614b97565b60405180910390a1505050565b60006113d6836117c5565b8210611417576040517f08c379a000000000000000000000000000000000000000000000000000000000815260040161140e90614cd4565b60405180910390fd5b600760008473ffffffffffffffffffffffffffffffffffffffff1673ffffffffffffffffffffffffffffffffffffffff168152602001908152602001600020600083815260200190815260200160002054905092915050565b61148b8383836040518060200160405280600081525061230c565b505050565b6114a161149b612776565b82612aed565b6114e0576040517f08c379a00000000000000000000000000000000000000000000000000000000081526004016114d790614ff4565b60405180910390fd5b6114e981612e3d565b50565b60006114f6610e70565b8210611537576040517f08c379a000000000000000000000000000000000000000000000000000000000815260040161152e90614fb4565b60405180910390fd5b6009828154811061154b5761154a6155cb565b5b90600052602060002001549050919050565b600d5481565b61156b612776565b73ffffffffffffffffffffffffffffffffffffffff166115896119b4565b73ffffffffffffffffffffffffffffffffffffffff16146115df576040517f08c379a00000000000000000000000000000000000000000000000000000000081526004016115d690614ef4565b60405180910390fd5b601c60009054906101000a900460ff161561162f576040517f08c379a000000000000000000000000000000000000000000000000000000000815260040161162690614df4565b60405180910390fd5b80601b9080519060200190611645929190613db7565b507fe90784cd3d178b1e715fd49bba7b15c0a6daa1d7034abbe13e6d2760af81b256816040516116759190614c12565b60405180910390a150565b6000601660009054906101000a900460ff16905090565b6000806002600084815260200190815260200160002060009054906101000a900473ffffffffffffffffffffffffffffffffffffffff169050600073ffffffffffffffffffffffffffffffffffffffff168173ffffffffffffffffffffffffffffffffffffffff161415611740576040517f08c379a000000000000000000000000000000000000000000000000000000000815260040161173790614e54565b60405180910390fd5b80915050919050565b61175a611754612776565b83612aed565b611799576040517f08c379a000000000000000000000000000000000000000000000000000000000815260040161179090614c94565b60405180910390fd5b80601e600084815260200190815260200160002090805190602001906117c0929190613db7565b505050565b60008073ffffffffffffffffffffffffffffffffffffffff168273ffffffffffffffffffffffffffffffffffffffff161415611836576040517f08c379a000000000000000000000000000000000000000000000000000000000815260040161182d90614e34565b60405180910390fd5b600360008373ffffffffffffffffffffffffffffffffffffffff1673ffffffffffffffffffffffffffffffffffffffff168152602001908152602001600020549050919050565b611885612776565b73ffffffffffffffffffffffffffffffffffffffff166118a36119b4565b73ffffffffffffffffffffffffffffffffffffffff16146118f9576040517f08c379a00000000000000000000000000000000000000000000000000000000081526004016118f090614ef4565b60405180910390fd5b6119036000612f4e565b565b6000601a54905090565b611917612776565b73ffffffffffffffffffffffffffffffffffffffff166119356119b4565b73ffffffffffffffffffffffffffffffffffffffff161461198b576040517f08c379a000000000000000000000000000000000000000000000000000000000815260040161198290614ef4565b60405180910390fd5b61d4318114156119b1576001601c60006101000a81548160ff0219169083151502179055505b50565b6000600660009054906101000a900473ffffffffffffffffffffffffffffffffffffffff16905090565b6119e6612776565b73ffffffffffffffffffffffffffffffffffffffff16611a046119b4565b73ffffffffffffffffffffffffffffffffffffffff1614611a5a576040517f08c379a0000000000000000000000000000000000000000000000000000000008152600401611a5190614ef4565b60405180910390fd5b806018819055507f6bf79053acd4a6bb1911b02099ac273228b3bbf917411bc159d6cb7846fcfcf781604051611a90919061504a565b60405180910390a150565b601d5481565b606060018054611ab090615428565b80601f0160208091040260200160405190810160405280929190818152602001828054611adc90615428565b8015611b295780601f10611afe57610100808354040283529160200191611b29565b820191906000526020600020905b815481529060010190602001808311611b0c57829003601f168201915b5050505050905090565b601954611b3e6129e8565b1115611b7f576040517f08c379a0000000000000000000000000000000000000000000000000000000008152600401611b7690614f54565b60405180910390fd5b611b876119b4565b73ffffffffffffffffffffffffffffffffffffffff16611ba5612776565b73ffffffffffffffffffffffffffffffffffffffff1614611c0957611bc8611680565b15611c08576040517f08c379a0000000000000000000000000000000000000000000000000000000008152600401611bff90614c74565b60405180910390fd5b5b611c12816129f9565b601a54811115611c57576040517f08c379a0000000000000000000000000000000000000000000000000000000008152600401611c4e90614d14565b60405180910390fd5b611c60816111fd565b341015611ca2576040517f08c379a0000000000000000000000000000000000000000000000000000000008152600401611c9990614fd4565b60405180910390fd5b60005b81811015611cd7576000611cb7613014565b9050611cc33382612a9d565b508080611ccf9061548b565b915050611ca5565b5050565b611ce3612776565b73ffffffffffffffffffffffffffffffffffffffff168273ffffffffffffffffffffffffffffffffffffffff161415611d51576040517f08c379a0000000000000000000000000000000000000000000000000000000008152600401611d4890614d94565b60405180910390fd5b8060056000611d5e612776565b73ffffffffffffffffffffffffffffffffffffffff1673ffffffffffffffffffffffffffffffffffffffff16815260200190815260200160002060008473ffffffffffffffffffffffffffffffffffffffff1673ffffffffffffffffffffffffffffffffffffffff16815260200190815260200160002060006101000a81548160ff0219169083151502179055508173ffffffffffffffffffffffffffffffffffffffff16611e0b612776565b73ffffffffffffffffffffffffffffffffffffffff167f17307eab39ab6107e8899845ad3d59bd9653f200f220920489ca2b5937696c3183604051611e509190614bf7565b60405180910390a35050565b611e64612776565b73ffffffffffffffffffffffffffffffffffffffff16611e826119b4565b73ffffffffffffffffffffffffffffffffffffffff1614611ed8576040517f08c379a0000000000000000000000000000000000000000000000000000000008152600401611ecf90614ef4565b60405180910390fd5b60006014805490509050611eea613e3d565b8367ffffffffffffffff168160200181815250506000821115611fc75760006014600184611f189190615318565b81548110611f2957611f286155cb565b5b90600052602060002090600702016040518060e0016040529081600082015481526020016001820154815260200160028201548152602001600382015481526020016004820154815260200160058201548152602001600682015481525050905060018160000151611f9b9190615237565b82600001818152505080602001518160400151611fb89190615237565b82604001818152505050611ffd565b6001816000018181525050600b60009054906101000a900467ffffffffffffffff1667ffffffffffffffff168160400181815250505b4267ffffffffffffffff168160600181815250506012548160800181815250506013548160a0018181525050828160c00181815250506014819080600181540180825580915050600190039060005260206000209060070201600090919091909150600082015181600001556020820151816001015560408201518160020155606082015181600301556080820151816004015560a0820151816005015560c082015181600601555050600f60008154809291906120ba9061548b565b91905055508060400151600c819055508367ffffffffffffffff16600d819055508060400151600e819055507f85757be328172e8ed54342a9f7adc9f483aae06f2bf8fbe6fc27618bc9b73db1816000015182602001518360400151846060015185608001518660a001518760c0015160405161213d979695949392919061508e565b60405180910390a150505050565b6000612155612776565b73ffffffffffffffffffffffffffffffffffffffff166121736119b4565b73ffffffffffffffffffffffffffffffffffffffff16146121c9576040517f08c379a00000000000000000000000000000000000000000000000000000000081526004016121c090614ef4565b60405180910390fd5b81601160006101000a81548167ffffffffffffffff021916908367ffffffffffffffff160217905550826012819055506000444260125460405160200161221293929190614af3565b6040516020818303038152906040528051906020012060001c9050806013819055507f71fe60a73d47ef8c29e4a80bfd3bb61b8ff6081ef98e1946e8e84e225bc1359c8360125483604051612269939291906150fd565b60405180910390a18091505092915050565b612283613e3d565b601460016014805490506122979190615318565b815481106122a8576122a76155cb565b5b90600052602060002090600702016040518060e0016040529081600082015481526020016001820154815260200160028201548152602001600382015481526020016004820154815260200160058201548152602001600682015481525050905090565b61231d612317612776565b83612aed565b61235c576040517f08c379a000000000000000000000000000000000000000000000000000000000815260040161235390614f94565b60405180910390fd5b612368848484846130c5565b50505050565b6015818154811061237e57600080fd5b90600052602060002090600202016000915090508060000154908060010154905082565b60606123ad826128c3565b6123ec576040517f08c379a00000000000000000000000000000000000000000000000000000000081526004016123e390614f34565b60405180910390fd5b60006123f6613121565b905060008151116124165760405180602001604052806000815250612441565b80612420846131b3565b604051602001612431929190614acf565b6040516020818303038152906040525b915050919050565b6000601954905090565b6000601354905090565b612465613e7a565b601560016015805490506124799190615318565b8154811061248a576124896155cb565b5b906000526020600020906002020160405180604001604052908160008201548152602001600182015481525050905090565b6000600560008473ffffffffffffffffffffffffffffffffffffffff1673ffffffffffffffffffffffffffffffffffffffff16815260200190815260200160002060008373ffffffffffffffffffffffffffffffffffffffff1673ffffffffffffffffffffffffffffffffffffffff16815260200190815260200160002060009054906101000a900460ff16905092915050565b6060600061255d836117c5565b905060008167ffffffffffffffff81111561257b5761257a6155fa565b5b6040519080825280602002602001820160405280156125a95781602001602082028036833780820191505090505b50905060005b828110156125f3576125c185826113cb565b8282815181106125d4576125d36155cb565b5b60200260200101818152505080806125eb9061548b565b9150506125af565b508092505050919050565b600e5481565b61260c612776565b73ffffffffffffffffffffffffffffffffffffffff1661262a6119b4565b73ffffffffffffffffffffffffffffffffffffffff1614612680576040517f08c379a000000000000000000000000000000000000000000000000000000000815260040161267790614ef4565b60405180910390fd5b600073ffffffffffffffffffffffffffffffffffffffff168173ffffffffffffffffffffffffffffffffffffffff1614156126f0576040517f08c379a00000000000000000000000000000000000000000000000000000000081526004016126e790614d34565b60405180910390fd5b6126f981612f4e565b50565b60007f780e9d63000000000000000000000000000000000000000000000000000000007bffffffffffffffffffffffffffffffffffffffffffffffffffffffff1916827bffffffffffffffffffffffffffffffffffffffffffffffffffffffff1916148061276f575061276e82613314565b5b9050919050565b600033905090565b612786611680565b156127c6576040517f08c379a00000000000000000000000000000000000000000000000000000000081526004016127bd90614dd4565b60405180910390fd5b6001601660006101000a81548160ff0219169083151502179055507f62e78cea01bee320cd4e420270b5ea74000d11b0c9f74754ebdbfc544b05a25861280a612776565b6040516128179190614b30565b60405180910390a1565b612829611680565b612868576040517f08c379a000000000000000000000000000000000000000000000000000000000815260040161285f90614c54565b60405180910390fd5b6000601660006101000a81548160ff0219169083151502179055507f5db9ee0a495bf2e6ff9c91a7834c1ba4fdd244a5e8aa4e537bd38aeae4b073aa6128ac612776565b6040516128b99190614b30565b60405180910390a1565b60008073ffffffffffffffffffffffffffffffffffffffff166002600084815260200190815260200160002060009054906101000a900473ffffffffffffffffffffffffffffffffffffffff1673ffffffffffffffffffffffffffffffffffffffff1614159050919050565b816004600083815260200190815260200160002060006101000a81548173ffffffffffffffffffffffffffffffffffffffff021916908373ffffffffffffffffffffffffffffffffffffffff160217905550808273ffffffffffffffffffffffffffffffffffffffff166129a283611697565b73ffffffffffffffffffffffffffffffffffffffff167f8c5be1e5ebec7d5bd14f71427d1e84f3dd0314c0f7b2291e5b200ac8c7c3b92560405160405180910390a45050565b60006129f460176133f6565b905090565b6000612a036129e8565b90506019548110612a49576040517f08c379a0000000000000000000000000000000000000000000000000000000008152600401612a4090614e74565b60405180910390fd5b6019548282612a589190615237565b1115612a99576040517f08c379a0000000000000000000000000000000000000000000000000000000008152600401612a9090614e94565b60405180910390fd5b5050565b612aa78282613404565b612ab16017613422565b807f3fffaa5804a26fcec0d70b1d0fb0a2d0031df3a5f9c8af2127c2f4360e97b46383604051612ae19190614b30565b60405180910390a25050565b6000612af8826128c3565b612b37576040517f08c379a0000000000000000000000000000000000000000000000000000000008152600401612b2e90614db4565b60405180910390fd5b6000612b4283611697565b90508073ffffffffffffffffffffffffffffffffffffffff168473ffffffffffffffffffffffffffffffffffffffff161480612bb157508373ffffffffffffffffffffffffffffffffffffffff16612b9984610c33565b73ffffffffffffffffffffffffffffffffffffffff16145b80612bc25750612bc181856124bc565b5b91505092915050565b8273ffffffffffffffffffffffffffffffffffffffff16612beb82611697565b73ffffffffffffffffffffffffffffffffffffffff1614612c41576040517f08c379a0000000000000000000000000000000000000000000000000000000008152600401612c3890614f14565b60405180910390fd5b600073ffffffffffffffffffffffffffffffffffffffff168273ffffffffffffffffffffffffffffffffffffffff161415612cb1576040517f08c379a0000000000000000000000000000000000000000000000000000000008152600401612ca890614d74565b60405180910390fd5b612cbc838383613438565b612cc760008261292f565b6001600360008573ffffffffffffffffffffffffffffffffffffffff1673ffffffffffffffffffffffffffffffffffffffff1681526020019081526020016000206000828254612d179190615318565b925050819055506001600360008473ffffffffffffffffffffffffffffffffffffffff1673ffffffffffffffffffffffffffffffffffffffff1681526020019081526020016000206000828254612d6e9190615237565b92505081905550816002600083815260200190815260200160002060006101000a81548173ffffffffffffffffffffffffffffffffffffffff021916908373ffffffffffffffffffffffffffffffffffffffff160217905550808273ffffffffffffffffffffffffffffffffffffffff168473ffffffffffffffffffffffffffffffffffffffff167fddf252ad1be2c89b69c2b068fc378daa952ba7f163c4a11628f55a4df523b3ef60405160405180910390a4505050565b60008183612e3591906152be565b905092915050565b6000612e4882611697565b9050612e5681600084613438565b612e6160008361292f565b6001600360008373ffffffffffffffffffffffffffffffffffffffff1673ffffffffffffffffffffffffffffffffffffffff1681526020019081526020016000206000828254612eb19190615318565b925050819055506002600083815260200190815260200160002060006101000a81549073ffffffffffffffffffffffffffffffffffffffff021916905581600073ffffffffffffffffffffffffffffffffffffffff168273ffffffffffffffffffffffffffffffffffffffff167fddf252ad1be2c89b69c2b068fc378daa952ba7f163c4a11628f55a4df523b3ef60405160405180910390a45050565b6000600660009054906101000a900473ffffffffffffffffffffffffffffffffffffffff16905081600660006101000a81548173ffffffffffffffffffffffffffffffffffffffff021916908373ffffffffffffffffffffffffffffffffffffffff1602179055508173ffffffffffffffffffffffffffffffffffffffff168173ffffffffffffffffffffffffffffffffffffffff167f8be0079c531659141344cd1fd0a4f28419497f9722a3daafe3b4186f6b6457e060405160405180910390a35050565b600080600d546001436130279190615318565b4060001c61303591906154de565b9050600061304282613448565b905060008082146130535781613055565b825b9050600e54816130659190615237565b935060006130806001600d5461307b9190615318565b613448565b90506130a9846000831461309457826130a4565b6001600d546130a39190615318565b5b613475565b6001600d546130b89190615318565b600d819055505050505090565b6130d0848484612bcb565b6130dc848484846134a2565b61311b576040517f08c379a000000000000000000000000000000000000000000000000000000000815260040161311290614cf4565b60405180910390fd5b50505050565b6060601b805461313090615428565b80601f016020809104026020016040519081016040528092919081815260200182805461315c90615428565b80156131a95780601f1061317e576101008083540402835291602001916131a9565b820191906000526020600020905b81548152906001019060200180831161318c57829003601f168201915b5050505050905090565b606060008214156131fb576040518060400160405280600181526020017f3000000000000000000000000000000000000000000000000000000000000000815250905061330f565b600082905060005b6000821461322d5780806132169061548b565b915050600a82613226919061528d565b9150613203565b60008167ffffffffffffffff811115613249576132486155fa565b5b6040519080825280601f01601f19166020018201604052801561327b5781602001600182028036833780820191505090505b5090505b60008514613308576001826132949190615318565b9150600a856132a391906154de565b60306132af9190615237565b60f81b8183815181106132c5576132c46155cb565b5b60200101907effffffffffffffffffffffffffffffffffffffffffffffffffffffffffffff1916908160001a905350600a85613301919061528d565b945061327f565b8093505050505b919050565b60007f80ac58cd000000000000000000000000000000000000000000000000000000007bffffffffffffffffffffffffffffffffffffffffffffffffffffffff1916827bffffffffffffffffffffffffffffffffffffffffffffffffffffffff191614806133df57507f5b5e139f000000000000000000000000000000000000000000000000000000007bffffffffffffffffffffffffffffffffffffffffffffffffffffffff1916827bffffffffffffffffffffffffffffffffffffffffffffffffffffffff1916145b806133ef57506133ee82613639565b5b9050919050565b600081600001549050919050565b61341e8282604051806020016040528060008152506136a3565b5050565b6001816000016000828254019250508190555050565b6134438383836136fe565b505050565b600080613457600f5484613798565b90506010600082815260200190815260200160002054915050919050565b6000613483600f5484613798565b9050816010600083815260200190815260200160002081905550505050565b60006134c38473ffffffffffffffffffffffffffffffffffffffff166137b7565b1561362c578373ffffffffffffffffffffffffffffffffffffffff1663150b7a026134ec612776565b8786866040518563ffffffff1660e01b815260040161350e9493929190614b4b565b602060405180830381600087803b15801561352857600080fd5b505af192505050801561355957506040513d601f19601f82011682018060405250810190613556919061429b565b60015b6135dc573d8060008114613589576040519150601f19603f3d011682016040523d82523d6000602084013e61358e565b606091505b506000815114156135d4576040517f08c379a00000000000000000000000000000000000000000000000000000000081526004016135cb90614cf4565b60405180910390fd5b805181602001fd5b63150b7a0260e01b7bffffffffffffffffffffffffffffffffffffffffffffffffffffffff1916817bffffffffffffffffffffffffffffffffffffffffffffffffffffffff191614915050613631565b600190505b949350505050565b60007f01ffc9a7000000000000000000000000000000000000000000000000000000007bffffffffffffffffffffffffffffffffffffffffffffffffffffffff1916827bffffffffffffffffffffffffffffffffffffffffffffffffffffffff1916149050919050565b6136ad83836137ca565b6136ba60008484846134a2565b6136f9576040517f08c379a00000000000000000000000000000000000000000000000000000000081526004016136f090614cf4565b60405180910390fd5b505050565b613709838383613998565b6137116119b4565b73ffffffffffffffffffffffffffffffffffffffff1661372f612776565b73ffffffffffffffffffffffffffffffffffffffff161461379357613752611680565b15613792576040517f08c379a000000000000000000000000000000000000000000000000000000000815260040161378990614c34565b60405180910390fd5b5b505050565b60008082608085901b6137ab9190615237565b90508091505092915050565b600080823b905060008111915050919050565b600073ffffffffffffffffffffffffffffffffffffffff168273ffffffffffffffffffffffffffffffffffffffff16141561383a576040517f08c379a000000000000000000000000000000000000000000000000000000000815260040161383190614eb4565b60405180910390fd5b613843816128c3565b15613883576040517f08c379a000000000000000000000000000000000000000000000000000000000815260040161387a90614d54565b60405180910390fd5b61388f60008383613438565b6001600360008473ffffffffffffffffffffffffffffffffffffffff1673ffffffffffffffffffffffffffffffffffffffff16815260200190815260200160002060008282546138df9190615237565b92505081905550816002600083815260200190815260200160002060006101000a81548173ffffffffffffffffffffffffffffffffffffffff021916908373ffffffffffffffffffffffffffffffffffffffff160217905550808273ffffffffffffffffffffffffffffffffffffffff16600073ffffffffffffffffffffffffffffffffffffffff167fddf252ad1be2c89b69c2b068fc378daa952ba7f163c4a11628f55a4df523b3ef60405160405180910390a45050565b6139a3838383613aac565b600073ffffffffffffffffffffffffffffffffffffffff168373ffffffffffffffffffffffffffffffffffffffff1614156139e6576139e181613ab1565b613a25565b8173ffffffffffffffffffffffffffffffffffffffff168373ffffffffffffffffffffffffffffffffffffffff1614613a2457613a238382613afa565b5b5b600073ffffffffffffffffffffffffffffffffffffffff168273ffffffffffffffffffffffffffffffffffffffff161415613a6857613a6381613c67565b613aa7565b8273ffffffffffffffffffffffffffffffffffffffff168273ffffffffffffffffffffffffffffffffffffffff1614613aa657613aa58282613d38565b5b5b505050565b505050565b600980549050600a600083815260200190815260200160002081905550600981908060018154018082558091505060019003906000526020600020016000909190919091505550565b60006001613b07846117c5565b613b119190615318565b9050600060086000848152602001908152602001600020549050818114613bf6576000600760008673ffffffffffffffffffffffffffffffffffffffff1673ffffffffffffffffffffffffffffffffffffffff168152602001908152602001600020600084815260200190815260200160002054905080600760008773ffffffffffffffffffffffffffffffffffffffff1673ffffffffffffffffffffffffffffffffffffffff168152602001908152602001600020600084815260200190815260200160002081905550816008600083815260200190815260200160002081905550505b6008600084815260200190815260200160002060009055600760008573ffffffffffffffffffffffffffffffffffffffff1673ffffffffffffffffffffffffffffffffffffffff16815260200190815260200160002060008381526020019081526020016000206000905550505050565b60006001600980549050613c7b9190615318565b90506000600a6000848152602001908152602001600020549050600060098381548110613cab57613caa6155cb565b5b906000526020600020015490508060098381548110613ccd57613ccc6155cb565b5b906000526020600020018190555081600a600083815260200190815260200160002081905550600a6000858152602001908152602001600020600090556009805480613d1c57613d1b61559c565b5b6001900381819060005260206000200160009055905550505050565b6000613d43836117c5565b905081600760008573ffffffffffffffffffffffffffffffffffffffff1673ffffffffffffffffffffffffffffffffffffffff168152602001908152602001600020600083815260200190815260200160002081905550806008600084815260200190815260200160002081905550505050565b828054613dc390615428565b90600052602060002090601f016020900481019282613de55760008555613e2c565b82601f10613dfe57805160ff1916838001178555613e2c565b82800160010185558215613e2c579182015b82811115613e2b578251825591602001919060010190613e10565b5b509050613e399190613e94565b5090565b6040518060e00160405280600081526020016000815260200160008152602001600081526020016000815260200160008152602001600081525090565b604051806040016040528060008152602001600081525090565b5b80821115613ead576000816000905550600101613e95565b5090565b6000613ec4613ebf84615159565b615134565b905082815260208101848484011115613ee057613edf61562e565b5b613eeb8482856153e6565b509392505050565b6000613f06613f018461518a565b615134565b905082815260208101848484011115613f2257613f2161562e565b5b613f2d8482856153e6565b509392505050565b600081359050613f4481615da5565b92915050565b600081359050613f5981615dbc565b92915050565b600081359050613f6e81615dd3565b92915050565b600081519050613f8381615dd3565b92915050565b600082601f830112613f9e57613f9d615629565b5b8135613fae848260208601613eb1565b91505092915050565b600082601f830112613fcc57613fcb615629565b5b8135613fdc848260208601613ef3565b91505092915050565b600081359050613ff481615dea565b92915050565b60008135905061400981615e01565b92915050565b60006020828403121561402557614024615638565b5b600061403384828501613f35565b91505092915050565b6000806040838503121561405357614052615638565b5b600061406185828601613f35565b925050602061407285828601613f35565b9150509250929050565b60008060006060848603121561409557614094615638565b5b60006140a386828701613f35565b93505060206140b486828701613f35565b92505060406140c586828701613fe5565b9150509250925092565b600080600080608085870312156140e9576140e8615638565b5b60006140f787828801613f35565b945050602061410887828801613f35565b935050604061411987828801613fe5565b925050606085013567ffffffffffffffff81111561413a57614139615633565b5b61414687828801613f89565b91505092959194509250565b6000806040838503121561416957614168615638565b5b600061417785828601613f35565b925050602061418885828601613f4a565b9150509250929050565b6000806000606084860312156141ab576141aa615638565b5b60006141b986828701613f35565b935050602084013567ffffffffffffffff8111156141da576141d9615633565b5b6141e686828701613fb7565b92505060406141f786828701613fe5565b9150509250925092565b6000806040838503121561421857614217615638565b5b600061422685828601613f35565b925050602061423785828601613fe5565b9150509250929050565b60006020828403121561425757614256615638565b5b600061426584828501613f4a565b91505092915050565b60006020828403121561428457614283615638565b5b600061429284828501613f5f565b91505092915050565b6000602082840312156142b1576142b0615638565b5b60006142bf84828501613f74565b91505092915050565b6000602082840312156142de576142dd615638565b5b600082013567ffffffffffffffff8111156142fc576142fb615633565b5b61430884828501613fb7565b91505092915050565b60006020828403121561432757614326615638565b5b600061433584828501613fe5565b91505092915050565b6000806040838503121561435557614354615638565b5b600061436385828601613fe5565b925050602083013567ffffffffffffffff81111561438457614383615633565b5b61439085828601613fb7565b9150509250929050565b600080604083850312156143b1576143b0615638565b5b60006143bf85828601613fe5565b92505060206143d085828601613fe5565b9150509250929050565b600080604083850312156143f1576143f0615638565b5b60006143ff85828601613fe5565b925050602061441085828601613ffa565b9150509250929050565b6000806040838503121561443157614430615638565b5b600061443f85828601613ffa565b925050602061445085828601613fe5565b9150509250929050565b60006144668383614a8b565b60208301905092915050565b61447b8161534c565b82525050565b600061448c826151cb565b61449681856151f9565b93506144a1836151bb565b8060005b838110156144d25781516144b9888261445a565b97506144c4836151ec565b9250506001810190506144a5565b5085935050505092915050565b6144e88161535e565b82525050565b60006144f9826151d6565b614503818561520a565b93506145138185602086016153f5565b61451c8161563d565b840191505092915050565b6000614532826151e1565b61453c818561521b565b935061454c8185602086016153f5565b6145558161563d565b840191505092915050565b600061456b826151e1565b614575818561522c565b93506145858185602086016153f5565b80840191505092915050565b600061459e602b8361521b565b91506145a98261564e565b604082019050919050565b60006145c160148361521b565b91506145cc8261569d565b602082019050919050565b60006145e460068361521b565b91506145ef826156c6565b602082019050919050565b600061460760128361521b565b9150614612826156ef565b602082019050919050565b600061462a60028361521b565b915061463582615718565b602082019050919050565b600061464d602b8361521b565b915061465882615741565b604082019050919050565b600061467060328361521b565b915061467b82615790565b604082019050919050565b600061469360128361521b565b915061469e826157df565b602082019050919050565b60006146b660268361521b565b91506146c182615808565b604082019050919050565b60006146d9601c8361521b565b91506146e482615857565b602082019050919050565b60006146fc60248361521b565b915061470782615880565b604082019050919050565b600061471f60198361521b565b915061472a826158cf565b602082019050919050565b6000614742602c8361521b565b915061474d826158f8565b604082019050919050565b600061476560108361521b565b915061477082615947565b602082019050919050565b600061478860128361521b565b915061479382615970565b602082019050919050565b60006147ab60388361521b565b91506147b682615999565b604082019050919050565b60006147ce602a8361521b565b91506147d9826159e8565b604082019050919050565b60006147f160298361521b565b91506147fc82615a37565b604082019050919050565b6000614814601f8361521b565b915061481f82615a86565b602082019050919050565b600061483760128361521b565b915061484282615aaf565b602082019050919050565b600061485a60208361521b565b915061486582615ad8565b602082019050919050565b600061487d602c8361521b565b915061488882615b01565b604082019050919050565b60006148a060208361521b565b91506148ab82615b50565b602082019050919050565b60006148c360298361521b565b91506148ce82615b79565b604082019050919050565b60006148e6602f8361521b565b91506148f182615bc8565b604082019050919050565b6000614909600a8361521b565b915061491482615c17565b602082019050919050565b600061492c60218361521b565b915061493782615c40565b604082019050919050565b600061494f60318361521b565b915061495a82615c8f565b604082019050919050565b6000614972602c8361521b565b915061497d82615cde565b604082019050919050565b600061499560178361521b565b91506149a082615d2d565b602082019050919050565b60006149b860308361521b565b91506149c382615d56565b604082019050919050565b60e0820160008201516149e46000850182614a8b565b5060208201516149f76020850182614a8b565b506040820151614a0a6040850182614a8b565b506060820151614a1d6060850182614a8b565b506080820151614a306080850182614a8b565b5060a0820151614a4360a0850182614a8b565b5060c0820151614a5660c0850182614a8b565b50505050565b604082016000820151614a726000850182614a8b565b506020820151614a856020850182614a8b565b50505050565b614a94816153b6565b82525050565b614aa3816153b6565b82525050565b614aba614ab5826153b6565b6154d4565b82525050565b614ac9816153d4565b82525050565b6000614adb8285614560565b9150614ae78284614560565b91508190509392505050565b6000614aff8286614aa9565b602082019150614b0f8285614aa9565b602082019150614b1f8284614aa9565b602082019150819050949350505050565b6000602082019050614b456000830184614472565b92915050565b6000608082019050614b606000830187614472565b614b6d6020830186614472565b614b7a6040830185614a9a565b8181036060830152614b8c81846144ee565b905095945050505050565b6000606082019050614bac6000830186614472565b8181036020830152614bbe8185614527565b9050614bcd6040830184614a9a565b949350505050565b60006020820190508181036000830152614bef8184614481565b905092915050565b6000602082019050614c0c60008301846144df565b92915050565b60006020820190508181036000830152614c2c8184614527565b905092915050565b60006020820190508181036000830152614c4d81614591565b9050919050565b60006020820190508181036000830152614c6d816145b4565b9050919050565b60006020820190508181036000830152614c8d816145d7565b9050919050565b60006020820190508181036000830152614cad816145fa565b9050919050565b60006020820190508181036000830152614ccd8161461d565b9050919050565b60006020820190508181036000830152614ced81614640565b9050919050565b60006020820190508181036000830152614d0d81614663565b9050919050565b60006020820190508181036000830152614d2d81614686565b9050919050565b60006020820190508181036000830152614d4d816146a9565b9050919050565b60006020820190508181036000830152614d6d816146cc565b9050919050565b60006020820190508181036000830152614d8d816146ef565b9050919050565b60006020820190508181036000830152614dad81614712565b9050919050565b60006020820190508181036000830152614dcd81614735565b9050919050565b60006020820190508181036000830152614ded81614758565b9050919050565b60006020820190508181036000830152614e0d8161477b565b9050919050565b60006020820190508181036000830152614e2d8161479e565b9050919050565b60006020820190508181036000830152614e4d816147c1565b9050919050565b60006020820190508181036000830152614e6d816147e4565b9050919050565b60006020820190508181036000830152614e8d81614807565b9050919050565b60006020820190508181036000830152614ead8161482a565b9050919050565b60006020820190508181036000830152614ecd8161484d565b9050919050565b60006020820190508181036000830152614eed81614870565b9050919050565b60006020820190508181036000830152614f0d81614893565b9050919050565b60006020820190508181036000830152614f2d816148b6565b9050919050565b60006020820190508181036000830152614f4d816148d9565b9050919050565b60006020820190508181036000830152614f6d816148fc565b9050919050565b60006020820190508181036000830152614f8d8161491f565b9050919050565b60006020820190508181036000830152614fad81614942565b9050919050565b60006020820190508181036000830152614fcd81614965565b9050919050565b60006020820190508181036000830152614fed81614988565b9050919050565b6000602082019050818103600083015261500d816149ab565b9050919050565b600060e08201905061502960008301846149ce565b92915050565b60006040820190506150446000830184614a5c565b92915050565b600060208201905061505f6000830184614a9a565b92915050565b600060408201905061507a6000830185614a9a565b6150876020830184614a9a565b9392505050565b600060e0820190506150a3600083018a614a9a565b6150b06020830189614a9a565b6150bd6040830188614a9a565b6150ca6060830187614a9a565b6150d76080830186614a9a565b6150e460a0830185614a9a565b6150f160c0830184614a9a565b98975050505050505050565b60006060820190506151126000830186614ac0565b61511f6020830185614a9a565b61512c6040830184614a9a565b949350505050565b600061513e61514f565b905061514a828261545a565b919050565b6000604051905090565b600067ffffffffffffffff821115615174576151736155fa565b5b61517d8261563d565b9050602081019050919050565b600067ffffffffffffffff8211156151a5576151a46155fa565b5b6151ae8261563d565b9050602081019050919050565b6000819050602082019050919050565b600081519050919050565b600081519050919050565b600081519050919050565b6000602082019050919050565b600082825260208201905092915050565b600082825260208201905092915050565b600082825260208201905092915050565b600081905092915050565b6000615242826153b6565b915061524d836153b6565b9250827fffffffffffffffffffffffffffffffffffffffffffffffffffffffffffffffff038211156152825761528161550f565b5b828201905092915050565b6000615298826153b6565b91506152a3836153b6565b9250826152b3576152b261553e565b5b828204905092915050565b60006152c9826153b6565b91506152d4836153b6565b9250817fffffffffffffffffffffffffffffffffffffffffffffffffffffffffffffffff048311821515161561530d5761530c61550f565b5b828202905092915050565b6000615323826153b6565b915061532e836153b6565b9250828210156153415761534061550f565b5b828203905092915050565b600061535782615396565b9050919050565b60008115159050919050565b60007fffffffff0000000000000000000000000000000000000000000000000000000082169050919050565b600073ffffffffffffffffffffffffffffffffffffffff82169050919050565b6000819050919050565b600067ffffffffffffffff82169050919050565b60006153df826153c0565b9050919050565b82818337600083830152505050565b60005b838110156154135780820151818401526020810190506153f8565b83811115615422576000848401525b50505050565b6000600282049050600182168061544057607f821691505b602082108114156154545761545361556d565b5b50919050565b6154638261563d565b810181811067ffffffffffffffff82111715615482576154816155fa565b5b80604052505050565b6000615496826153b6565b91507fffffffffffffffffffffffffffffffffffffffffffffffffffffffffffffffff8214156154c9576154c861550f565b5b600182019050919050565b6000819050919050565b60006154e9826153b6565b91506154f4836153b6565b9250826155045761550361553e565b5b828206905092915050565b7f4e487b7100000000000000000000000000000000000000000000000000000000600052601160045260246000fd5b7f4e487b7100000000000000000000000000000000000000000000000000000000600052601260045260246000fd5b7f4e487b7100000000000000000000000000000000000000000000000000000000600052602260045260246000fd5b7f4e487b7100000000000000000000000000000000000000000000000000000000600052603160045260246000fd5b7f4e487b7100000000000000000000000000000000000000000000000000000000600052603260045260246000fd5b7f4e487b7100000000000000000000000000000000000000000000000000000000600052604160045260246000fd5b600080fd5b600080fd5b600080fd5b600080fd5b6000601f19601f8301169050919050565b7f4552433732315061757361626c653a20746f6b656e207472616e73666572207760008201527f68696c6520706175736564000000000000000000000000000000000000000000602082015250565b7f5061757361626c653a206e6f7420706175736564000000000000000000000000600082015250565b7f5061757365640000000000000000000000000000000000000000000000000000600082015250565b7f6e6f74206f776e65722f617070726f7665640000000000000000000000000000600082015250565b7f6533000000000000000000000000000000000000000000000000000000000000600082015250565b7f455243373231456e756d657261626c653a206f776e657220696e646578206f7560008201527f74206f6620626f756e6473000000000000000000000000000000000000000000602082015250565b7f4552433732313a207472616e7366657220746f206e6f6e20455243373231526560008201527f63656976657220696d706c656d656e7465720000000000000000000000000000602082015250565b7f45786365656473206d696e74206c696d69740000000000000000000000000000600082015250565b7f4f776e61626c653a206e6577206f776e657220697320746865207a65726f206160008201527f6464726573730000000000000000000000000000000000000000000000000000602082015250565b7f4552433732313a20746f6b656e20616c7265616479206d696e74656400000000600082015250565b7f4552433732313a207472616e7366657220746f20746865207a65726f2061646460008201527f7265737300000000000000000000000000000000000000000000000000000000602082015250565b7f4552433732313a20617070726f766520746f2063616c6c657200000000000000600082015250565b7f4552433732313a206f70657261746f7220717565727920666f72206e6f6e657860008201527f697374656e7420746f6b656e0000000000000000000000000000000000000000602082015250565b7f5061757361626c653a2070617573656400000000000000000000000000000000600082015250565b7f42617365555249206973206c6f636b6564210000000000000000000000000000600082015250565b7f4552433732313a20617070726f76652063616c6c6572206973206e6f74206f7760008201527f6e6572206e6f7220617070726f76656420666f7220616c6c0000000000000000602082015250565b7f4552433732313a2062616c616e636520717565727920666f7220746865207a6560008201527f726f206164647265737300000000000000000000000000000000000000000000602082015250565b7f4552433732313a206f776e657220717565727920666f72206e6f6e657869737460008201527f656e7420746f6b656e0000000000000000000000000000000000000000000000602082015250565b7f536f6c64206f75742c20706c6561736520627579206f6e204f70656e73656100600082015250565b7f45786365656473206d617820737570706c790000000000000000000000000000600082015250565b7f4552433732313a206d696e7420746f20746865207a65726f2061646472657373600082015250565b7f4552433732313a20617070726f76656420717565727920666f72206e6f6e657860008201527f697374656e7420746f6b656e0000000000000000000000000000000000000000602082015250565b7f4f776e61626c653a2063616c6c6572206973206e6f7420746865206f776e6572600082015250565b7f4552433732313a207472616e73666572206f6620746f6b656e2074686174206960008201527f73206e6f74206f776e0000000000000000000000000000000000000000000000602082015250565b7f4552433732314d657461646174613a2055524920717565727920666f72206e6f60008201527f6e6578697374656e7420746f6b656e0000000000000000000000000000000000602082015250565b7f53616c6520656e64656400000000000000000000000000000000000000000000600082015250565b7f4552433732313a20617070726f76616c20746f2063757272656e74206f776e6560008201527f7200000000000000000000000000000000000000000000000000000000000000602082015250565b7f4552433732313a207472616e736665722063616c6c6572206973206e6f74206f60008201527f776e6572206e6f7220617070726f766564000000000000000000000000000000602082015250565b7f455243373231456e756d657261626c653a20676c6f62616c20696e646578206f60008201527f7574206f6620626f756e64730000000000000000000000000000000000000000602082015250565b7f56616c75652062656c6f772073616c6573207072696365000000000000000000600082015250565b7f4552433732314275726e61626c653a2063616c6c6572206973206e6f74206f7760008201527f6e6572206e6f7220617070726f76656400000000000000000000000000000000602082015250565b615dae8161534c565b8114615db957600080fd5b50565b615dc58161535e565b8114615dd057600080fd5b50565b615ddc8161536a565b8114615de757600080fd5b50565b615df3816153b6565b8114615dfe57600080fd5b50565b615e0a816153c0565b8114615e1557600080fd5b5056fea264697066735822122070a57b2b7178f95de6b5018336391edf57d5b5cb06607b79e9c9d39446c4a1e264736f6c63430008070033",
  "immutableReferences": {},
  "source": "// SPDX-License-Identifier: Apache-2.0\r\npragma solidity ^0.8.7;\r\nimport \"@openzeppelin/contracts/token/ERC721/ERC721.sol\";\r\nimport \"@openzeppelin/contracts/token/ERC721/extensions/ERC721Enumerable.sol\";\r\nimport \"@openzeppelin/contracts/token/ERC721/extensions/ERC721Burnable.sol\";\r\nimport \"@openzeppelin/contracts/access/Ownable.sol\";\r\nimport \"@openzeppelin/contracts/utils/math/SafeMath.sol\";\r\nimport \"@openzeppelin/contracts/utils/Counters.sol\";\r\nimport \"./ERC721Pausable.sol\";\r\nimport \"./GenerationalGenerativeRandomDraw.sol\";\r\nimport \"./SendableWithMessage.sol\";\r\n\r\ncontract TheHug is Ownable, ERC721Enumerable, GenerationalGenerativeRandomDraw, ERC721Burnable, ERC721Pausable {\r\n\r\n    using SafeMath for uint256;\r\n    using Counters for Counters.Counter;\r\n    Counters.Counter private _tokenIdTracker;\r\n\r\n    uint256 private nftPrice;\r\n    uint256 private nftMaxSupply = 5000;\r\n    uint256 private nftMaxMint = 20;\r\n    string private baseTokenURI;\r\n    bool private lockURI = false;\r\n\r\n    uint256 public promotionalMintIndex = 10001;\r\n\r\n    event MintEvent(address to, uint256 indexed id);\r\n    event ChangePriceEvent(uint256 price);\r\n    event ChangeBaseUriEvent(string baseUri);\r\n\r\n\r\n    constructor (string memory baseURI, uint256 initialPrice) ERC721(\"The Hug\", \"XO\") {\r\n        setBaseURI(baseURI);\r\n        nftPrice = initialPrice;\r\n    }\r\n\r\n    modifier saleIsOpen {\r\n        require(_totalSupply() <= nftMaxSupply, \"Sale ended\");\r\n        if (_msgSender() != owner()) {\r\n            require(!paused(), \"Paused\");\r\n        }\r\n        _;\r\n    }\r\n\r\n    function premintChecks(uint256 _count) private view {\r\n        uint256 total = _totalSupply();\r\n        require(total < nftMaxSupply, \"Sold out, please buy on Opensea\");\r\n        require(total + _count <= nftMaxSupply, \"Exceeds max supply\");\r\n    }\r\n\r\n    function mint(uint256 _count) public payable saleIsOpen {\r\n        premintChecks(_count);\r\n        require(_count <= nftMaxMint, \"Exceeds mint limit\");\r\n        require(msg.value >= price(_count), \"Value below sales price\");\r\n        for (uint256 i = 0; i < _count; i++) {\r\n            uint256 randomAvailableIndex = drawIndex();\r\n            _mintAnElement(msg.sender, randomAvailableIndex);\r\n        }\r\n    }\r\n\r\n    function promotionalMint(uint256 _count) public onlyOwner payable saleIsOpen {\r\n        premintChecks(_count);\r\n        // promotional max index is 1K\r\n        require(promotionalMintIndex - 1 + _count <= 11000, \"e3\");\r\n        for (uint256 i = 0; i < _count; i++) {\r\n            _mintAnElement(msg.sender, promotionalMintIndex + i);\r\n        }\r\n        promotionalMintIndex += _count;\r\n    }\r\n\r\n    function _mintAnElement(address _to, uint256 mintId) private {\r\n        _safeMint(_to, mintId);\r\n        _tokenIdTracker.increment();\r\n        emit MintEvent(_to, mintId);\r\n    }\r\n\r\n    function setBaseURI(string memory baseURI) public onlyOwner {\r\n        require(!lockURI, \"BaseURI is locked!\");\r\n        baseTokenURI = baseURI;\r\n        emit ChangeBaseUriEvent(baseURI);\r\n    }\r\n\r\n    function CAUTION_PermanentlyLockBaseURI(uint256 password) public onlyOwner {\r\n        if (password == 54321) {\r\n            lockURI = true;\r\n        }\r\n    }\r\n\r\n    function _baseURI() internal view virtual override returns (string memory) {\r\n        return baseTokenURI;\r\n    }\r\n\r\n    function price(uint256 _count) public view returns (uint256) {\r\n        return nftPrice.mul(_count);\r\n    }\r\n\r\n    function setPrice(uint256 newPrice) public onlyOwner {\r\n        nftPrice = newPrice;\r\n        emit ChangePriceEvent(newPrice);\r\n    }\r\n\r\n    function _totalSupply() internal view returns (uint) {\r\n        return _tokenIdTracker.current();\r\n    }\r\n\r\n    function maxMint() public view returns (uint256) {\r\n        return nftMaxMint;\r\n    }\r\n\r\n    function maxSupply() public view returns (uint256) {\r\n        return nftMaxSupply;\r\n    }\r\n\r\n    function getTokenIdsOfWallet(address _owner) external view returns (uint256[] memory) {\r\n        uint256 tokenCount = balanceOf(_owner);\r\n        uint256[] memory tokensId = new uint256[](tokenCount);\r\n        for (uint256 i = 0; i < tokenCount; i++) {\r\n            tokensId[i] = tokenOfOwnerByIndex(_owner, i);\r\n        }\r\n        return tokensId;\r\n    }\r\n\r\n    function pause(bool value) public onlyOwner {\r\n        if (value == true) {\r\n            _pause();\r\n            return;\r\n        }\r\n        _unpause();\r\n    }\r\n\r\n    function _beforeTokenTransfer(\r\n        address from,\r\n        address to,\r\n        uint256 tokenId\r\n    ) internal virtual override(ERC721, ERC721Enumerable, ERC721Pausable) {\r\n        super._beforeTokenTransfer(from, to, tokenId);\r\n    }\r\n\r\n    function supportsInterface(bytes4 interfaceId) public view virtual override(ERC721, ERC721Enumerable) returns (bool) {\r\n        return super.supportsInterface(interfaceId);\r\n    }\r\n\r\n    // SENDABLE CARD\r\n\r\n    mapping(uint256 => string) public messages;\r\n    event SendCardEvent(address to, string message, uint256 tokenId);\r\n\r\n    function sendWithMessage(address to, string memory message, uint256 tokenId) public {\r\n        require(_isApprovedOrOwner(_msgSender(), tokenId), \"not owner/approved\");\r\n        safeTransferFrom(msg.sender, to, tokenId);\r\n        emit SendCardEvent(to, message, tokenId);\r\n    }\r\n\r\n    function sendWithOnChainMessage(address to, string memory message, uint256 tokenId) public {\r\n        require(_isApprovedOrOwner(_msgSender(), tokenId), \"not owner/approved\");\r\n        safeTransferFrom(msg.sender, to, tokenId);\r\n        messages[tokenId] = message;\r\n        emit SendCardEvent(to, message, tokenId);\r\n    }\r\n\r\n    function setMessage(uint256 tokenId, string memory message) public {\r\n        require(_isApprovedOrOwner(_msgSender(), tokenId), \"not owner/approved\");\r\n        messages[tokenId] = message;\r\n    }\r\n\r\n}\r\n",
  "sourcePath": "C:\\Users\\16172\\code\\hardhat-tutorial\\contracts\\TheHug.sol",
  "compiler": {
    "name": "solc",
    "version": "0.8.7+commit.e28d00a7.Emscripten.clang"
  },
  "schemaVersion": "3.4.3",
  "updatedAt": "2021-11-03T23:41:04.899Z",
  "networkType": "ethereum",
  "devdoc": {
    "kind": "dev",
    "methods": {
      "approve(address,uint256)": {
        "details": "See {IERC721-approve}."
      },
      "balanceOf(address)": {
        "details": "See {IERC721-balanceOf}."
      },
      "burn(uint256)": {
        "details": "Burns `tokenId`. See {ERC721-_burn}. Requirements: - The caller must own `tokenId` or be an approved operator."
      },
      "getApproved(uint256)": {
        "details": "See {IERC721-getApproved}."
      },
      "isApprovedForAll(address,address)": {
        "details": "See {IERC721-isApprovedForAll}."
      },
      "name()": {
        "details": "See {IERC721Metadata-name}."
      },
      "owner()": {
        "details": "Returns the address of the current owner."
      },
      "ownerOf(uint256)": {
        "details": "See {IERC721-ownerOf}."
      },
      "paused()": {
        "details": "Returns true if the contract is paused, and false otherwise."
      },
      "renounceOwnership()": {
        "details": "Leaves the contract without owner. It will not be possible to call `onlyOwner` functions anymore. Can only be called by the current owner. NOTE: Renouncing ownership will leave the contract without an owner, thereby removing any functionality that is only available to the owner."
      },
      "safeTransferFrom(address,address,uint256)": {
        "details": "See {IERC721-safeTransferFrom}."
      },
      "safeTransferFrom(address,address,uint256,bytes)": {
        "details": "See {IERC721-safeTransferFrom}."
      },
      "setApprovalForAll(address,bool)": {
        "details": "See {IERC721-setApprovalForAll}."
      },
      "symbol()": {
        "details": "See {IERC721Metadata-symbol}."
      },
      "tokenByIndex(uint256)": {
        "details": "See {IERC721Enumerable-tokenByIndex}."
      },
      "tokenOfOwnerByIndex(address,uint256)": {
        "details": "See {IERC721Enumerable-tokenOfOwnerByIndex}."
      },
      "tokenURI(uint256)": {
        "details": "See {IERC721Metadata-tokenURI}."
      },
      "totalSupply()": {
        "details": "See {IERC721Enumerable-totalSupply}."
      },
      "transferFrom(address,address,uint256)": {
        "details": "See {IERC721-transferFrom}."
      },
      "transferOwnership(address)": {
        "details": "Transfers ownership of the contract to a new account (`newOwner`). Can only be called by the current owner."
      }
    },
    "version": 1
  },
  "userdoc": {
    "kind": "user",
    "methods": {},
    "version": 1
  }
}